{
  "abi": [
    {
      "inputs": [
        {
          "internalType": "string",
          "name": "_name",
          "type": "string"
        },
        {
          "internalType": "string",
          "name": "_symbol",
          "type": "string"
        },
        {
          "internalType": "uint8",
          "name": "_decimals",
          "type": "uint8"
        }
      ],
      "stateMutability": "nonpayable",
      "type": "constructor"
    },
    {
      "anonymous": false,
      "inputs": [
        {
          "indexed": true,
          "internalType": "address",
          "name": "owner",
          "type": "address"
        },
        {
          "indexed": true,
          "internalType": "address",
          "name": "spender",
          "type": "address"
        },
        {
          "indexed": false,
          "internalType": "uint256",
          "name": "amount",
          "type": "uint256"
        }
      ],
      "name": "Approval",
      "type": "event"
    },
    {
      "anonymous": false,
      "inputs": [
        {
          "indexed": false,
          "internalType": "address",
          "name": "newAdmin",
          "type": "address"
        }
      ],
      "name": "LogNewAdmin",
      "type": "event"
    },
    {
      "anonymous": false,
      "inputs": [
        {
          "indexed": false,
          "internalType": "string[]",
          "name": "namesOfParticipants",
          "type": "string[]"
        },
        {
          "indexed": false,
          "internalType": "address[]",
          "name": "tokens",
          "type": "address[]"
        },
        {
          "indexed": false,
          "internalType": "uint128[]",
          "name": "price",
          "type": "uint128[]"
        },
        {
          "indexed": false,
          "internalType": "address[]",
          "name": "users",
          "type": "address[]"
        },
        {
          "indexed": false,
          "internalType": "uint256[]",
          "name": "targets",
          "type": "uint256[]"
        },
        {
          "indexed": false,
          "internalType": "uint32",
          "name": "cliff",
          "type": "uint32"
        },
        {
          "indexed": false,
          "internalType": "uint32",
          "name": "vestingTime",
          "type": "uint32"
        }
      ],
      "name": "LogNewCollectiveInitialized",
      "type": "event"
    },
    {
      "anonymous": false,
      "inputs": [
        {
          "indexed": false,
          "internalType": "uint256",
          "name": "time",
          "type": "uint256"
        }
      ],
      "name": "LogNewPoolInitialized",
      "type": "event"
    },
    {
      "anonymous": false,
      "inputs": [
        {
          "indexed": false,
          "internalType": "address",
          "name": "user",
          "type": "address"
        },
        {
          "indexed": false,
          "internalType": "uint256",
          "name": "share",
          "type": "uint256"
        },
        {
          "indexed": false,
          "internalType": "address[]",
          "name": "tokens",
          "type": "address[]"
        },
        {
          "indexed": false,
          "internalType": "uint256[]",
          "name": "amounts",
          "type": "uint256[]"
        }
      ],
      "name": "LogTokensClaimed",
      "type": "event"
    },
    {
      "anonymous": false,
      "inputs": [
        {
          "indexed": false,
          "internalType": "address",
          "name": "user",
          "type": "address"
        },
        {
          "indexed": false,
          "internalType": "uint256",
          "name": "_assetValue",
          "type": "uint256"
        },
        {
          "indexed": false,
          "internalType": "uint256",
          "name": "_depositedShare",
          "type": "uint256"
        },
        {
          "indexed": false,
          "internalType": "uint256",
          "name": "_lastCheckpointTWAP",
          "type": "uint256"
        },
        {
          "indexed": false,
          "internalType": "uint256",
          "name": "_lastCheckpointTime",
          "type": "uint256"
        },
        {
          "indexed": false,
          "internalType": "uint256",
          "name": "_lastCheckpointPercentageVested",
          "type": "uint256"
        }
      ],
      "name": "LogTokensStaked",
      "type": "event"
    },
    {
      "anonymous": false,
      "inputs": [
        {
          "indexed": false,
          "internalType": "address",
          "name": "user",
          "type": "address"
        },
        {
          "indexed": false,
          "internalType": "uint256",
          "name": "_assetValue",
          "type": "uint256"
        }
      ],
      "name": "LogTokensUnstaked",
      "type": "event"
    },
    {
      "anonymous": false,
      "inputs": [
        {
          "indexed": true,
          "internalType": "address",
          "name": "from",
          "type": "address"
        },
        {
          "indexed": true,
          "internalType": "address",
          "name": "to",
          "type": "address"
        },
        {
          "indexed": false,
          "internalType": "uint256",
          "name": "amount",
          "type": "uint256"
        }
      ],
      "name": "Transfer",
      "type": "event"
    },
    {
      "inputs": [],
      "name": "BP",
      "outputs": [
        {
          "internalType": "uint32",
          "name": "",
          "type": "uint32"
        }
      ],
      "stateMutability": "view",
      "type": "function"
    },
    {
      "inputs": [],
      "name": "DOMAIN_SEPARATOR",
      "outputs": [
        {
          "internalType": "bytes32",
          "name": "",
          "type": "bytes32"
        }
      ],
      "stateMutability": "view",
      "type": "function"
    },
    {
      "inputs": [],
      "name": "PERMIT_TYPEHASH",
      "outputs": [
        {
          "internalType": "bytes32",
          "name": "",
          "type": "bytes32"
        }
      ],
      "stateMutability": "view",
      "type": "function"
    },
    {
      "inputs": [],
      "name": "VEST_MULTIPLIER",
      "outputs": [
        {
          "internalType": "uint256",
          "name": "",
          "type": "uint256"
        }
      ],
      "stateMutability": "view",
      "type": "function"
    },
    {
      "inputs": [],
      "name": "admin",
      "outputs": [
        {
          "internalType": "address",
          "name": "",
          "type": "address"
        }
      ],
      "stateMutability": "view",
      "type": "function"
    },
    {
      "inputs": [
        {
          "internalType": "address",
          "name": "",
          "type": "address"
        },
        {
          "internalType": "address",
          "name": "",
          "type": "address"
        }
      ],
      "name": "allowance",
      "outputs": [
        {
          "internalType": "uint256",
          "name": "",
          "type": "uint256"
        }
      ],
      "stateMutability": "view",
      "type": "function"
    },
    {
      "inputs": [
        {
          "internalType": "address",
          "name": "spender",
          "type": "address"
        },
        {
          "internalType": "uint256",
          "name": "amount",
          "type": "uint256"
        }
      ],
      "name": "approve",
      "outputs": [
        {
          "internalType": "bool",
          "name": "",
          "type": "bool"
        }
      ],
      "stateMutability": "nonpayable",
      "type": "function"
    },
    {
      "inputs": [
        {
          "internalType": "address",
          "name": "",
          "type": "address"
        }
      ],
      "name": "balanceOf",
      "outputs": [
        {
          "internalType": "uint256",
          "name": "",
          "type": "uint256"
        }
      ],
      "stateMutability": "view",
      "type": "function"
    },
    {
      "inputs": [
        {
          "internalType": "address",
          "name": "user",
          "type": "address"
        },
        {
          "internalType": "bool",
          "name": "updated",
          "type": "bool"
        }
      ],
      "name": "calculateShareToClaim",
      "outputs": [
        {
          "internalType": "uint256",
          "name": "",
          "type": "uint256"
        }
      ],
      "stateMutability": "view",
      "type": "function"
    },
    {
      "inputs": [
        {
          "internalType": "address payable",
          "name": "to",
          "type": "address"
        }
      ],
      "name": "cancel",
      "outputs": [],
      "stateMutability": "nonpayable",
      "type": "function"
    },
    {
      "inputs": [],
      "name": "claim",
      "outputs": [],
      "stateMutability": "nonpayable",
      "type": "function"
    },
    {
      "inputs": [],
      "name": "collectiveInfo",
      "outputs": [
        {
          "internalType": "uint32",
          "name": "vestingTime",
          "type": "uint32"
        },
        {
          "internalType": "uint32",
          "name": "cliff",
          "type": "uint32"
        },
        {
          "internalType": "uint32",
          "name": "collectiveStart",
          "type": "uint32"
        }
      ],
      "stateMutability": "view",
      "type": "function"
    },
    {
      "inputs": [],
      "name": "decimals",
      "outputs": [
        {
          "internalType": "uint8",
          "name": "",
          "type": "uint8"
        }
      ],
      "stateMutability": "view",
      "type": "function"
    },
    {
      "inputs": [
        {
          "internalType": "address",
          "name": "user",
          "type": "address"
        }
      ],
      "name": "getClaimable",
      "outputs": [
        {
          "internalType": "uint256[]",
          "name": "",
          "type": "uint256[]"
        }
      ],
      "stateMutability": "view",
      "type": "function"
    },
    {
      "inputs": [
        {
          "internalType": "string[]",
          "name": "_namesOfParticipants",
          "type": "string[]"
        },
        {
          "components": [
            {
              "internalType": "uint32",
              "name": "vestingTime",
              "type": "uint32"
            },
            {
              "internalType": "uint32",
              "name": "cliff",
              "type": "uint32"
            },
            {
              "internalType": "uint32",
              "name": "collectiveStart",
              "type": "uint32"
            }
          ],
          "internalType": "struct BuidlCollective.Collective",
          "name": "_collectiveInfo",
          "type": "tuple"
        },
        {
          "internalType": "address[]",
          "name": "_tokens",
          "type": "address[]"
        },
        {
          "internalType": "uint128[]",
          "name": "_prices",
          "type": "uint128[]"
        },
        {
          "internalType": "address[]",
          "name": "_users",
          "type": "address[]"
        },
        {
          "internalType": "uint256[]",
          "name": "_targets",
          "type": "uint256[]"
        }
      ],
      "name": "initialize",
      "outputs": [],
      "stateMutability": "nonpayable",
      "type": "function"
    },
    {
      "inputs": [],
      "name": "lastCheckpoint",
      "outputs": [
        {
          "internalType": "uint256",
          "name": "",
          "type": "uint256"
        }
      ],
      "stateMutability": "view",
      "type": "function"
    },
    {
      "inputs": [],
      "name": "lastTWAP",
      "outputs": [
        {
          "internalType": "uint256",
          "name": "",
          "type": "uint256"
        }
      ],
      "stateMutability": "view",
      "type": "function"
    },
    {
      "inputs": [],
      "name": "name",
      "outputs": [
        {
          "internalType": "string",
          "name": "",
          "type": "string"
        }
      ],
      "stateMutability": "view",
      "type": "function"
    },
    {
      "inputs": [
        {
          "internalType": "uint256",
          "name": "",
          "type": "uint256"
        }
      ],
      "name": "namesOfParticipants",
      "outputs": [
        {
          "internalType": "string",
          "name": "",
          "type": "string"
        }
      ],
      "stateMutability": "view",
      "type": "function"
    },
    {
      "inputs": [],
      "name": "noOfTokens",
      "outputs": [
        {
          "internalType": "uint256",
          "name": "",
          "type": "uint256"
        }
      ],
      "stateMutability": "view",
      "type": "function"
    },
    {
      "inputs": [
        {
          "internalType": "address",
          "name": "",
          "type": "address"
        }
      ],
      "name": "nonces",
      "outputs": [
        {
          "internalType": "uint256",
          "name": "",
          "type": "uint256"
        }
      ],
      "stateMutability": "view",
      "type": "function"
    },
    {
      "inputs": [
        {
          "internalType": "address",
          "name": "owner",
          "type": "address"
        },
        {
          "internalType": "address",
          "name": "spender",
          "type": "address"
        },
        {
          "internalType": "uint256",
          "name": "value",
          "type": "uint256"
        },
        {
          "internalType": "uint256",
          "name": "deadline",
          "type": "uint256"
        },
        {
          "internalType": "uint8",
          "name": "v",
          "type": "uint8"
        },
        {
          "internalType": "bytes32",
          "name": "r",
          "type": "bytes32"
        },
        {
          "internalType": "bytes32",
          "name": "s",
          "type": "bytes32"
        }
      ],
      "name": "permit",
      "outputs": [],
      "stateMutability": "nonpayable",
      "type": "function"
    },
    {
      "inputs": [],
      "name": "pokeApproval",
      "outputs": [
        {
          "internalType": "bool[]",
          "name": "",
          "type": "bool[]"
        }
      ],
      "stateMutability": "view",
      "type": "function"
    },
    {
      "inputs": [
        {
          "internalType": "uint256",
          "name": "_tokenId",
          "type": "uint256"
        }
      ],
      "name": "readToken",
      "outputs": [
        {
          "internalType": "address",
          "name": "",
          "type": "address"
        },
        {
          "components": [
            {
              "internalType": "uint256",
              "name": "target",
              "type": "uint256"
            },
            {
              "internalType": "uint128",
              "name": "price",
              "type": "uint128"
            },
            {
              "internalType": "address",
              "name": "user",
              "type": "address"
            }
          ],
          "internalType": "struct BuidlCollective.TokenInfo",
          "name": "",
          "type": "tuple"
        }
      ],
      "stateMutability": "view",
      "type": "function"
    },
    {
      "inputs": [],
      "name": "releaseFactor",
      "outputs": [
        {
          "internalType": "uint256",
          "name": "",
          "type": "uint256"
        }
      ],
      "stateMutability": "view",
      "type": "function"
    },
    {
      "inputs": [
        {
          "internalType": "uint256",
          "name": "_assetValue",
          "type": "uint256"
        }
      ],
      "name": "stake",
      "outputs": [],
      "stateMutability": "nonpayable",
      "type": "function"
    },
    {
      "inputs": [],
      "name": "startCollective",
      "outputs": [],
      "stateMutability": "nonpayable",
      "type": "function"
    },
    {
      "inputs": [],
      "name": "symbol",
      "outputs": [
        {
          "internalType": "string",
          "name": "",
          "type": "string"
        }
      ],
      "stateMutability": "view",
      "type": "function"
    },
    {
      "inputs": [
        {
          "internalType": "address",
          "name": "",
          "type": "address"
        }
      ],
      "name": "tokenInfo",
      "outputs": [
        {
          "internalType": "uint256",
          "name": "target",
          "type": "uint256"
        },
        {
          "internalType": "uint128",
          "name": "price",
          "type": "uint128"
        },
        {
          "internalType": "address",
          "name": "user",
          "type": "address"
        }
      ],
      "stateMutability": "view",
      "type": "function"
    },
    {
      "inputs": [
        {
          "internalType": "uint256",
          "name": "",
          "type": "uint256"
        }
      ],
      "name": "tokens",
      "outputs": [
        {
          "internalType": "address",
          "name": "",
          "type": "address"
        }
      ],
      "stateMutability": "view",
      "type": "function"
    },
    {
      "inputs": [],
      "name": "totalAssets",
      "outputs": [
        {
          "internalType": "uint256",
          "name": "",
          "type": "uint256"
        }
      ],
      "stateMutability": "view",
      "type": "function"
    },
    {
      "inputs": [],
      "name": "totalStaked",
      "outputs": [
        {
          "internalType": "uint256",
          "name": "",
          "type": "uint256"
        }
      ],
      "stateMutability": "view",
      "type": "function"
    },
    {
      "inputs": [],
      "name": "totalSupply",
      "outputs": [
        {
          "internalType": "uint256",
          "name": "",
          "type": "uint256"
        }
      ],
      "stateMutability": "view",
      "type": "function"
    },
    {
      "inputs": [
        {
          "internalType": "address",
          "name": "to",
          "type": "address"
        },
        {
          "internalType": "uint256",
          "name": "amount",
          "type": "uint256"
        }
      ],
      "name": "transfer",
      "outputs": [
        {
          "internalType": "bool",
          "name": "",
          "type": "bool"
        }
      ],
      "stateMutability": "nonpayable",
      "type": "function"
    },
    {
      "inputs": [
        {
          "internalType": "address",
          "name": "from",
          "type": "address"
        },
        {
          "internalType": "address",
          "name": "to",
          "type": "address"
        },
        {
          "internalType": "uint256",
          "name": "amount",
          "type": "uint256"
        }
      ],
      "name": "transferFrom",
      "outputs": [
        {
          "internalType": "bool",
          "name": "",
          "type": "bool"
        }
      ],
      "stateMutability": "nonpayable",
      "type": "function"
    },
    {
      "inputs": [
        {
          "internalType": "uint256",
          "name": "_assetValueLeft",
          "type": "uint256"
        }
      ],
      "name": "unstake",
      "outputs": [],
      "stateMutability": "nonpayable",
      "type": "function"
    },
    {
      "inputs": [],
      "name": "unstakeAll",
      "outputs": [],
      "stateMutability": "nonpayable",
      "type": "function"
    },
    {
      "inputs": [
        {
          "internalType": "address",
          "name": "_newAdmin",
          "type": "address"
        }
      ],
      "name": "updateAdmin",
      "outputs": [],
      "stateMutability": "nonpayable",
      "type": "function"
    },
    {
      "inputs": [
        {
          "internalType": "address",
          "name": "",
          "type": "address"
        }
      ],
      "name": "userInfo",
      "outputs": [
        {
          "internalType": "uint256",
          "name": "depositedShare",
          "type": "uint256"
        },
        {
          "internalType": "uint256",
          "name": "lastCheckpointTWAP",
          "type": "uint256"
        },
        {
          "internalType": "uint256",
          "name": "lastCheckpointTime",
          "type": "uint256"
        },
        {
          "internalType": "uint256",
          "name": "lastCheckpointPercentageVested",
          "type": "uint256"
        }
      ],
      "stateMutability": "view",
      "type": "function"
    }
  ],
  "bytecode": "60e06040526203f4806012553480156200001857600080fd5b506040516200335f3803806200335f8339810160408190526200003b91620002e8565b82828282600090805190602001906200005692919062000175565b5081516200006c90600190602085019062000175565b5060ff81166080524660a05262000082620000d9565b60c0525050600b80546001600160a01b031916339081179091556040519081527f39e7d4b9ba48f55a740a5192809dbc498fa12724c030b37dab126a3f6774c0f3915060200160405180910390a15050506200044e565b60007f8b73c3c69bb8fe3d512ecc4cf759cc79239f7b179b0ffacaa9a75d522b39400f60006040516200010d9190620003aa565b6040805191829003822060208301939093528101919091527fc89efdaa54c0f20c7adf612882df0950f5a951637e0307cdcb4c672f298b8bc660608201524660808201523060a082015260c00160405160208183030381529060405280519060200120905090565b82805462000183906200036d565b90600052602060002090601f016020900481019282620001a75760008555620001f2565b82601f10620001c257805160ff1916838001178555620001f2565b82800160010185558215620001f2579182015b82811115620001f2578251825591602001919060010190620001d5565b506200020092915062000204565b5090565b5b8082111562000200576000815560010162000205565b634e487b7160e01b600052604160045260246000fd5b600082601f8301126200024357600080fd5b81516001600160401b03808211156200026057620002606200021b565b604051601f8301601f19908116603f011681019082821181831017156200028b576200028b6200021b565b81604052838152602092508683858801011115620002a857600080fd5b600091505b83821015620002cc5785820183015181830184015290820190620002ad565b83821115620002de5760008385830101525b9695505050505050565b600080600060608486031215620002fe57600080fd5b83516001600160401b03808211156200031657600080fd5b620003248783880162000231565b945060208601519150808211156200033b57600080fd5b506200034a8682870162000231565b925050604084015160ff811681146200036257600080fd5b809150509250925092565b600181811c908216806200038257607f821691505b60208210811415620003a457634e487b7160e01b600052602260045260246000fd5b50919050565b600080835481600182811c915080831680620003c757607f831692505b6020808410821415620003e857634e487b7160e01b86526022600452602486fd5b818015620003ff5760018114620004115762000440565b60ff1986168952848901965062000440565b60008a81526020902060005b86811015620004385781548b8201529085019083016200041d565b505084890196505b509498975050505050505050565b60805160a05160c051612ee16200047e6000396000610bd201526000610b9d015260006103480152612ee16000f3fe608060405234801561001057600080fd5b506004361061023d5760003560e01c80637d9fce4d1161013b578063d32e81a5116100b8578063e2f273bd1161007c578063e2f273bd146105c8578063e9963916146105db578063f5dab711146105ee578063f851a4401461065b578063fed455871461066e57600080fd5b8063d32e81a51461052a578063d505accf14610533578063d77a1d3a14610546578063dd62ed3e1461054f578063e0c9802f1461057a57600080fd5b8063a4c8b46b116100ff578063a4c8b46b1461047d578063a583024b14610492578063a694fc3a146104b2578063a9059cbb146104c5578063a9320688146104d857600080fd5b80637d9fce4d1461041f5780637ecebe001461042e578063817b1cd21461044e57806395d89b41146104575780639cfdbd5e1461045f57600080fd5b806335322f37116101c95780634e71d92d1161018d5780634e71d92d146103b05780634f64b2be146103b85780635da69cb6146103e35780636b954292146103ec57806370a08231146103ff57600080fd5b806335322f371461037c5780633644e5151461038457806336e9b3441461038c5780634ae99d30146103955780634c33fe941461039d57600080fd5b80631959a002116102105780631959a0021461029f57806323b872dd146102f45780632e17de781461030757806330adf81f1461031c578063313ce5671461034357600080fd5b806301e1d1141461024257806306fdde031461025e578063095ea7b31461027357806318160ddd14610296575b600080fd5b61024b600c5481565b6040519081526020015b60405180910390f35b610266610681565b6040516102559190612391565b6102866102813660046123b9565b61070f565b6040519015158152602001610255565b61024b60025481565b6102d46102ad3660046123e5565b600e6020526000908152604090208054600182015460028301546003909301549192909184565b604080519485526020850193909352918301526060820152608001610255565b610286610302366004612402565b61077c565b61031a610315366004612443565b61085c565b005b61024b7f6e71edae12b1b97f4d1f60370fef10105fa2faae0126114a169c64845d6126c981565b61036a7f000000000000000000000000000000000000000000000000000000000000000081565b60405160ff9091168152602001610255565b61031a610a22565b61024b610b99565b61024b60085481565b61031a610bf4565b61031a6103ab3660046123e5565b610f2d565b61031a610f60565b6103cb6103c6366004612443565b610fca565b6040516001600160a01b039091168152602001610255565b61024b60125481565b61031a6103fa366004612773565b610ff4565b61024b61040d3660046123e5565b60036020526000908152604090205481565b61024b670de0b6b3a764000081565b61024b61043c3660046123e5565b60056020526000908152604090205481565b61024b60115481565b6102666112a8565b61046861271081565b60405163ffffffff9091168152602001610255565b6104856112b5565b6040516102559190612856565b6104a56104a03660046123e5565b61149a565b60405161025591906128d7565b61031a6104c0366004612443565b611544565b6102866104d33660046123b9565b6117c3565b6104eb6104e6366004612443565b611829565b604080516001600160a01b03938416815282516020808301919091528301516001600160801b0316818301529101519091166060820152608001610255565b61024b600f5481565b61031a6105413660046128f9565b6118ba565b61024b60105481565b61024b61055d36600461296a565b600460209081526000928352604080842090915290825290205481565b600d546105a19063ffffffff808216916401000000008104821691600160401b9091041683565b6040805163ffffffff94851681529284166020840152921691810191909152606001610255565b61031a6105d63660046123e5565b611b0b565b61024b6105e93660046129b1565b611b70565b61062f6105fc3660046123e5565b600a6020526000908152604090208054600182015460029092015490916001600160801b0316906001600160a01b031683565b604080519384526001600160801b0390921660208401526001600160a01b031690820152606001610255565b600b546103cb906001600160a01b031681565b61026661067c366004612443565b611d3f565b6000805461068e906129df565b80601f01602080910402602001604051908101604052809291908181526020018280546106ba906129df565b80156107075780601f106106dc57610100808354040283529160200191610707565b820191906000526020600020905b8154815290600101906020018083116106ea57829003601f168201915b505050505081565b3360008181526004602090815260408083206001600160a01b038716808552925280832085905551919290917f8c5be1e5ebec7d5bd14f71427d1e84f3dd0314c0f7b2291e5b200ac8c7c3b9259061076a9086815260200190565b60405180910390a35060015b92915050565b6001600160a01b038316600090815260046020908152604080832033845290915281205460001981146107d8576107b38382612a30565b6001600160a01b03861660009081526004602090815260408083203384529091529020555b6001600160a01b03851660009081526003602052604081208054859290610800908490612a30565b90915550506001600160a01b0380851660008181526003602052604090819020805487019055519091871690600080516020612e8c833981519152906108499087815260200190565b60405180910390a3506001949350505050565b600f54421115610a1657600c54600f546108769042612a30565b6011546108869061271090612a47565b6108909190612a47565b61089a9190612a66565b601060008282546108ab9190612a88565b909155505042600f556108bd33611d6a565b50600c54600090670de0b6b3a76400006108d961271085612a47565b6108e39190612a47565b6108ed9190612a66565b336000908152600e6020526040902054909150811061094c5760405162461bcd60e51b8152602060048201526016602482015275554e5354414b4520414d4f554e5420544f4f2042494760501b60448201526064015b60405180910390fd5b336000908152600e60205260408120805483929061096b908490612a30565b909155505060405163a9059cbb60e01b815233600482015260248101839052309063a9059cbb906044016020604051808303816000875af11580156109b4573d6000803e3d6000fd5b505050506040513d601f19601f820116820180604052508101906109d89190612aa0565b5060408051338152602081018490527f0f499973e7d3e9601430a8fbff3e36e448210cda3fbec16fad26da79f6d0dba4910160405180910390a15050565b6108bd33611d6a565b50565b600f54421115610b8357600c54600f54610a3c9042612a30565b601154610a4c9061271090612a47565b610a569190612a47565b610a609190612a66565b60106000828254610a719190612a88565b909155505042600f55336000908152600e6020526040902054610a9057565b610a9933611d6a565b50600c54336000908152600e6020526040812054909161271091670de0b6b3a764000091610ac691612a47565b610ad09190612a66565b610ada9190612a66565b60405163a9059cbb60e01b815233600482015260248101829052909150309063a9059cbb906044016020604051808303816000875af1158015610b21573d6000803e3d6000fd5b505050506040513d601f19601f82011682018060405250810190610b459190612aa0565b5060408051338152602081018390527f0f499973e7d3e9601430a8fbff3e36e448210cda3fbec16fad26da79f6d0dba491015b60405180910390a150565b336000908152600e6020526040902054610a9057565b60007f00000000000000000000000000000000000000000000000000000000000000004614610bcf57610bca611ff2565b905090565b507f000000000000000000000000000000000000000000000000000000000000000090565b600b546001600160a01b03163314610c0b57600080fd5b60065460ff1615610c1b57600080fd5b6006805460ff19166001179055600980546040805160208084028201810190925282815260009390929091830182828015610c7f57602002820191906000526020600020905b81546001600160a01b03168152600190910190602001808311610c61575b50505050509050610ca9604080516060810182526000808252602082018190529181019190915290565b6000805b8351811015610ea857600a6000858381518110610ccc57610ccc612abd565b6020908102919091018101516001600160a01b0390811683528282019390935260409182016000208251606081018452815480825260018301546001600160801b0316938201849052600290920154909416928401839052875193965092879085908110610d3c57610d3c612abd565b60209081029190910101516040516323b872dd60e01b81526001600160a01b03848116600483015230602483015260448201869052909116906323b872dd906064016020604051808303816000875af1158015610d9d573d6000803e3d6000fd5b505050506040513d601f19601f82011682018060405250810190610dc19190612aa0565b506000878581518110610dd657610dd6612abd565b60200260200101516001600160a01b031663313ce5676040518163ffffffff1660e01b8152600401602060405180830381865afa158015610e1b573d6000803e3d6000fd5b505050506040513d601f19601f82011682018060405250810190610e3f9190612ad3565b610e4a90600a612bd4565b610e5d6001600160801b03841686612a47565b610e6f90670de0b6b3a7640000612a47565b610e799190612a66565b9050610e858187612a88565b9550610e91838261208c565b505050508080610ea090612be3565b915050610cad565b50600d805463ffffffff60401b1916600160401b4263ffffffff90811682029290921792839055610ee792640100000000810483169291900416612bfe565b63ffffffff16600f55600c8190556040514281527f83aaee11563f280eac61ebd060f088ce7577d5e823efa6c78de1cfec8167605d9060200160405180910390a1505050565b600b546001600160a01b03163314610f4457600080fd5b60065460ff1615610f5457600080fd5b806001600160a01b0316ff5b600f54421115610fc157600c54600f54610f7a9042612a30565b601154610f8a9061271090612a47565b610f949190612a47565b610f9e9190612a66565b60106000828254610faf9190612a88565b909155505042600f55610a1f33611d6a565b610a1f33611d6a565b60098181548110610fda57600080fd5b6000918252602090912001546001600160a01b0316905081565b600654610100900460ff161561100957600080fd5b6006805461ff001916610100179055600b80546001600160a01b031916331790558451600d80546020880151604089015163ffffffff908116600160401b0263ffffffff60401b199081169282166401000000000267ffffffffffffffff1990941691909516179190911792909216919091179055835160005b8181101561124257600788828151811061109f5761109f612abd565b602090810291909101810151825460018101845560009384529282902081516110d194919091019291909101906122ab565b50600060405180606001604052808584815181106110f1576110f1612abd565b6020026020010151815260200187848151811061111057611110612abd565b60200260200101516001600160801b0316815260200186848151811061113857611138612abd565b60200260200101516001600160a01b0316815250905080600a600089858151811061116557611165612abd565b6020908102919091018101516001600160a01b03908116835282820193909352604091820160002084518155908401516001820180546fffffffffffffffffffffffffffffffff19166001600160801b03909216919091179055920151600290920180546001600160a01b0319169290911691909117905586516009908890849081106111f4576111f4612abd565b60209081029190910181015182546001810184556000938452919092200180546001600160a01b0319166001600160a01b03909216919091179055508061123a81612be3565b915050611083565b50600954600855600d546040517f489170cfe0f7fcdd8410d20d8a81df8f038624bbcd9814cca42d477e9d1bb46991611297918a91899189918991899163ffffffff6401000000008204811692911690612c98565b60405180910390a150505050505050565b6001805461068e906129df565b60095460609060009067ffffffffffffffff8111156112d6576112d661245c565b6040519080825280602002602001820160405280156112ff578160200160208202803683370190505b50905060008060005b60095481101561149157600a60006009838154811061132957611329612abd565b60009182526020808320909101546001600160a01b039081168452908301939093526040909101902060020154600980549190921694508290811061137057611370612abd565b600091825260209091200154604051636eb1769f60e11b81526001600160a01b0385811660048301523060248301529091169063dd62ed3e90604401602060405180830381865afa1580156113c9573d6000803e3d6000fd5b505050506040513d601f19601f820116820180604052508101906113ed9190612d6d565b9150600a60006009838154811061140657611406612abd565b60009182526020808320909101546001600160a01b03168352820192909252604001902054821061145a57600184828151811061144557611445612abd565b9115156020928302919091019091015261147f565b600084828151811061146e5761146e612abd565b911515602092830291909101909101525b8061148981612be3565b915050611308565b50919392505050565b606060006114a9836000611b70565b60095490915060009067ffffffffffffffff8111156114ca576114ca61245c565b6040519080825280602002602001820160405280156114f3578160200160208202803683370190505b50905060005b60095481101561153c5761150d83826120e6565b82828151811061151f5761151f612abd565b60209081029190910101528061153481612be3565b9150506114f9565b509392505050565b600f5442111561176857600c54600f5461155e9042612a30565b60115461156e9061271090612a47565b6115789190612a47565b6115829190612a66565b601060008282546115939190612a88565b909155505042600f553360008181526003602052604090205430908311156115f75760405162461bcd60e51b81526020600482015260176024820152760aaa68aa440848298829c868a409c9ea8408a9c9eaa8e9604b1b6044820152606401610943565b6001600160a01b03808316600090815260036020526040808220805487900390559183168152908120805485019055600c54670de0b6b3a764000061163e61271087612a47565b6116489190612a47565b6116529190612a66565b6010549091504260006116636121a5565b60408051608081018252868152602080820187815282840187815260608401868152336000908152600e909452948320845181559151600183015551600282015592516003909301929092556011805493945090928a92906116c6908490612a88565b92505081905550856001600160a01b0316876001600160a01b0316600080516020612e8c8339815191528a60405161170091815260200190565b60405180910390a360408051338152602081018a9052908101869052606081018590526080810184905260a081018390527f9dfa08abae6c607453d7ef936fd3d42c4afc359dcfa226a49be696604a2468459060c00160405180910390a15050505050505050565b3360008181526003602052604090205430908311156115f75760405162461bcd60e51b81526020600482015260176024820152760aaa68aa440848298829c868a409c9ea8408a9c9eaa8e9604b1b6044820152606401610943565b336000908152600360205260408120805483919083906117e4908490612a30565b90915550506001600160a01b03831660008181526003602052604090819020805485019055513390600080516020612e8c8339815191529061076a9086815260200190565b6040805160608101825260008082526020820181905291810182905260006009848154811061185a5761185a612abd565b60009182526020808320909101546001600160a01b03908116808452600a835260409384902084516060810186528154815260018201546001600160801b0316948101949094526002015490911692820192909252909590945092505050565b4284101561190a5760405162461bcd60e51b815260206004820152601760248201527f5045524d49545f444541444c494e455f455850495245440000000000000000006044820152606401610943565b6000611914610b99565b6001600160a01b0389811660008181526005602090815260409182902080546001810190915582517f6e71edae12b1b97f4d1f60370fef10105fa2faae0126114a169c64845d6126c98184015280840194909452938c166060840152608083018b905260a083019390935260c08083018a90528151808403909101815260e08301909152805192019190912061190160f01b6101008301526101028201929092526101228101919091526101420160408051601f198184030181528282528051602091820120600080855291840180845281905260ff88169284019290925260608301869052608083018590529092509060019060a0016020604051602081039080840390855afa158015611a2d573d6000803e3d6000fd5b5050604051601f1901519150506001600160a01b03811615801590611a635750886001600160a01b0316816001600160a01b0316145b611aa05760405162461bcd60e51b815260206004820152600e60248201526d24a72b20a624a22fa9a4a3a722a960911b6044820152606401610943565b6001600160a01b0390811660009081526004602090815260408083208b8516808552908352928190208a905551898152919350918a16917f8c5be1e5ebec7d5bd14f71427d1e84f3dd0314c0f7b2291e5b200ac8c7c3b925910160405180910390a350505050505050565b600b546001600160a01b03163314611b2257600080fd5b600b80546001600160a01b0319166001600160a01b0383169081179091556040519081527f39e7d4b9ba48f55a740a5192809dbc498fa12724c030b37dab126a3f6774c0f390602001610b78565b6001600160a01b0382166000908152600e60205260408120600201544211611b9a57506000610776565b6001600160a01b0383166000908152600e6020526040812060020154611bc09042612a30565b6001600160a01b0385166000908152600e602052604081206003015491925090611be86121a5565b611bf29190612a30565b905060008415611c2c576001600160a01b0386166000908152600e6020526040902060010154601054611c259190612a30565b9050611c96565b600c54600f54611c3c9042612a30565b601154611c4c9061271090612a47565b611c569190612a47565b611c609190612a66565b6001600160a01b0387166000908152600e6020526040902060010154601054611c899190612a30565b611c939190612a88565b90505b6000611ca28483612a66565b905080611cb6576000945050505050610776565b6001600160a01b0387166000908152600e60205260408120548290611cde9061271090612a47565b611ce89190612a66565b90506000612710611cf98387612a47565b611d039190612a66565b90506012548610611d1b579550610776945050505050565b601254611d288783612a47565b611d329190612a66565b9650505050505050610776565b60078181548110611d4f57600080fd5b90600052602060002001600091509050805461068e906129df565b600080611d78836001611b70565b905060006009805480602002602001604051908101604052809291908181526020018280548015611dd257602002820191906000526020600020905b81546001600160a01b03168152600190910190602001808311611db4575b505050505090506000815167ffffffffffffffff811115611df557611df561245c565b604051908082528060200260200182016040528015611e1e578160200160208202803683370190505b5090508215611fea576010546001600160a01b0386166000908152600e6020526040902060010155611e4e6121a5565b6001600160a01b0386166000908152600e602052604081206003810192909255426002830155815485929190611e85908490612a30565b9091555050600c54600090670de0b6b3a764000090611ea49086612a47565b611eae9190612a66565b90506000611ebe61271083612a66565b9050611eca3082612249565b60005b8451811015611fa9576000611ee287836120e6565b905080858381518110611ef757611ef7612abd565b602002602001018181525050858281518110611f1557611f15612abd565b602090810291909101015160405163a9059cbb60e01b81526001600160a01b038b81166004830152602482018490529091169063a9059cbb906044016020604051808303816000875af1158015611f70573d6000803e3d6000fd5b505050506040513d601f19601f82011682018060405250810190611f949190612aa0565b50508080611fa190612be3565b915050611ecd565b507fbbfaf902cec9107d8131a7888c2b89c5e5820ff6319b992657e8eaa9a36feced87868686604051611fdf9493929190612d86565b60405180910390a150505b505050919050565b60007f8b73c3c69bb8fe3d512ecc4cf759cc79239f7b179b0ffacaa9a75d522b39400f60006040516120249190612dca565b6040805191829003822060208301939093528101919091527fc89efdaa54c0f20c7adf612882df0950f5a951637e0307cdcb4c672f298b8bc660608201524660808201523060a082015260c00160405160208183030381529060405280519060200120905090565b806002600082825461209e9190612a88565b90915550506001600160a01b038216600081815260036020908152604080832080548601905551848152600080516020612e8c83398151915291015b60405180910390a35050565b60095460009082106121315760405162461bcd60e51b81526020600482015260146024820152731d1bdad95b92590813d5550813d1881093d5539160621b6044820152606401610943565b61271063ffffffff16670de0b6b3a764000084600a60006009878154811061215b5761215b612abd565b60009182526020808320909101546001600160a01b0316835282019290925260400190205461218a9190612a47565b6121949190612a66565b61219e9190612a66565b9392505050565b600d54600090600160401b900463ffffffff16806121c557600091505090565b600d5463ffffffff1660006121da8342612e66565b90508063ffffffff168263ffffffff16116121fa57506127109392505050565b600d5463ffffffff64010000000090910481169082161161221f576000935050505090565b63ffffffff8083169061223790612710908416612a47565b6122419190612a66565b935050505090565b6001600160a01b03821660009081526003602052604081208054839290612271908490612a30565b90915550506002805482900390556040518181526000906001600160a01b03841690600080516020612e8c833981519152906020016120da565b8280546122b7906129df565b90600052602060002090601f0160209004810192826122d9576000855561231f565b82601f106122f257805160ff191683800117855561231f565b8280016001018555821561231f579182015b8281111561231f578251825591602001919060010190612304565b5061232b92915061232f565b5090565b5b8082111561232b5760008155600101612330565b6000815180845260005b8181101561236a5760208185018101518683018201520161234e565b8181111561237c576000602083870101525b50601f01601f19169290920160200192915050565b60208152600061219e6020830184612344565b6001600160a01b0381168114610a1f57600080fd5b600080604083850312156123cc57600080fd5b82356123d7816123a4565b946020939093013593505050565b6000602082840312156123f757600080fd5b813561219e816123a4565b60008060006060848603121561241757600080fd5b8335612422816123a4565b92506020840135612432816123a4565b929592945050506040919091013590565b60006020828403121561245557600080fd5b5035919050565b634e487b7160e01b600052604160045260246000fd5b604051601f8201601f1916810167ffffffffffffffff8111828210171561249b5761249b61245c565b604052919050565b600067ffffffffffffffff8211156124bd576124bd61245c565b5060051b60200190565b6000601f83818401126124d957600080fd5b823560206124ee6124e9836124a3565b612472565b82815260059290921b8501810191818101908784111561250d57600080fd5b8287015b848110156125a457803567ffffffffffffffff808211156125325760008081fd5b818a0191508a603f8301126125475760008081fd5b8582013560408282111561255d5761255d61245c565b61256e828b01601f19168901612472565b92508183528c818386010111156125855760008081fd5b8181850189850137506000908201870152845250918301918301612511565b50979650505050505050565b803563ffffffff811681146125c457600080fd5b919050565b6000606082840312156125db57600080fd5b6040516060810181811067ffffffffffffffff821117156125fe576125fe61245c565b60405290508061260d836125b0565b815261261b602084016125b0565b602082015261262c604084016125b0565b60408201525092915050565b600082601f83011261264957600080fd5b813560206126596124e9836124a3565b82815260059290921b8401810191818101908684111561267857600080fd5b8286015b8481101561269c57803561268f816123a4565b835291830191830161267c565b509695505050505050565b600082601f8301126126b857600080fd5b813560206126c86124e9836124a3565b82815260059290921b840181019181810190868411156126e757600080fd5b8286015b8481101561269c5780356001600160801b038116811461270b5760008081fd5b83529183019183016126eb565b600082601f83011261272957600080fd5b813560206127396124e9836124a3565b82815260059290921b8401810191818101908684111561275857600080fd5b8286015b8481101561269c578035835291830191830161275c565b600080600080600080610100878903121561278d57600080fd5b863567ffffffffffffffff808211156127a557600080fd5b6127b18a838b016124c7565b97506127c08a60208b016125c9565b965060808901359150808211156127d657600080fd5b6127e28a838b01612638565b955060a08901359150808211156127f857600080fd5b6128048a838b016126a7565b945060c089013591508082111561281a57600080fd5b6128268a838b01612638565b935060e089013591508082111561283c57600080fd5b5061284989828a01612718565b9150509295509295509295565b6020808252825182820181905260009190848201906040850190845b81811015612890578351151583529284019291840191600101612872565b50909695505050505050565b600081518084526020808501945080840160005b838110156128cc578151875295820195908201906001016128b0565b509495945050505050565b60208152600061219e602083018461289c565b60ff81168114610a1f57600080fd5b600080600080600080600060e0888a03121561291457600080fd5b873561291f816123a4565b9650602088013561292f816123a4565b95506040880135945060608801359350608088013561294d816128ea565b9699959850939692959460a0840135945060c09093013592915050565b6000806040838503121561297d57600080fd5b8235612988816123a4565b91506020830135612998816123a4565b809150509250929050565b8015158114610a1f57600080fd5b600080604083850312156129c457600080fd5b82356129cf816123a4565b91506020830135612998816129a3565b600181811c908216806129f357607f821691505b60208210811415612a1457634e487b7160e01b600052602260045260246000fd5b50919050565b634e487b7160e01b600052601160045260246000fd5b600082821015612a4257612a42612a1a565b500390565b6000816000190483118215151615612a6157612a61612a1a565b500290565b600082612a8357634e487b7160e01b600052601260045260246000fd5b500490565b60008219821115612a9b57612a9b612a1a565b500190565b600060208284031215612ab257600080fd5b815161219e816129a3565b634e487b7160e01b600052603260045260246000fd5b600060208284031215612ae557600080fd5b815161219e816128ea565b600181815b80851115612b2b578160001904821115612b1157612b11612a1a565b80851615612b1e57918102915b93841c9390800290612af5565b509250929050565b600082612b4257506001610776565b81612b4f57506000610776565b8160018114612b655760028114612b6f57612b8b565b6001915050610776565b60ff841115612b8057612b80612a1a565b50506001821b610776565b5060208310610133831016604e8410600b8410161715612bae575081810a610776565b612bb88383612af0565b8060001904821115612bcc57612bcc612a1a565b029392505050565b600061219e60ff841683612b33565b6000600019821415612bf757612bf7612a1a565b5060010190565b600063ffffffff808316818516808303821115612c1d57612c1d612a1a565b01949350505050565b600081518084526020808501945080840160005b838110156128cc5781516001600160a01b031687529582019590820190600101612c3a565b600081518084526020808501945080840160005b838110156128cc5781516001600160801b031687529582019590820190600101612c73565b60e08082528851908201819052600090610100600582901b8401810191908401906020808d01855b83811015612cee5760ff19888703018552612cdc868351612344565b95509382019390820190600101612cc0565b505085840381870152505050612d04818a612c26565b90508281036040840152612d188189612c5f565b90508281036060840152612d2c8188612c26565b90508281036080840152612d40818761289c565b915050612d5560a083018563ffffffff169052565b63ffffffff831660c083015298975050505050505050565b600060208284031215612d7f57600080fd5b5051919050565b60018060a01b0385168152836020820152608060408201526000612dad6080830185612c26565b8281036060840152612dbf818561289c565b979650505050505050565b600080835481600182811c915080831680612de657607f831692505b6020808410821415612e0657634e487b7160e01b86526022600452602486fd5b818015612e1a5760018114612e2b57612e58565b60ff19861689528489019650612e58565b60008a81526020902060005b86811015612e505781548b820152908501908301612e37565b505084890196505b509498975050505050505050565b600063ffffffff83811690831681811015612e8357612e83612a1a565b03939250505056feddf252ad1be2c89b69c2b068fc378daa952ba7f163c4a11628f55a4df523b3efa26469706673582212202fa2b8ce0e0d54d1e3fce7da4326de3500d24d8f6d798b9f6cc4db1eb482f93d64736f6c634300080a0033",
  "bytecodeSha1": "477951dc6f48248700a4f39ca24fd2ee96d639b6",
  "compiler": {
    "evm_version": "istanbul",
    "optimizer": {
      "enabled": true,
      "runs": 200
    },
    "version": "0.8.10+commit.fc410830"
  },
  "contractName": "BuidlCollective",
  "language": "Solidity",
  "natspec": {
    "kind": "dev",
    "methods": {},
    "version": 1
  },
  "opcodes": "PUSH1 0x80 PUSH1 0x40 MSTORE CALLVALUE DUP1 ISZERO PUSH2 0x10 JUMPI PUSH1 0x0 DUP1 REVERT JUMPDEST POP PUSH1 0x4 CALLDATASIZE LT PUSH2 0x23D JUMPI PUSH1 0x0 CALLDATALOAD PUSH1 0xE0 SHR DUP1 PUSH4 0x7D9FCE4D GT PUSH2 0x13B JUMPI DUP1 PUSH4 0xD32E81A5 GT PUSH2 0xB8 JUMPI DUP1 PUSH4 0xE2F273BD GT PUSH2 0x7C JUMPI DUP1 PUSH4 0xE2F273BD EQ PUSH2 0x5C8 JUMPI DUP1 PUSH4 0xE9963916 EQ PUSH2 0x5DB JUMPI DUP1 PUSH4 0xF5DAB711 EQ PUSH2 0x5EE JUMPI DUP1 PUSH4 0xF851A440 EQ PUSH2 0x65B JUMPI DUP1 PUSH4 0xFED45587 EQ PUSH2 0x66E JUMPI PUSH1 0x0 DUP1 REVERT JUMPDEST DUP1 PUSH4 0xD32E81A5 EQ PUSH2 0x52A JUMPI DUP1 PUSH4 0xD505ACCF EQ PUSH2 0x533 JUMPI DUP1 PUSH4 0xD77A1D3A EQ PUSH2 0x546 JUMPI DUP1 PUSH4 0xDD62ED3E EQ PUSH2 0x54F JUMPI DUP1 PUSH4 0xE0C9802F EQ PUSH2 0x57A JUMPI PUSH1 0x0 DUP1 REVERT JUMPDEST DUP1 PUSH4 0xA4C8B46B GT PUSH2 0xFF JUMPI DUP1 PUSH4 0xA4C8B46B EQ PUSH2 0x47D JUMPI DUP1 PUSH4 0xA583024B EQ PUSH2 0x492 JUMPI DUP1 PUSH4 0xA694FC3A EQ PUSH2 0x4B2 JUMPI DUP1 PUSH4 0xA9059CBB EQ PUSH2 0x4C5 JUMPI DUP1 PUSH4 0xA9320688 EQ PUSH2 0x4D8 JUMPI PUSH1 0x0 DUP1 REVERT JUMPDEST DUP1 PUSH4 0x7D9FCE4D EQ PUSH2 0x41F JUMPI DUP1 PUSH4 0x7ECEBE00 EQ PUSH2 0x42E JUMPI DUP1 PUSH4 0x817B1CD2 EQ PUSH2 0x44E JUMPI DUP1 PUSH4 0x95D89B41 EQ PUSH2 0x457 JUMPI DUP1 PUSH4 0x9CFDBD5E EQ PUSH2 0x45F JUMPI PUSH1 0x0 DUP1 REVERT JUMPDEST DUP1 PUSH4 0x35322F37 GT PUSH2 0x1C9 JUMPI DUP1 PUSH4 0x4E71D92D GT PUSH2 0x18D JUMPI DUP1 PUSH4 0x4E71D92D EQ PUSH2 0x3B0 JUMPI DUP1 PUSH4 0x4F64B2BE EQ PUSH2 0x3B8 JUMPI DUP1 PUSH4 0x5DA69CB6 EQ PUSH2 0x3E3 JUMPI DUP1 PUSH4 0x6B954292 EQ PUSH2 0x3EC JUMPI DUP1 PUSH4 0x70A08231 EQ PUSH2 0x3FF JUMPI PUSH1 0x0 DUP1 REVERT JUMPDEST DUP1 PUSH4 0x35322F37 EQ PUSH2 0x37C JUMPI DUP1 PUSH4 0x3644E515 EQ PUSH2 0x384 JUMPI DUP1 PUSH4 0x36E9B344 EQ PUSH2 0x38C JUMPI DUP1 PUSH4 0x4AE99D30 EQ PUSH2 0x395 JUMPI DUP1 PUSH4 0x4C33FE94 EQ PUSH2 0x39D JUMPI PUSH1 0x0 DUP1 REVERT JUMPDEST DUP1 PUSH4 0x1959A002 GT PUSH2 0x210 JUMPI DUP1 PUSH4 0x1959A002 EQ PUSH2 0x29F JUMPI DUP1 PUSH4 0x23B872DD EQ PUSH2 0x2F4 JUMPI DUP1 PUSH4 0x2E17DE78 EQ PUSH2 0x307 JUMPI DUP1 PUSH4 0x30ADF81F EQ PUSH2 0x31C JUMPI DUP1 PUSH4 0x313CE567 EQ PUSH2 0x343 JUMPI PUSH1 0x0 DUP1 REVERT JUMPDEST DUP1 PUSH4 0x1E1D114 EQ PUSH2 0x242 JUMPI DUP1 PUSH4 0x6FDDE03 EQ PUSH2 0x25E JUMPI DUP1 PUSH4 0x95EA7B3 EQ PUSH2 0x273 JUMPI DUP1 PUSH4 0x18160DDD EQ PUSH2 0x296 JUMPI JUMPDEST PUSH1 0x0 DUP1 REVERT JUMPDEST PUSH2 0x24B PUSH1 0xC SLOAD DUP2 JUMP JUMPDEST PUSH1 0x40 MLOAD SWAP1 DUP2 MSTORE PUSH1 0x20 ADD JUMPDEST PUSH1 0x40 MLOAD DUP1 SWAP2 SUB SWAP1 RETURN JUMPDEST PUSH2 0x266 PUSH2 0x681 JUMP JUMPDEST PUSH1 0x40 MLOAD PUSH2 0x255 SWAP2 SWAP1 PUSH2 0x2391 JUMP JUMPDEST PUSH2 0x286 PUSH2 0x281 CALLDATASIZE PUSH1 0x4 PUSH2 0x23B9 JUMP JUMPDEST PUSH2 0x70F JUMP JUMPDEST PUSH1 0x40 MLOAD SWAP1 ISZERO ISZERO DUP2 MSTORE PUSH1 0x20 ADD PUSH2 0x255 JUMP JUMPDEST PUSH2 0x24B PUSH1 0x2 SLOAD DUP2 JUMP JUMPDEST PUSH2 0x2D4 PUSH2 0x2AD CALLDATASIZE PUSH1 0x4 PUSH2 0x23E5 JUMP JUMPDEST PUSH1 0xE PUSH1 0x20 MSTORE PUSH1 0x0 SWAP1 DUP2 MSTORE PUSH1 0x40 SWAP1 KECCAK256 DUP1 SLOAD PUSH1 0x1 DUP3 ADD SLOAD PUSH1 0x2 DUP4 ADD SLOAD PUSH1 0x3 SWAP1 SWAP4 ADD SLOAD SWAP2 SWAP3 SWAP1 SWAP2 DUP5 JUMP JUMPDEST PUSH1 0x40 DUP1 MLOAD SWAP5 DUP6 MSTORE PUSH1 0x20 DUP6 ADD SWAP4 SWAP1 SWAP4 MSTORE SWAP2 DUP4 ADD MSTORE PUSH1 0x60 DUP3 ADD MSTORE PUSH1 0x80 ADD PUSH2 0x255 JUMP JUMPDEST PUSH2 0x286 PUSH2 0x302 CALLDATASIZE PUSH1 0x4 PUSH2 0x2402 JUMP JUMPDEST PUSH2 0x77C JUMP JUMPDEST PUSH2 0x31A PUSH2 0x315 CALLDATASIZE PUSH1 0x4 PUSH2 0x2443 JUMP JUMPDEST PUSH2 0x85C JUMP JUMPDEST STOP JUMPDEST PUSH2 0x24B PUSH32 0x6E71EDAE12B1B97F4D1F60370FEF10105FA2FAAE0126114A169C64845D6126C9 DUP2 JUMP JUMPDEST PUSH2 0x36A PUSH32 0x0 DUP2 JUMP JUMPDEST PUSH1 0x40 MLOAD PUSH1 0xFF SWAP1 SWAP2 AND DUP2 MSTORE PUSH1 0x20 ADD PUSH2 0x255 JUMP JUMPDEST PUSH2 0x31A PUSH2 0xA22 JUMP JUMPDEST PUSH2 0x24B PUSH2 0xB99 JUMP JUMPDEST PUSH2 0x24B PUSH1 0x8 SLOAD DUP2 JUMP JUMPDEST PUSH2 0x31A PUSH2 0xBF4 JUMP JUMPDEST PUSH2 0x31A PUSH2 0x3AB CALLDATASIZE PUSH1 0x4 PUSH2 0x23E5 JUMP JUMPDEST PUSH2 0xF2D JUMP JUMPDEST PUSH2 0x31A PUSH2 0xF60 JUMP JUMPDEST PUSH2 0x3CB PUSH2 0x3C6 CALLDATASIZE PUSH1 0x4 PUSH2 0x2443 JUMP JUMPDEST PUSH2 0xFCA JUMP JUMPDEST PUSH1 0x40 MLOAD PUSH1 0x1 PUSH1 0x1 PUSH1 0xA0 SHL SUB SWAP1 SWAP2 AND DUP2 MSTORE PUSH1 0x20 ADD PUSH2 0x255 JUMP JUMPDEST PUSH2 0x24B PUSH1 0x12 SLOAD DUP2 JUMP JUMPDEST PUSH2 0x31A PUSH2 0x3FA CALLDATASIZE PUSH1 0x4 PUSH2 0x2773 JUMP JUMPDEST PUSH2 0xFF4 JUMP JUMPDEST PUSH2 0x24B PUSH2 0x40D CALLDATASIZE PUSH1 0x4 PUSH2 0x23E5 JUMP JUMPDEST PUSH1 0x3 PUSH1 0x20 MSTORE PUSH1 0x0 SWAP1 DUP2 MSTORE PUSH1 0x40 SWAP1 KECCAK256 SLOAD DUP2 JUMP JUMPDEST PUSH2 0x24B PUSH8 0xDE0B6B3A7640000 DUP2 JUMP JUMPDEST PUSH2 0x24B PUSH2 0x43C CALLDATASIZE PUSH1 0x4 PUSH2 0x23E5 JUMP JUMPDEST PUSH1 0x5 PUSH1 0x20 MSTORE PUSH1 0x0 SWAP1 DUP2 MSTORE PUSH1 0x40 SWAP1 KECCAK256 SLOAD DUP2 JUMP JUMPDEST PUSH2 0x24B PUSH1 0x11 SLOAD DUP2 JUMP JUMPDEST PUSH2 0x266 PUSH2 0x12A8 JUMP JUMPDEST PUSH2 0x468 PUSH2 0x2710 DUP2 JUMP JUMPDEST PUSH1 0x40 MLOAD PUSH4 0xFFFFFFFF SWAP1 SWAP2 AND DUP2 MSTORE PUSH1 0x20 ADD PUSH2 0x255 JUMP JUMPDEST PUSH2 0x485 PUSH2 0x12B5 JUMP JUMPDEST PUSH1 0x40 MLOAD PUSH2 0x255 SWAP2 SWAP1 PUSH2 0x2856 JUMP JUMPDEST PUSH2 0x4A5 PUSH2 0x4A0 CALLDATASIZE PUSH1 0x4 PUSH2 0x23E5 JUMP JUMPDEST PUSH2 0x149A JUMP JUMPDEST PUSH1 0x40 MLOAD PUSH2 0x255 SWAP2 SWAP1 PUSH2 0x28D7 JUMP JUMPDEST PUSH2 0x31A PUSH2 0x4C0 CALLDATASIZE PUSH1 0x4 PUSH2 0x2443 JUMP JUMPDEST PUSH2 0x1544 JUMP JUMPDEST PUSH2 0x286 PUSH2 0x4D3 CALLDATASIZE PUSH1 0x4 PUSH2 0x23B9 JUMP JUMPDEST PUSH2 0x17C3 JUMP JUMPDEST PUSH2 0x4EB PUSH2 0x4E6 CALLDATASIZE PUSH1 0x4 PUSH2 0x2443 JUMP JUMPDEST PUSH2 0x1829 JUMP JUMPDEST PUSH1 0x40 DUP1 MLOAD PUSH1 0x1 PUSH1 0x1 PUSH1 0xA0 SHL SUB SWAP4 DUP5 AND DUP2 MSTORE DUP3 MLOAD PUSH1 0x20 DUP1 DUP4 ADD SWAP2 SWAP1 SWAP2 MSTORE DUP4 ADD MLOAD PUSH1 0x1 PUSH1 0x1 PUSH1 0x80 SHL SUB AND DUP2 DUP4 ADD MSTORE SWAP2 ADD MLOAD SWAP1 SWAP2 AND PUSH1 0x60 DUP3 ADD MSTORE PUSH1 0x80 ADD PUSH2 0x255 JUMP JUMPDEST PUSH2 0x24B PUSH1 0xF SLOAD DUP2 JUMP JUMPDEST PUSH2 0x31A PUSH2 0x541 CALLDATASIZE PUSH1 0x4 PUSH2 0x28F9 JUMP JUMPDEST PUSH2 0x18BA JUMP JUMPDEST PUSH2 0x24B PUSH1 0x10 SLOAD DUP2 JUMP JUMPDEST PUSH2 0x24B PUSH2 0x55D CALLDATASIZE PUSH1 0x4 PUSH2 0x296A JUMP JUMPDEST PUSH1 0x4 PUSH1 0x20 SWAP1 DUP2 MSTORE PUSH1 0x0 SWAP3 DUP4 MSTORE PUSH1 0x40 DUP1 DUP5 KECCAK256 SWAP1 SWAP2 MSTORE SWAP1 DUP3 MSTORE SWAP1 KECCAK256 SLOAD DUP2 JUMP JUMPDEST PUSH1 0xD SLOAD PUSH2 0x5A1 SWAP1 PUSH4 0xFFFFFFFF DUP1 DUP3 AND SWAP2 PUSH5 0x100000000 DUP2 DIV DUP3 AND SWAP2 PUSH1 0x1 PUSH1 0x40 SHL SWAP1 SWAP2 DIV AND DUP4 JUMP JUMPDEST PUSH1 0x40 DUP1 MLOAD PUSH4 0xFFFFFFFF SWAP5 DUP6 AND DUP2 MSTORE SWAP3 DUP5 AND PUSH1 0x20 DUP5 ADD MSTORE SWAP3 AND SWAP2 DUP2 ADD SWAP2 SWAP1 SWAP2 MSTORE PUSH1 0x60 ADD PUSH2 0x255 JUMP JUMPDEST PUSH2 0x31A PUSH2 0x5D6 CALLDATASIZE PUSH1 0x4 PUSH2 0x23E5 JUMP JUMPDEST PUSH2 0x1B0B JUMP JUMPDEST PUSH2 0x24B PUSH2 0x5E9 CALLDATASIZE PUSH1 0x4 PUSH2 0x29B1 JUMP JUMPDEST PUSH2 0x1B70 JUMP JUMPDEST PUSH2 0x62F PUSH2 0x5FC CALLDATASIZE PUSH1 0x4 PUSH2 0x23E5 JUMP JUMPDEST PUSH1 0xA PUSH1 0x20 MSTORE PUSH1 0x0 SWAP1 DUP2 MSTORE PUSH1 0x40 SWAP1 KECCAK256 DUP1 SLOAD PUSH1 0x1 DUP3 ADD SLOAD PUSH1 0x2 SWAP1 SWAP3 ADD SLOAD SWAP1 SWAP2 PUSH1 0x1 PUSH1 0x1 PUSH1 0x80 SHL SUB AND SWAP1 PUSH1 0x1 PUSH1 0x1 PUSH1 0xA0 SHL SUB AND DUP4 JUMP JUMPDEST PUSH1 0x40 DUP1 MLOAD SWAP4 DUP5 MSTORE PUSH1 0x1 PUSH1 0x1 PUSH1 0x80 SHL SUB SWAP1 SWAP3 AND PUSH1 0x20 DUP5 ADD MSTORE PUSH1 0x1 PUSH1 0x1 PUSH1 0xA0 SHL SUB AND SWAP1 DUP3 ADD MSTORE PUSH1 0x60 ADD PUSH2 0x255 JUMP JUMPDEST PUSH1 0xB SLOAD PUSH2 0x3CB SWAP1 PUSH1 0x1 PUSH1 0x1 PUSH1 0xA0 SHL SUB AND DUP2 JUMP JUMPDEST PUSH2 0x266 PUSH2 0x67C CALLDATASIZE PUSH1 0x4 PUSH2 0x2443 JUMP JUMPDEST PUSH2 0x1D3F JUMP JUMPDEST PUSH1 0x0 DUP1 SLOAD PUSH2 0x68E SWAP1 PUSH2 0x29DF JUMP JUMPDEST DUP1 PUSH1 0x1F ADD PUSH1 0x20 DUP1 SWAP2 DIV MUL PUSH1 0x20 ADD PUSH1 0x40 MLOAD SWAP1 DUP2 ADD PUSH1 0x40 MSTORE DUP1 SWAP3 SWAP2 SWAP1 DUP2 DUP2 MSTORE PUSH1 0x20 ADD DUP3 DUP1 SLOAD PUSH2 0x6BA SWAP1 PUSH2 0x29DF JUMP JUMPDEST DUP1 ISZERO PUSH2 0x707 JUMPI DUP1 PUSH1 0x1F LT PUSH2 0x6DC JUMPI PUSH2 0x100 DUP1 DUP4 SLOAD DIV MUL DUP4 MSTORE SWAP2 PUSH1 0x20 ADD SWAP2 PUSH2 0x707 JUMP JUMPDEST DUP3 ADD SWAP2 SWAP1 PUSH1 0x0 MSTORE PUSH1 0x20 PUSH1 0x0 KECCAK256 SWAP1 JUMPDEST DUP2 SLOAD DUP2 MSTORE SWAP1 PUSH1 0x1 ADD SWAP1 PUSH1 0x20 ADD DUP1 DUP4 GT PUSH2 0x6EA JUMPI DUP3 SWAP1 SUB PUSH1 0x1F AND DUP3 ADD SWAP2 JUMPDEST POP POP POP POP POP DUP2 JUMP JUMPDEST CALLER PUSH1 0x0 DUP2 DUP2 MSTORE PUSH1 0x4 PUSH1 0x20 SWAP1 DUP2 MSTORE PUSH1 0x40 DUP1 DUP4 KECCAK256 PUSH1 0x1 PUSH1 0x1 PUSH1 0xA0 SHL SUB DUP8 AND DUP1 DUP6 MSTORE SWAP3 MSTORE DUP1 DUP4 KECCAK256 DUP6 SWAP1 SSTORE MLOAD SWAP2 SWAP3 SWAP1 SWAP2 PUSH32 0x8C5BE1E5EBEC7D5BD14F71427D1E84F3DD0314C0F7B2291E5B200AC8C7C3B925 SWAP1 PUSH2 0x76A SWAP1 DUP7 DUP2 MSTORE PUSH1 0x20 ADD SWAP1 JUMP JUMPDEST PUSH1 0x40 MLOAD DUP1 SWAP2 SUB SWAP1 LOG3 POP PUSH1 0x1 JUMPDEST SWAP3 SWAP2 POP POP JUMP JUMPDEST PUSH1 0x1 PUSH1 0x1 PUSH1 0xA0 SHL SUB DUP4 AND PUSH1 0x0 SWAP1 DUP2 MSTORE PUSH1 0x4 PUSH1 0x20 SWAP1 DUP2 MSTORE PUSH1 0x40 DUP1 DUP4 KECCAK256 CALLER DUP5 MSTORE SWAP1 SWAP2 MSTORE DUP2 KECCAK256 SLOAD PUSH1 0x0 NOT DUP2 EQ PUSH2 0x7D8 JUMPI PUSH2 0x7B3 DUP4 DUP3 PUSH2 0x2A30 JUMP JUMPDEST PUSH1 0x1 PUSH1 0x1 PUSH1 0xA0 SHL SUB DUP7 AND PUSH1 0x0 SWAP1 DUP2 MSTORE PUSH1 0x4 PUSH1 0x20 SWAP1 DUP2 MSTORE PUSH1 0x40 DUP1 DUP4 KECCAK256 CALLER DUP5 MSTORE SWAP1 SWAP2 MSTORE SWAP1 KECCAK256 SSTORE JUMPDEST PUSH1 0x1 PUSH1 0x1 PUSH1 0xA0 SHL SUB DUP6 AND PUSH1 0x0 SWAP1 DUP2 MSTORE PUSH1 0x3 PUSH1 0x20 MSTORE PUSH1 0x40 DUP2 KECCAK256 DUP1 SLOAD DUP6 SWAP3 SWAP1 PUSH2 0x800 SWAP1 DUP5 SWAP1 PUSH2 0x2A30 JUMP JUMPDEST SWAP1 SWAP2 SSTORE POP POP PUSH1 0x1 PUSH1 0x1 PUSH1 0xA0 SHL SUB DUP1 DUP6 AND PUSH1 0x0 DUP2 DUP2 MSTORE PUSH1 0x3 PUSH1 0x20 MSTORE PUSH1 0x40 SWAP1 DUP2 SWAP1 KECCAK256 DUP1 SLOAD DUP8 ADD SWAP1 SSTORE MLOAD SWAP1 SWAP2 DUP8 AND SWAP1 PUSH1 0x0 DUP1 MLOAD PUSH1 0x20 PUSH2 0x2E8C DUP4 CODECOPY DUP2 MLOAD SWAP2 MSTORE SWAP1 PUSH2 0x849 SWAP1 DUP8 DUP2 MSTORE PUSH1 0x20 ADD SWAP1 JUMP JUMPDEST PUSH1 0x40 MLOAD DUP1 SWAP2 SUB SWAP1 LOG3 POP PUSH1 0x1 SWAP5 SWAP4 POP POP POP POP JUMP JUMPDEST PUSH1 0xF SLOAD TIMESTAMP GT ISZERO PUSH2 0xA16 JUMPI PUSH1 0xC SLOAD PUSH1 0xF SLOAD PUSH2 0x876 SWAP1 TIMESTAMP PUSH2 0x2A30 JUMP JUMPDEST PUSH1 0x11 SLOAD PUSH2 0x886 SWAP1 PUSH2 0x2710 SWAP1 PUSH2 0x2A47 JUMP JUMPDEST PUSH2 0x890 SWAP2 SWAP1 PUSH2 0x2A47 JUMP JUMPDEST PUSH2 0x89A SWAP2 SWAP1 PUSH2 0x2A66 JUMP JUMPDEST PUSH1 0x10 PUSH1 0x0 DUP3 DUP3 SLOAD PUSH2 0x8AB SWAP2 SWAP1 PUSH2 0x2A88 JUMP JUMPDEST SWAP1 SWAP2 SSTORE POP POP TIMESTAMP PUSH1 0xF SSTORE PUSH2 0x8BD CALLER PUSH2 0x1D6A JUMP JUMPDEST POP PUSH1 0xC SLOAD PUSH1 0x0 SWAP1 PUSH8 0xDE0B6B3A7640000 PUSH2 0x8D9 PUSH2 0x2710 DUP6 PUSH2 0x2A47 JUMP JUMPDEST PUSH2 0x8E3 SWAP2 SWAP1 PUSH2 0x2A47 JUMP JUMPDEST PUSH2 0x8ED SWAP2 SWAP1 PUSH2 0x2A66 JUMP JUMPDEST CALLER PUSH1 0x0 SWAP1 DUP2 MSTORE PUSH1 0xE PUSH1 0x20 MSTORE PUSH1 0x40 SWAP1 KECCAK256 SLOAD SWAP1 SWAP2 POP DUP2 LT PUSH2 0x94C JUMPI PUSH1 0x40 MLOAD PUSH3 0x461BCD PUSH1 0xE5 SHL DUP2 MSTORE PUSH1 0x20 PUSH1 0x4 DUP3 ADD MSTORE PUSH1 0x16 PUSH1 0x24 DUP3 ADD MSTORE PUSH22 0x554E5354414B4520414D4F554E5420544F4F20424947 PUSH1 0x50 SHL PUSH1 0x44 DUP3 ADD MSTORE PUSH1 0x64 ADD JUMPDEST PUSH1 0x40 MLOAD DUP1 SWAP2 SUB SWAP1 REVERT JUMPDEST CALLER PUSH1 0x0 SWAP1 DUP2 MSTORE PUSH1 0xE PUSH1 0x20 MSTORE PUSH1 0x40 DUP2 KECCAK256 DUP1 SLOAD DUP4 SWAP3 SWAP1 PUSH2 0x96B SWAP1 DUP5 SWAP1 PUSH2 0x2A30 JUMP JUMPDEST SWAP1 SWAP2 SSTORE POP POP PUSH1 0x40 MLOAD PUSH4 0xA9059CBB PUSH1 0xE0 SHL DUP2 MSTORE CALLER PUSH1 0x4 DUP3 ADD MSTORE PUSH1 0x24 DUP2 ADD DUP4 SWAP1 MSTORE ADDRESS SWAP1 PUSH4 0xA9059CBB SWAP1 PUSH1 0x44 ADD PUSH1 0x20 PUSH1 0x40 MLOAD DUP1 DUP4 SUB DUP2 PUSH1 0x0 DUP8 GAS CALL ISZERO DUP1 ISZERO PUSH2 0x9B4 JUMPI RETURNDATASIZE PUSH1 0x0 DUP1 RETURNDATACOPY RETURNDATASIZE PUSH1 0x0 REVERT JUMPDEST POP POP POP POP PUSH1 0x40 MLOAD RETURNDATASIZE PUSH1 0x1F NOT PUSH1 0x1F DUP3 ADD AND DUP3 ADD DUP1 PUSH1 0x40 MSTORE POP DUP2 ADD SWAP1 PUSH2 0x9D8 SWAP2 SWAP1 PUSH2 0x2AA0 JUMP JUMPDEST POP PUSH1 0x40 DUP1 MLOAD CALLER DUP2 MSTORE PUSH1 0x20 DUP2 ADD DUP5 SWAP1 MSTORE PUSH32 0xF499973E7D3E9601430A8FBFF3E36E448210CDA3FBEC16FAD26DA79F6D0DBA4 SWAP2 ADD PUSH1 0x40 MLOAD DUP1 SWAP2 SUB SWAP1 LOG1 POP POP JUMP JUMPDEST PUSH2 0x8BD CALLER PUSH2 0x1D6A JUMP JUMPDEST POP JUMP JUMPDEST PUSH1 0xF SLOAD TIMESTAMP GT ISZERO PUSH2 0xB83 JUMPI PUSH1 0xC SLOAD PUSH1 0xF SLOAD PUSH2 0xA3C SWAP1 TIMESTAMP PUSH2 0x2A30 JUMP JUMPDEST PUSH1 0x11 SLOAD PUSH2 0xA4C SWAP1 PUSH2 0x2710 SWAP1 PUSH2 0x2A47 JUMP JUMPDEST PUSH2 0xA56 SWAP2 SWAP1 PUSH2 0x2A47 JUMP JUMPDEST PUSH2 0xA60 SWAP2 SWAP1 PUSH2 0x2A66 JUMP JUMPDEST PUSH1 0x10 PUSH1 0x0 DUP3 DUP3 SLOAD PUSH2 0xA71 SWAP2 SWAP1 PUSH2 0x2A88 JUMP JUMPDEST SWAP1 SWAP2 SSTORE POP POP TIMESTAMP PUSH1 0xF SSTORE CALLER PUSH1 0x0 SWAP1 DUP2 MSTORE PUSH1 0xE PUSH1 0x20 MSTORE PUSH1 0x40 SWAP1 KECCAK256 SLOAD PUSH2 0xA90 JUMPI JUMP JUMPDEST PUSH2 0xA99 CALLER PUSH2 0x1D6A JUMP JUMPDEST POP PUSH1 0xC SLOAD CALLER PUSH1 0x0 SWAP1 DUP2 MSTORE PUSH1 0xE PUSH1 0x20 MSTORE PUSH1 0x40 DUP2 KECCAK256 SLOAD SWAP1 SWAP2 PUSH2 0x2710 SWAP2 PUSH8 0xDE0B6B3A7640000 SWAP2 PUSH2 0xAC6 SWAP2 PUSH2 0x2A47 JUMP JUMPDEST PUSH2 0xAD0 SWAP2 SWAP1 PUSH2 0x2A66 JUMP JUMPDEST PUSH2 0xADA SWAP2 SWAP1 PUSH2 0x2A66 JUMP JUMPDEST PUSH1 0x40 MLOAD PUSH4 0xA9059CBB PUSH1 0xE0 SHL DUP2 MSTORE CALLER PUSH1 0x4 DUP3 ADD MSTORE PUSH1 0x24 DUP2 ADD DUP3 SWAP1 MSTORE SWAP1 SWAP2 POP ADDRESS SWAP1 PUSH4 0xA9059CBB SWAP1 PUSH1 0x44 ADD PUSH1 0x20 PUSH1 0x40 MLOAD DUP1 DUP4 SUB DUP2 PUSH1 0x0 DUP8 GAS CALL ISZERO DUP1 ISZERO PUSH2 0xB21 JUMPI RETURNDATASIZE PUSH1 0x0 DUP1 RETURNDATACOPY RETURNDATASIZE PUSH1 0x0 REVERT JUMPDEST POP POP POP POP PUSH1 0x40 MLOAD RETURNDATASIZE PUSH1 0x1F NOT PUSH1 0x1F DUP3 ADD AND DUP3 ADD DUP1 PUSH1 0x40 MSTORE POP DUP2 ADD SWAP1 PUSH2 0xB45 SWAP2 SWAP1 PUSH2 0x2AA0 JUMP JUMPDEST POP PUSH1 0x40 DUP1 MLOAD CALLER DUP2 MSTORE PUSH1 0x20 DUP2 ADD DUP4 SWAP1 MSTORE PUSH32 0xF499973E7D3E9601430A8FBFF3E36E448210CDA3FBEC16FAD26DA79F6D0DBA4 SWAP2 ADD JUMPDEST PUSH1 0x40 MLOAD DUP1 SWAP2 SUB SWAP1 LOG1 POP JUMP JUMPDEST CALLER PUSH1 0x0 SWAP1 DUP2 MSTORE PUSH1 0xE PUSH1 0x20 MSTORE PUSH1 0x40 SWAP1 KECCAK256 SLOAD PUSH2 0xA90 JUMPI JUMP JUMPDEST PUSH1 0x0 PUSH32 0x0 CHAINID EQ PUSH2 0xBCF JUMPI PUSH2 0xBCA PUSH2 0x1FF2 JUMP JUMPDEST SWAP1 POP SWAP1 JUMP JUMPDEST POP PUSH32 0x0 SWAP1 JUMP JUMPDEST PUSH1 0xB SLOAD PUSH1 0x1 PUSH1 0x1 PUSH1 0xA0 SHL SUB AND CALLER EQ PUSH2 0xC0B JUMPI PUSH1 0x0 DUP1 REVERT JUMPDEST PUSH1 0x6 SLOAD PUSH1 0xFF AND ISZERO PUSH2 0xC1B JUMPI PUSH1 0x0 DUP1 REVERT JUMPDEST PUSH1 0x6 DUP1 SLOAD PUSH1 0xFF NOT AND PUSH1 0x1 OR SWAP1 SSTORE PUSH1 0x9 DUP1 SLOAD PUSH1 0x40 DUP1 MLOAD PUSH1 0x20 DUP1 DUP5 MUL DUP3 ADD DUP2 ADD SWAP1 SWAP3 MSTORE DUP3 DUP2 MSTORE PUSH1 0x0 SWAP4 SWAP1 SWAP3 SWAP1 SWAP2 DUP4 ADD DUP3 DUP3 DUP1 ISZERO PUSH2 0xC7F JUMPI PUSH1 0x20 MUL DUP3 ADD SWAP2 SWAP1 PUSH1 0x0 MSTORE PUSH1 0x20 PUSH1 0x0 KECCAK256 SWAP1 JUMPDEST DUP2 SLOAD PUSH1 0x1 PUSH1 0x1 PUSH1 0xA0 SHL SUB AND DUP2 MSTORE PUSH1 0x1 SWAP1 SWAP2 ADD SWAP1 PUSH1 0x20 ADD DUP1 DUP4 GT PUSH2 0xC61 JUMPI JUMPDEST POP POP POP POP POP SWAP1 POP PUSH2 0xCA9 PUSH1 0x40 DUP1 MLOAD PUSH1 0x60 DUP2 ADD DUP3 MSTORE PUSH1 0x0 DUP1 DUP3 MSTORE PUSH1 0x20 DUP3 ADD DUP2 SWAP1 MSTORE SWAP2 DUP2 ADD SWAP2 SWAP1 SWAP2 MSTORE SWAP1 JUMP JUMPDEST PUSH1 0x0 DUP1 JUMPDEST DUP4 MLOAD DUP2 LT ISZERO PUSH2 0xEA8 JUMPI PUSH1 0xA PUSH1 0x0 DUP6 DUP4 DUP2 MLOAD DUP2 LT PUSH2 0xCCC JUMPI PUSH2 0xCCC PUSH2 0x2ABD JUMP JUMPDEST PUSH1 0x20 SWAP1 DUP2 MUL SWAP2 SWAP1 SWAP2 ADD DUP2 ADD MLOAD PUSH1 0x1 PUSH1 0x1 PUSH1 0xA0 SHL SUB SWAP1 DUP2 AND DUP4 MSTORE DUP3 DUP3 ADD SWAP4 SWAP1 SWAP4 MSTORE PUSH1 0x40 SWAP2 DUP3 ADD PUSH1 0x0 KECCAK256 DUP3 MLOAD PUSH1 0x60 DUP2 ADD DUP5 MSTORE DUP2 SLOAD DUP1 DUP3 MSTORE PUSH1 0x1 DUP4 ADD SLOAD PUSH1 0x1 PUSH1 0x1 PUSH1 0x80 SHL SUB AND SWAP4 DUP3 ADD DUP5 SWAP1 MSTORE PUSH1 0x2 SWAP1 SWAP3 ADD SLOAD SWAP1 SWAP5 AND SWAP3 DUP5 ADD DUP4 SWAP1 MSTORE DUP8 MLOAD SWAP4 SWAP7 POP SWAP3 DUP8 SWAP1 DUP6 SWAP1 DUP2 LT PUSH2 0xD3C JUMPI PUSH2 0xD3C PUSH2 0x2ABD JUMP JUMPDEST PUSH1 0x20 SWAP1 DUP2 MUL SWAP2 SWAP1 SWAP2 ADD ADD MLOAD PUSH1 0x40 MLOAD PUSH4 0x23B872DD PUSH1 0xE0 SHL DUP2 MSTORE PUSH1 0x1 PUSH1 0x1 PUSH1 0xA0 SHL SUB DUP5 DUP2 AND PUSH1 0x4 DUP4 ADD MSTORE ADDRESS PUSH1 0x24 DUP4 ADD MSTORE PUSH1 0x44 DUP3 ADD DUP7 SWAP1 MSTORE SWAP1 SWAP2 AND SWAP1 PUSH4 0x23B872DD SWAP1 PUSH1 0x64 ADD PUSH1 0x20 PUSH1 0x40 MLOAD DUP1 DUP4 SUB DUP2 PUSH1 0x0 DUP8 GAS CALL ISZERO DUP1 ISZERO PUSH2 0xD9D JUMPI RETURNDATASIZE PUSH1 0x0 DUP1 RETURNDATACOPY RETURNDATASIZE PUSH1 0x0 REVERT JUMPDEST POP POP POP POP PUSH1 0x40 MLOAD RETURNDATASIZE PUSH1 0x1F NOT PUSH1 0x1F DUP3 ADD AND DUP3 ADD DUP1 PUSH1 0x40 MSTORE POP DUP2 ADD SWAP1 PUSH2 0xDC1 SWAP2 SWAP1 PUSH2 0x2AA0 JUMP JUMPDEST POP PUSH1 0x0 DUP8 DUP6 DUP2 MLOAD DUP2 LT PUSH2 0xDD6 JUMPI PUSH2 0xDD6 PUSH2 0x2ABD JUMP JUMPDEST PUSH1 0x20 MUL PUSH1 0x20 ADD ADD MLOAD PUSH1 0x1 PUSH1 0x1 PUSH1 0xA0 SHL SUB AND PUSH4 0x313CE567 PUSH1 0x40 MLOAD DUP2 PUSH4 0xFFFFFFFF AND PUSH1 0xE0 SHL DUP2 MSTORE PUSH1 0x4 ADD PUSH1 0x20 PUSH1 0x40 MLOAD DUP1 DUP4 SUB DUP2 DUP7 GAS STATICCALL ISZERO DUP1 ISZERO PUSH2 0xE1B JUMPI RETURNDATASIZE PUSH1 0x0 DUP1 RETURNDATACOPY RETURNDATASIZE PUSH1 0x0 REVERT JUMPDEST POP POP POP POP PUSH1 0x40 MLOAD RETURNDATASIZE PUSH1 0x1F NOT PUSH1 0x1F DUP3 ADD AND DUP3 ADD DUP1 PUSH1 0x40 MSTORE POP DUP2 ADD SWAP1 PUSH2 0xE3F SWAP2 SWAP1 PUSH2 0x2AD3 JUMP JUMPDEST PUSH2 0xE4A SWAP1 PUSH1 0xA PUSH2 0x2BD4 JUMP JUMPDEST PUSH2 0xE5D PUSH1 0x1 PUSH1 0x1 PUSH1 0x80 SHL SUB DUP5 AND DUP7 PUSH2 0x2A47 JUMP JUMPDEST PUSH2 0xE6F SWAP1 PUSH8 0xDE0B6B3A7640000 PUSH2 0x2A47 JUMP JUMPDEST PUSH2 0xE79 SWAP2 SWAP1 PUSH2 0x2A66 JUMP JUMPDEST SWAP1 POP PUSH2 0xE85 DUP2 DUP8 PUSH2 0x2A88 JUMP JUMPDEST SWAP6 POP PUSH2 0xE91 DUP4 DUP3 PUSH2 0x208C JUMP JUMPDEST POP POP POP POP DUP1 DUP1 PUSH2 0xEA0 SWAP1 PUSH2 0x2BE3 JUMP JUMPDEST SWAP2 POP POP PUSH2 0xCAD JUMP JUMPDEST POP PUSH1 0xD DUP1 SLOAD PUSH4 0xFFFFFFFF PUSH1 0x40 SHL NOT AND PUSH1 0x1 PUSH1 0x40 SHL TIMESTAMP PUSH4 0xFFFFFFFF SWAP1 DUP2 AND DUP3 MUL SWAP3 SWAP1 SWAP3 OR SWAP3 DUP4 SWAP1 SSTORE PUSH2 0xEE7 SWAP3 PUSH5 0x100000000 DUP2 DIV DUP4 AND SWAP3 SWAP2 SWAP1 DIV AND PUSH2 0x2BFE JUMP JUMPDEST PUSH4 0xFFFFFFFF AND PUSH1 0xF SSTORE PUSH1 0xC DUP2 SWAP1 SSTORE PUSH1 0x40 MLOAD TIMESTAMP DUP2 MSTORE PUSH32 0x83AAEE11563F280EAC61EBD060F088CE7577D5E823EFA6C78DE1CFEC8167605D SWAP1 PUSH1 0x20 ADD PUSH1 0x40 MLOAD DUP1 SWAP2 SUB SWAP1 LOG1 POP POP POP JUMP JUMPDEST PUSH1 0xB SLOAD PUSH1 0x1 PUSH1 0x1 PUSH1 0xA0 SHL SUB AND CALLER EQ PUSH2 0xF44 JUMPI PUSH1 0x0 DUP1 REVERT JUMPDEST PUSH1 0x6 SLOAD PUSH1 0xFF AND ISZERO PUSH2 0xF54 JUMPI PUSH1 0x0 DUP1 REVERT JUMPDEST DUP1 PUSH1 0x1 PUSH1 0x1 PUSH1 0xA0 SHL SUB AND SELFDESTRUCT JUMPDEST PUSH1 0xF SLOAD TIMESTAMP GT ISZERO PUSH2 0xFC1 JUMPI PUSH1 0xC SLOAD PUSH1 0xF SLOAD PUSH2 0xF7A SWAP1 TIMESTAMP PUSH2 0x2A30 JUMP JUMPDEST PUSH1 0x11 SLOAD PUSH2 0xF8A SWAP1 PUSH2 0x2710 SWAP1 PUSH2 0x2A47 JUMP JUMPDEST PUSH2 0xF94 SWAP2 SWAP1 PUSH2 0x2A47 JUMP JUMPDEST PUSH2 0xF9E SWAP2 SWAP1 PUSH2 0x2A66 JUMP JUMPDEST PUSH1 0x10 PUSH1 0x0 DUP3 DUP3 SLOAD PUSH2 0xFAF SWAP2 SWAP1 PUSH2 0x2A88 JUMP JUMPDEST SWAP1 SWAP2 SSTORE POP POP TIMESTAMP PUSH1 0xF SSTORE PUSH2 0xA1F CALLER PUSH2 0x1D6A JUMP JUMPDEST PUSH2 0xA1F CALLER PUSH2 0x1D6A JUMP JUMPDEST PUSH1 0x9 DUP2 DUP2 SLOAD DUP2 LT PUSH2 0xFDA JUMPI PUSH1 0x0 DUP1 REVERT JUMPDEST PUSH1 0x0 SWAP2 DUP3 MSTORE PUSH1 0x20 SWAP1 SWAP2 KECCAK256 ADD SLOAD PUSH1 0x1 PUSH1 0x1 PUSH1 0xA0 SHL SUB AND SWAP1 POP DUP2 JUMP JUMPDEST PUSH1 0x6 SLOAD PUSH2 0x100 SWAP1 DIV PUSH1 0xFF AND ISZERO PUSH2 0x1009 JUMPI PUSH1 0x0 DUP1 REVERT JUMPDEST PUSH1 0x6 DUP1 SLOAD PUSH2 0xFF00 NOT AND PUSH2 0x100 OR SWAP1 SSTORE PUSH1 0xB DUP1 SLOAD PUSH1 0x1 PUSH1 0x1 PUSH1 0xA0 SHL SUB NOT AND CALLER OR SWAP1 SSTORE DUP5 MLOAD PUSH1 0xD DUP1 SLOAD PUSH1 0x20 DUP9 ADD MLOAD PUSH1 0x40 DUP10 ADD MLOAD PUSH4 0xFFFFFFFF SWAP1 DUP2 AND PUSH1 0x1 PUSH1 0x40 SHL MUL PUSH4 0xFFFFFFFF PUSH1 0x40 SHL NOT SWAP1 DUP2 AND SWAP3 DUP3 AND PUSH5 0x100000000 MUL PUSH8 0xFFFFFFFFFFFFFFFF NOT SWAP1 SWAP5 AND SWAP2 SWAP1 SWAP6 AND OR SWAP2 SWAP1 SWAP2 OR SWAP3 SWAP1 SWAP3 AND SWAP2 SWAP1 SWAP2 OR SWAP1 SSTORE DUP4 MLOAD PUSH1 0x0 JUMPDEST DUP2 DUP2 LT ISZERO PUSH2 0x1242 JUMPI PUSH1 0x7 DUP9 DUP3 DUP2 MLOAD DUP2 LT PUSH2 0x109F JUMPI PUSH2 0x109F PUSH2 0x2ABD JUMP JUMPDEST PUSH1 0x20 SWAP1 DUP2 MUL SWAP2 SWAP1 SWAP2 ADD DUP2 ADD MLOAD DUP3 SLOAD PUSH1 0x1 DUP2 ADD DUP5 SSTORE PUSH1 0x0 SWAP4 DUP5 MSTORE SWAP3 DUP3 SWAP1 KECCAK256 DUP2 MLOAD PUSH2 0x10D1 SWAP5 SWAP2 SWAP1 SWAP2 ADD SWAP3 SWAP2 SWAP1 SWAP2 ADD SWAP1 PUSH2 0x22AB JUMP JUMPDEST POP PUSH1 0x0 PUSH1 0x40 MLOAD DUP1 PUSH1 0x60 ADD PUSH1 0x40 MSTORE DUP1 DUP6 DUP5 DUP2 MLOAD DUP2 LT PUSH2 0x10F1 JUMPI PUSH2 0x10F1 PUSH2 0x2ABD JUMP JUMPDEST PUSH1 0x20 MUL PUSH1 0x20 ADD ADD MLOAD DUP2 MSTORE PUSH1 0x20 ADD DUP8 DUP5 DUP2 MLOAD DUP2 LT PUSH2 0x1110 JUMPI PUSH2 0x1110 PUSH2 0x2ABD JUMP JUMPDEST PUSH1 0x20 MUL PUSH1 0x20 ADD ADD MLOAD PUSH1 0x1 PUSH1 0x1 PUSH1 0x80 SHL SUB AND DUP2 MSTORE PUSH1 0x20 ADD DUP7 DUP5 DUP2 MLOAD DUP2 LT PUSH2 0x1138 JUMPI PUSH2 0x1138 PUSH2 0x2ABD JUMP JUMPDEST PUSH1 0x20 MUL PUSH1 0x20 ADD ADD MLOAD PUSH1 0x1 PUSH1 0x1 PUSH1 0xA0 SHL SUB AND DUP2 MSTORE POP SWAP1 POP DUP1 PUSH1 0xA PUSH1 0x0 DUP10 DUP6 DUP2 MLOAD DUP2 LT PUSH2 0x1165 JUMPI PUSH2 0x1165 PUSH2 0x2ABD JUMP JUMPDEST PUSH1 0x20 SWAP1 DUP2 MUL SWAP2 SWAP1 SWAP2 ADD DUP2 ADD MLOAD PUSH1 0x1 PUSH1 0x1 PUSH1 0xA0 SHL SUB SWAP1 DUP2 AND DUP4 MSTORE DUP3 DUP3 ADD SWAP4 SWAP1 SWAP4 MSTORE PUSH1 0x40 SWAP2 DUP3 ADD PUSH1 0x0 KECCAK256 DUP5 MLOAD DUP2 SSTORE SWAP1 DUP5 ADD MLOAD PUSH1 0x1 DUP3 ADD DUP1 SLOAD PUSH16 0xFFFFFFFFFFFFFFFFFFFFFFFFFFFFFFFF NOT AND PUSH1 0x1 PUSH1 0x1 PUSH1 0x80 SHL SUB SWAP1 SWAP3 AND SWAP2 SWAP1 SWAP2 OR SWAP1 SSTORE SWAP3 ADD MLOAD PUSH1 0x2 SWAP1 SWAP3 ADD DUP1 SLOAD PUSH1 0x1 PUSH1 0x1 PUSH1 0xA0 SHL SUB NOT AND SWAP3 SWAP1 SWAP2 AND SWAP2 SWAP1 SWAP2 OR SWAP1 SSTORE DUP7 MLOAD PUSH1 0x9 SWAP1 DUP9 SWAP1 DUP5 SWAP1 DUP2 LT PUSH2 0x11F4 JUMPI PUSH2 0x11F4 PUSH2 0x2ABD JUMP JUMPDEST PUSH1 0x20 SWAP1 DUP2 MUL SWAP2 SWAP1 SWAP2 ADD DUP2 ADD MLOAD DUP3 SLOAD PUSH1 0x1 DUP2 ADD DUP5 SSTORE PUSH1 0x0 SWAP4 DUP5 MSTORE SWAP2 SWAP1 SWAP3 KECCAK256 ADD DUP1 SLOAD PUSH1 0x1 PUSH1 0x1 PUSH1 0xA0 SHL SUB NOT AND PUSH1 0x1 PUSH1 0x1 PUSH1 0xA0 SHL SUB SWAP1 SWAP3 AND SWAP2 SWAP1 SWAP2 OR SWAP1 SSTORE POP DUP1 PUSH2 0x123A DUP2 PUSH2 0x2BE3 JUMP JUMPDEST SWAP2 POP POP PUSH2 0x1083 JUMP JUMPDEST POP PUSH1 0x9 SLOAD PUSH1 0x8 SSTORE PUSH1 0xD SLOAD PUSH1 0x40 MLOAD PUSH32 0x489170CFE0F7FCDD8410D20D8A81DF8F038624BBCD9814CCA42D477E9D1BB469 SWAP2 PUSH2 0x1297 SWAP2 DUP11 SWAP2 DUP10 SWAP2 DUP10 SWAP2 DUP10 SWAP2 DUP10 SWAP2 PUSH4 0xFFFFFFFF PUSH5 0x100000000 DUP3 DIV DUP2 AND SWAP3 SWAP2 AND SWAP1 PUSH2 0x2C98 JUMP JUMPDEST PUSH1 0x40 MLOAD DUP1 SWAP2 SUB SWAP1 LOG1 POP POP POP POP POP POP POP JUMP JUMPDEST PUSH1 0x1 DUP1 SLOAD PUSH2 0x68E SWAP1 PUSH2 0x29DF JUMP JUMPDEST PUSH1 0x9 SLOAD PUSH1 0x60 SWAP1 PUSH1 0x0 SWAP1 PUSH8 0xFFFFFFFFFFFFFFFF DUP2 GT ISZERO PUSH2 0x12D6 JUMPI PUSH2 0x12D6 PUSH2 0x245C JUMP JUMPDEST PUSH1 0x40 MLOAD SWAP1 DUP1 DUP3 MSTORE DUP1 PUSH1 0x20 MUL PUSH1 0x20 ADD DUP3 ADD PUSH1 0x40 MSTORE DUP1 ISZERO PUSH2 0x12FF JUMPI DUP2 PUSH1 0x20 ADD PUSH1 0x20 DUP3 MUL DUP1 CALLDATASIZE DUP4 CALLDATACOPY ADD SWAP1 POP JUMPDEST POP SWAP1 POP PUSH1 0x0 DUP1 PUSH1 0x0 JUMPDEST PUSH1 0x9 SLOAD DUP2 LT ISZERO PUSH2 0x1491 JUMPI PUSH1 0xA PUSH1 0x0 PUSH1 0x9 DUP4 DUP2 SLOAD DUP2 LT PUSH2 0x1329 JUMPI PUSH2 0x1329 PUSH2 0x2ABD JUMP JUMPDEST PUSH1 0x0 SWAP2 DUP3 MSTORE PUSH1 0x20 DUP1 DUP4 KECCAK256 SWAP1 SWAP2 ADD SLOAD PUSH1 0x1 PUSH1 0x1 PUSH1 0xA0 SHL SUB SWAP1 DUP2 AND DUP5 MSTORE SWAP1 DUP4 ADD SWAP4 SWAP1 SWAP4 MSTORE PUSH1 0x40 SWAP1 SWAP2 ADD SWAP1 KECCAK256 PUSH1 0x2 ADD SLOAD PUSH1 0x9 DUP1 SLOAD SWAP2 SWAP1 SWAP3 AND SWAP5 POP DUP3 SWAP1 DUP2 LT PUSH2 0x1370 JUMPI PUSH2 0x1370 PUSH2 0x2ABD JUMP JUMPDEST PUSH1 0x0 SWAP2 DUP3 MSTORE PUSH1 0x20 SWAP1 SWAP2 KECCAK256 ADD SLOAD PUSH1 0x40 MLOAD PUSH4 0x6EB1769F PUSH1 0xE1 SHL DUP2 MSTORE PUSH1 0x1 PUSH1 0x1 PUSH1 0xA0 SHL SUB DUP6 DUP2 AND PUSH1 0x4 DUP4 ADD MSTORE ADDRESS PUSH1 0x24 DUP4 ADD MSTORE SWAP1 SWAP2 AND SWAP1 PUSH4 0xDD62ED3E SWAP1 PUSH1 0x44 ADD PUSH1 0x20 PUSH1 0x40 MLOAD DUP1 DUP4 SUB DUP2 DUP7 GAS STATICCALL ISZERO DUP1 ISZERO PUSH2 0x13C9 JUMPI RETURNDATASIZE PUSH1 0x0 DUP1 RETURNDATACOPY RETURNDATASIZE PUSH1 0x0 REVERT JUMPDEST POP POP POP POP PUSH1 0x40 MLOAD RETURNDATASIZE PUSH1 0x1F NOT PUSH1 0x1F DUP3 ADD AND DUP3 ADD DUP1 PUSH1 0x40 MSTORE POP DUP2 ADD SWAP1 PUSH2 0x13ED SWAP2 SWAP1 PUSH2 0x2D6D JUMP JUMPDEST SWAP2 POP PUSH1 0xA PUSH1 0x0 PUSH1 0x9 DUP4 DUP2 SLOAD DUP2 LT PUSH2 0x1406 JUMPI PUSH2 0x1406 PUSH2 0x2ABD JUMP JUMPDEST PUSH1 0x0 SWAP2 DUP3 MSTORE PUSH1 0x20 DUP1 DUP4 KECCAK256 SWAP1 SWAP2 ADD SLOAD PUSH1 0x1 PUSH1 0x1 PUSH1 0xA0 SHL SUB AND DUP4 MSTORE DUP3 ADD SWAP3 SWAP1 SWAP3 MSTORE PUSH1 0x40 ADD SWAP1 KECCAK256 SLOAD DUP3 LT PUSH2 0x145A JUMPI PUSH1 0x1 DUP5 DUP3 DUP2 MLOAD DUP2 LT PUSH2 0x1445 JUMPI PUSH2 0x1445 PUSH2 0x2ABD JUMP JUMPDEST SWAP2 ISZERO ISZERO PUSH1 0x20 SWAP3 DUP4 MUL SWAP2 SWAP1 SWAP2 ADD SWAP1 SWAP2 ADD MSTORE PUSH2 0x147F JUMP JUMPDEST PUSH1 0x0 DUP5 DUP3 DUP2 MLOAD DUP2 LT PUSH2 0x146E JUMPI PUSH2 0x146E PUSH2 0x2ABD JUMP JUMPDEST SWAP2 ISZERO ISZERO PUSH1 0x20 SWAP3 DUP4 MUL SWAP2 SWAP1 SWAP2 ADD SWAP1 SWAP2 ADD MSTORE JUMPDEST DUP1 PUSH2 0x1489 DUP2 PUSH2 0x2BE3 JUMP JUMPDEST SWAP2 POP POP PUSH2 0x1308 JUMP JUMPDEST POP SWAP2 SWAP4 SWAP3 POP POP POP JUMP JUMPDEST PUSH1 0x60 PUSH1 0x0 PUSH2 0x14A9 DUP4 PUSH1 0x0 PUSH2 0x1B70 JUMP JUMPDEST PUSH1 0x9 SLOAD SWAP1 SWAP2 POP PUSH1 0x0 SWAP1 PUSH8 0xFFFFFFFFFFFFFFFF DUP2 GT ISZERO PUSH2 0x14CA JUMPI PUSH2 0x14CA PUSH2 0x245C JUMP JUMPDEST PUSH1 0x40 MLOAD SWAP1 DUP1 DUP3 MSTORE DUP1 PUSH1 0x20 MUL PUSH1 0x20 ADD DUP3 ADD PUSH1 0x40 MSTORE DUP1 ISZERO PUSH2 0x14F3 JUMPI DUP2 PUSH1 0x20 ADD PUSH1 0x20 DUP3 MUL DUP1 CALLDATASIZE DUP4 CALLDATACOPY ADD SWAP1 POP JUMPDEST POP SWAP1 POP PUSH1 0x0 JUMPDEST PUSH1 0x9 SLOAD DUP2 LT ISZERO PUSH2 0x153C JUMPI PUSH2 0x150D DUP4 DUP3 PUSH2 0x20E6 JUMP JUMPDEST DUP3 DUP3 DUP2 MLOAD DUP2 LT PUSH2 0x151F JUMPI PUSH2 0x151F PUSH2 0x2ABD JUMP JUMPDEST PUSH1 0x20 SWAP1 DUP2 MUL SWAP2 SWAP1 SWAP2 ADD ADD MSTORE DUP1 PUSH2 0x1534 DUP2 PUSH2 0x2BE3 JUMP JUMPDEST SWAP2 POP POP PUSH2 0x14F9 JUMP JUMPDEST POP SWAP4 SWAP3 POP POP POP JUMP JUMPDEST PUSH1 0xF SLOAD TIMESTAMP GT ISZERO PUSH2 0x1768 JUMPI PUSH1 0xC SLOAD PUSH1 0xF SLOAD PUSH2 0x155E SWAP1 TIMESTAMP PUSH2 0x2A30 JUMP JUMPDEST PUSH1 0x11 SLOAD PUSH2 0x156E SWAP1 PUSH2 0x2710 SWAP1 PUSH2 0x2A47 JUMP JUMPDEST PUSH2 0x1578 SWAP2 SWAP1 PUSH2 0x2A47 JUMP JUMPDEST PUSH2 0x1582 SWAP2 SWAP1 PUSH2 0x2A66 JUMP JUMPDEST PUSH1 0x10 PUSH1 0x0 DUP3 DUP3 SLOAD PUSH2 0x1593 SWAP2 SWAP1 PUSH2 0x2A88 JUMP JUMPDEST SWAP1 SWAP2 SSTORE POP POP TIMESTAMP PUSH1 0xF SSTORE CALLER PUSH1 0x0 DUP2 DUP2 MSTORE PUSH1 0x3 PUSH1 0x20 MSTORE PUSH1 0x40 SWAP1 KECCAK256 SLOAD ADDRESS SWAP1 DUP4 GT ISZERO PUSH2 0x15F7 JUMPI PUSH1 0x40 MLOAD PUSH3 0x461BCD PUSH1 0xE5 SHL DUP2 MSTORE PUSH1 0x20 PUSH1 0x4 DUP3 ADD MSTORE PUSH1 0x17 PUSH1 0x24 DUP3 ADD MSTORE PUSH23 0xAAA68AA440848298829C868A409C9EA8408A9C9EAA8E9 PUSH1 0x4B SHL PUSH1 0x44 DUP3 ADD MSTORE PUSH1 0x64 ADD PUSH2 0x943 JUMP JUMPDEST PUSH1 0x1 PUSH1 0x1 PUSH1 0xA0 SHL SUB DUP1 DUP4 AND PUSH1 0x0 SWAP1 DUP2 MSTORE PUSH1 0x3 PUSH1 0x20 MSTORE PUSH1 0x40 DUP1 DUP3 KECCAK256 DUP1 SLOAD DUP8 SWAP1 SUB SWAP1 SSTORE SWAP2 DUP4 AND DUP2 MSTORE SWAP1 DUP2 KECCAK256 DUP1 SLOAD DUP6 ADD SWAP1 SSTORE PUSH1 0xC SLOAD PUSH8 0xDE0B6B3A7640000 PUSH2 0x163E PUSH2 0x2710 DUP8 PUSH2 0x2A47 JUMP JUMPDEST PUSH2 0x1648 SWAP2 SWAP1 PUSH2 0x2A47 JUMP JUMPDEST PUSH2 0x1652 SWAP2 SWAP1 PUSH2 0x2A66 JUMP JUMPDEST PUSH1 0x10 SLOAD SWAP1 SWAP2 POP TIMESTAMP PUSH1 0x0 PUSH2 0x1663 PUSH2 0x21A5 JUMP JUMPDEST PUSH1 0x40 DUP1 MLOAD PUSH1 0x80 DUP2 ADD DUP3 MSTORE DUP7 DUP2 MSTORE PUSH1 0x20 DUP1 DUP3 ADD DUP8 DUP2 MSTORE DUP3 DUP5 ADD DUP8 DUP2 MSTORE PUSH1 0x60 DUP5 ADD DUP7 DUP2 MSTORE CALLER PUSH1 0x0 SWAP1 DUP2 MSTORE PUSH1 0xE SWAP1 SWAP5 MSTORE SWAP5 DUP4 KECCAK256 DUP5 MLOAD DUP2 SSTORE SWAP2 MLOAD PUSH1 0x1 DUP4 ADD SSTORE MLOAD PUSH1 0x2 DUP3 ADD SSTORE SWAP3 MLOAD PUSH1 0x3 SWAP1 SWAP4 ADD SWAP3 SWAP1 SWAP3 SSTORE PUSH1 0x11 DUP1 SLOAD SWAP4 SWAP5 POP SWAP1 SWAP3 DUP11 SWAP3 SWAP1 PUSH2 0x16C6 SWAP1 DUP5 SWAP1 PUSH2 0x2A88 JUMP JUMPDEST SWAP3 POP POP DUP2 SWAP1 SSTORE POP DUP6 PUSH1 0x1 PUSH1 0x1 PUSH1 0xA0 SHL SUB AND DUP8 PUSH1 0x1 PUSH1 0x1 PUSH1 0xA0 SHL SUB AND PUSH1 0x0 DUP1 MLOAD PUSH1 0x20 PUSH2 0x2E8C DUP4 CODECOPY DUP2 MLOAD SWAP2 MSTORE DUP11 PUSH1 0x40 MLOAD PUSH2 0x1700 SWAP2 DUP2 MSTORE PUSH1 0x20 ADD SWAP1 JUMP JUMPDEST PUSH1 0x40 MLOAD DUP1 SWAP2 SUB SWAP1 LOG3 PUSH1 0x40 DUP1 MLOAD CALLER DUP2 MSTORE PUSH1 0x20 DUP2 ADD DUP11 SWAP1 MSTORE SWAP1 DUP2 ADD DUP7 SWAP1 MSTORE PUSH1 0x60 DUP2 ADD DUP6 SWAP1 MSTORE PUSH1 0x80 DUP2 ADD DUP5 SWAP1 MSTORE PUSH1 0xA0 DUP2 ADD DUP4 SWAP1 MSTORE PUSH32 0x9DFA08ABAE6C607453D7EF936FD3D42C4AFC359DCFA226A49BE696604A246845 SWAP1 PUSH1 0xC0 ADD PUSH1 0x40 MLOAD DUP1 SWAP2 SUB SWAP1 LOG1 POP POP POP POP POP POP POP POP JUMP JUMPDEST CALLER PUSH1 0x0 DUP2 DUP2 MSTORE PUSH1 0x3 PUSH1 0x20 MSTORE PUSH1 0x40 SWAP1 KECCAK256 SLOAD ADDRESS SWAP1 DUP4 GT ISZERO PUSH2 0x15F7 JUMPI PUSH1 0x40 MLOAD PUSH3 0x461BCD PUSH1 0xE5 SHL DUP2 MSTORE PUSH1 0x20 PUSH1 0x4 DUP3 ADD MSTORE PUSH1 0x17 PUSH1 0x24 DUP3 ADD MSTORE PUSH23 0xAAA68AA440848298829C868A409C9EA8408A9C9EAA8E9 PUSH1 0x4B SHL PUSH1 0x44 DUP3 ADD MSTORE PUSH1 0x64 ADD PUSH2 0x943 JUMP JUMPDEST CALLER PUSH1 0x0 SWAP1 DUP2 MSTORE PUSH1 0x3 PUSH1 0x20 MSTORE PUSH1 0x40 DUP2 KECCAK256 DUP1 SLOAD DUP4 SWAP2 SWAP1 DUP4 SWAP1 PUSH2 0x17E4 SWAP1 DUP5 SWAP1 PUSH2 0x2A30 JUMP JUMPDEST SWAP1 SWAP2 SSTORE POP POP PUSH1 0x1 PUSH1 0x1 PUSH1 0xA0 SHL SUB DUP4 AND PUSH1 0x0 DUP2 DUP2 MSTORE PUSH1 0x3 PUSH1 0x20 MSTORE PUSH1 0x40 SWAP1 DUP2 SWAP1 KECCAK256 DUP1 SLOAD DUP6 ADD SWAP1 SSTORE MLOAD CALLER SWAP1 PUSH1 0x0 DUP1 MLOAD PUSH1 0x20 PUSH2 0x2E8C DUP4 CODECOPY DUP2 MLOAD SWAP2 MSTORE SWAP1 PUSH2 0x76A SWAP1 DUP7 DUP2 MSTORE PUSH1 0x20 ADD SWAP1 JUMP JUMPDEST PUSH1 0x40 DUP1 MLOAD PUSH1 0x60 DUP2 ADD DUP3 MSTORE PUSH1 0x0 DUP1 DUP3 MSTORE PUSH1 0x20 DUP3 ADD DUP2 SWAP1 MSTORE SWAP2 DUP2 ADD DUP3 SWAP1 MSTORE PUSH1 0x0 PUSH1 0x9 DUP5 DUP2 SLOAD DUP2 LT PUSH2 0x185A JUMPI PUSH2 0x185A PUSH2 0x2ABD JUMP JUMPDEST PUSH1 0x0 SWAP2 DUP3 MSTORE PUSH1 0x20 DUP1 DUP4 KECCAK256 SWAP1 SWAP2 ADD SLOAD PUSH1 0x1 PUSH1 0x1 PUSH1 0xA0 SHL SUB SWAP1 DUP2 AND DUP1 DUP5 MSTORE PUSH1 0xA DUP4 MSTORE PUSH1 0x40 SWAP4 DUP5 SWAP1 KECCAK256 DUP5 MLOAD PUSH1 0x60 DUP2 ADD DUP7 MSTORE DUP2 SLOAD DUP2 MSTORE PUSH1 0x1 DUP3 ADD SLOAD PUSH1 0x1 PUSH1 0x1 PUSH1 0x80 SHL SUB AND SWAP5 DUP2 ADD SWAP5 SWAP1 SWAP5 MSTORE PUSH1 0x2 ADD SLOAD SWAP1 SWAP2 AND SWAP3 DUP3 ADD SWAP3 SWAP1 SWAP3 MSTORE SWAP1 SWAP6 SWAP1 SWAP5 POP SWAP3 POP POP POP JUMP JUMPDEST TIMESTAMP DUP5 LT ISZERO PUSH2 0x190A JUMPI PUSH1 0x40 MLOAD PUSH3 0x461BCD PUSH1 0xE5 SHL DUP2 MSTORE PUSH1 0x20 PUSH1 0x4 DUP3 ADD MSTORE PUSH1 0x17 PUSH1 0x24 DUP3 ADD MSTORE PUSH32 0x5045524D49545F444541444C494E455F45585049524544000000000000000000 PUSH1 0x44 DUP3 ADD MSTORE PUSH1 0x64 ADD PUSH2 0x943 JUMP JUMPDEST PUSH1 0x0 PUSH2 0x1914 PUSH2 0xB99 JUMP JUMPDEST PUSH1 0x1 PUSH1 0x1 PUSH1 0xA0 SHL SUB DUP10 DUP2 AND PUSH1 0x0 DUP2 DUP2 MSTORE PUSH1 0x5 PUSH1 0x20 SWAP1 DUP2 MSTORE PUSH1 0x40 SWAP2 DUP3 SWAP1 KECCAK256 DUP1 SLOAD PUSH1 0x1 DUP2 ADD SWAP1 SWAP2 SSTORE DUP3 MLOAD PUSH32 0x6E71EDAE12B1B97F4D1F60370FEF10105FA2FAAE0126114A169C64845D6126C9 DUP2 DUP5 ADD MSTORE DUP1 DUP5 ADD SWAP5 SWAP1 SWAP5 MSTORE SWAP4 DUP13 AND PUSH1 0x60 DUP5 ADD MSTORE PUSH1 0x80 DUP4 ADD DUP12 SWAP1 MSTORE PUSH1 0xA0 DUP4 ADD SWAP4 SWAP1 SWAP4 MSTORE PUSH1 0xC0 DUP1 DUP4 ADD DUP11 SWAP1 MSTORE DUP2 MLOAD DUP1 DUP5 SUB SWAP1 SWAP2 ADD DUP2 MSTORE PUSH1 0xE0 DUP4 ADD SWAP1 SWAP2 MSTORE DUP1 MLOAD SWAP3 ADD SWAP2 SWAP1 SWAP2 KECCAK256 PUSH2 0x1901 PUSH1 0xF0 SHL PUSH2 0x100 DUP4 ADD MSTORE PUSH2 0x102 DUP3 ADD SWAP3 SWAP1 SWAP3 MSTORE PUSH2 0x122 DUP2 ADD SWAP2 SWAP1 SWAP2 MSTORE PUSH2 0x142 ADD PUSH1 0x40 DUP1 MLOAD PUSH1 0x1F NOT DUP2 DUP5 SUB ADD DUP2 MSTORE DUP3 DUP3 MSTORE DUP1 MLOAD PUSH1 0x20 SWAP2 DUP3 ADD KECCAK256 PUSH1 0x0 DUP1 DUP6 MSTORE SWAP2 DUP5 ADD DUP1 DUP5 MSTORE DUP2 SWAP1 MSTORE PUSH1 0xFF DUP9 AND SWAP3 DUP5 ADD SWAP3 SWAP1 SWAP3 MSTORE PUSH1 0x60 DUP4 ADD DUP7 SWAP1 MSTORE PUSH1 0x80 DUP4 ADD DUP6 SWAP1 MSTORE SWAP1 SWAP3 POP SWAP1 PUSH1 0x1 SWAP1 PUSH1 0xA0 ADD PUSH1 0x20 PUSH1 0x40 MLOAD PUSH1 0x20 DUP2 SUB SWAP1 DUP1 DUP5 SUB SWAP1 DUP6 GAS STATICCALL ISZERO DUP1 ISZERO PUSH2 0x1A2D JUMPI RETURNDATASIZE PUSH1 0x0 DUP1 RETURNDATACOPY RETURNDATASIZE PUSH1 0x0 REVERT JUMPDEST POP POP PUSH1 0x40 MLOAD PUSH1 0x1F NOT ADD MLOAD SWAP2 POP POP PUSH1 0x1 PUSH1 0x1 PUSH1 0xA0 SHL SUB DUP2 AND ISZERO DUP1 ISZERO SWAP1 PUSH2 0x1A63 JUMPI POP DUP9 PUSH1 0x1 PUSH1 0x1 PUSH1 0xA0 SHL SUB AND DUP2 PUSH1 0x1 PUSH1 0x1 PUSH1 0xA0 SHL SUB AND EQ JUMPDEST PUSH2 0x1AA0 JUMPI PUSH1 0x40 MLOAD PUSH3 0x461BCD PUSH1 0xE5 SHL DUP2 MSTORE PUSH1 0x20 PUSH1 0x4 DUP3 ADD MSTORE PUSH1 0xE PUSH1 0x24 DUP3 ADD MSTORE PUSH14 0x24A72B20A624A22FA9A4A3A722A9 PUSH1 0x91 SHL PUSH1 0x44 DUP3 ADD MSTORE PUSH1 0x64 ADD PUSH2 0x943 JUMP JUMPDEST PUSH1 0x1 PUSH1 0x1 PUSH1 0xA0 SHL SUB SWAP1 DUP2 AND PUSH1 0x0 SWAP1 DUP2 MSTORE PUSH1 0x4 PUSH1 0x20 SWAP1 DUP2 MSTORE PUSH1 0x40 DUP1 DUP4 KECCAK256 DUP12 DUP6 AND DUP1 DUP6 MSTORE SWAP1 DUP4 MSTORE SWAP3 DUP2 SWAP1 KECCAK256 DUP11 SWAP1 SSTORE MLOAD DUP10 DUP2 MSTORE SWAP2 SWAP4 POP SWAP2 DUP11 AND SWAP2 PUSH32 0x8C5BE1E5EBEC7D5BD14F71427D1E84F3DD0314C0F7B2291E5B200AC8C7C3B925 SWAP2 ADD PUSH1 0x40 MLOAD DUP1 SWAP2 SUB SWAP1 LOG3 POP POP POP POP POP POP POP JUMP JUMPDEST PUSH1 0xB SLOAD PUSH1 0x1 PUSH1 0x1 PUSH1 0xA0 SHL SUB AND CALLER EQ PUSH2 0x1B22 JUMPI PUSH1 0x0 DUP1 REVERT JUMPDEST PUSH1 0xB DUP1 SLOAD PUSH1 0x1 PUSH1 0x1 PUSH1 0xA0 SHL SUB NOT AND PUSH1 0x1 PUSH1 0x1 PUSH1 0xA0 SHL SUB DUP4 AND SWAP1 DUP2 OR SWAP1 SWAP2 SSTORE PUSH1 0x40 MLOAD SWAP1 DUP2 MSTORE PUSH32 0x39E7D4B9BA48F55A740A5192809DBC498FA12724C030B37DAB126A3F6774C0F3 SWAP1 PUSH1 0x20 ADD PUSH2 0xB78 JUMP JUMPDEST PUSH1 0x1 PUSH1 0x1 PUSH1 0xA0 SHL SUB DUP3 AND PUSH1 0x0 SWAP1 DUP2 MSTORE PUSH1 0xE PUSH1 0x20 MSTORE PUSH1 0x40 DUP2 KECCAK256 PUSH1 0x2 ADD SLOAD TIMESTAMP GT PUSH2 0x1B9A JUMPI POP PUSH1 0x0 PUSH2 0x776 JUMP JUMPDEST PUSH1 0x1 PUSH1 0x1 PUSH1 0xA0 SHL SUB DUP4 AND PUSH1 0x0 SWAP1 DUP2 MSTORE PUSH1 0xE PUSH1 0x20 MSTORE PUSH1 0x40 DUP2 KECCAK256 PUSH1 0x2 ADD SLOAD PUSH2 0x1BC0 SWAP1 TIMESTAMP PUSH2 0x2A30 JUMP JUMPDEST PUSH1 0x1 PUSH1 0x1 PUSH1 0xA0 SHL SUB DUP6 AND PUSH1 0x0 SWAP1 DUP2 MSTORE PUSH1 0xE PUSH1 0x20 MSTORE PUSH1 0x40 DUP2 KECCAK256 PUSH1 0x3 ADD SLOAD SWAP2 SWAP3 POP SWAP1 PUSH2 0x1BE8 PUSH2 0x21A5 JUMP JUMPDEST PUSH2 0x1BF2 SWAP2 SWAP1 PUSH2 0x2A30 JUMP JUMPDEST SWAP1 POP PUSH1 0x0 DUP5 ISZERO PUSH2 0x1C2C JUMPI PUSH1 0x1 PUSH1 0x1 PUSH1 0xA0 SHL SUB DUP7 AND PUSH1 0x0 SWAP1 DUP2 MSTORE PUSH1 0xE PUSH1 0x20 MSTORE PUSH1 0x40 SWAP1 KECCAK256 PUSH1 0x1 ADD SLOAD PUSH1 0x10 SLOAD PUSH2 0x1C25 SWAP2 SWAP1 PUSH2 0x2A30 JUMP JUMPDEST SWAP1 POP PUSH2 0x1C96 JUMP JUMPDEST PUSH1 0xC SLOAD PUSH1 0xF SLOAD PUSH2 0x1C3C SWAP1 TIMESTAMP PUSH2 0x2A30 JUMP JUMPDEST PUSH1 0x11 SLOAD PUSH2 0x1C4C SWAP1 PUSH2 0x2710 SWAP1 PUSH2 0x2A47 JUMP JUMPDEST PUSH2 0x1C56 SWAP2 SWAP1 PUSH2 0x2A47 JUMP JUMPDEST PUSH2 0x1C60 SWAP2 SWAP1 PUSH2 0x2A66 JUMP JUMPDEST PUSH1 0x1 PUSH1 0x1 PUSH1 0xA0 SHL SUB DUP8 AND PUSH1 0x0 SWAP1 DUP2 MSTORE PUSH1 0xE PUSH1 0x20 MSTORE PUSH1 0x40 SWAP1 KECCAK256 PUSH1 0x1 ADD SLOAD PUSH1 0x10 SLOAD PUSH2 0x1C89 SWAP2 SWAP1 PUSH2 0x2A30 JUMP JUMPDEST PUSH2 0x1C93 SWAP2 SWAP1 PUSH2 0x2A88 JUMP JUMPDEST SWAP1 POP JUMPDEST PUSH1 0x0 PUSH2 0x1CA2 DUP5 DUP4 PUSH2 0x2A66 JUMP JUMPDEST SWAP1 POP DUP1 PUSH2 0x1CB6 JUMPI PUSH1 0x0 SWAP5 POP POP POP POP POP PUSH2 0x776 JUMP JUMPDEST PUSH1 0x1 PUSH1 0x1 PUSH1 0xA0 SHL SUB DUP8 AND PUSH1 0x0 SWAP1 DUP2 MSTORE PUSH1 0xE PUSH1 0x20 MSTORE PUSH1 0x40 DUP2 KECCAK256 SLOAD DUP3 SWAP1 PUSH2 0x1CDE SWAP1 PUSH2 0x2710 SWAP1 PUSH2 0x2A47 JUMP JUMPDEST PUSH2 0x1CE8 SWAP2 SWAP1 PUSH2 0x2A66 JUMP JUMPDEST SWAP1 POP PUSH1 0x0 PUSH2 0x2710 PUSH2 0x1CF9 DUP4 DUP8 PUSH2 0x2A47 JUMP JUMPDEST PUSH2 0x1D03 SWAP2 SWAP1 PUSH2 0x2A66 JUMP JUMPDEST SWAP1 POP PUSH1 0x12 SLOAD DUP7 LT PUSH2 0x1D1B JUMPI SWAP6 POP PUSH2 0x776 SWAP5 POP POP POP POP POP JUMP JUMPDEST PUSH1 0x12 SLOAD PUSH2 0x1D28 DUP8 DUP4 PUSH2 0x2A47 JUMP JUMPDEST PUSH2 0x1D32 SWAP2 SWAP1 PUSH2 0x2A66 JUMP JUMPDEST SWAP7 POP POP POP POP POP POP POP PUSH2 0x776 JUMP JUMPDEST PUSH1 0x7 DUP2 DUP2 SLOAD DUP2 LT PUSH2 0x1D4F JUMPI PUSH1 0x0 DUP1 REVERT JUMPDEST SWAP1 PUSH1 0x0 MSTORE PUSH1 0x20 PUSH1 0x0 KECCAK256 ADD PUSH1 0x0 SWAP2 POP SWAP1 POP DUP1 SLOAD PUSH2 0x68E SWAP1 PUSH2 0x29DF JUMP JUMPDEST PUSH1 0x0 DUP1 PUSH2 0x1D78 DUP4 PUSH1 0x1 PUSH2 0x1B70 JUMP JUMPDEST SWAP1 POP PUSH1 0x0 PUSH1 0x9 DUP1 SLOAD DUP1 PUSH1 0x20 MUL PUSH1 0x20 ADD PUSH1 0x40 MLOAD SWAP1 DUP2 ADD PUSH1 0x40 MSTORE DUP1 SWAP3 SWAP2 SWAP1 DUP2 DUP2 MSTORE PUSH1 0x20 ADD DUP3 DUP1 SLOAD DUP1 ISZERO PUSH2 0x1DD2 JUMPI PUSH1 0x20 MUL DUP3 ADD SWAP2 SWAP1 PUSH1 0x0 MSTORE PUSH1 0x20 PUSH1 0x0 KECCAK256 SWAP1 JUMPDEST DUP2 SLOAD PUSH1 0x1 PUSH1 0x1 PUSH1 0xA0 SHL SUB AND DUP2 MSTORE PUSH1 0x1 SWAP1 SWAP2 ADD SWAP1 PUSH1 0x20 ADD DUP1 DUP4 GT PUSH2 0x1DB4 JUMPI JUMPDEST POP POP POP POP POP SWAP1 POP PUSH1 0x0 DUP2 MLOAD PUSH8 0xFFFFFFFFFFFFFFFF DUP2 GT ISZERO PUSH2 0x1DF5 JUMPI PUSH2 0x1DF5 PUSH2 0x245C JUMP JUMPDEST PUSH1 0x40 MLOAD SWAP1 DUP1 DUP3 MSTORE DUP1 PUSH1 0x20 MUL PUSH1 0x20 ADD DUP3 ADD PUSH1 0x40 MSTORE DUP1 ISZERO PUSH2 0x1E1E JUMPI DUP2 PUSH1 0x20 ADD PUSH1 0x20 DUP3 MUL DUP1 CALLDATASIZE DUP4 CALLDATACOPY ADD SWAP1 POP JUMPDEST POP SWAP1 POP DUP3 ISZERO PUSH2 0x1FEA JUMPI PUSH1 0x10 SLOAD PUSH1 0x1 PUSH1 0x1 PUSH1 0xA0 SHL SUB DUP7 AND PUSH1 0x0 SWAP1 DUP2 MSTORE PUSH1 0xE PUSH1 0x20 MSTORE PUSH1 0x40 SWAP1 KECCAK256 PUSH1 0x1 ADD SSTORE PUSH2 0x1E4E PUSH2 0x21A5 JUMP JUMPDEST PUSH1 0x1 PUSH1 0x1 PUSH1 0xA0 SHL SUB DUP7 AND PUSH1 0x0 SWAP1 DUP2 MSTORE PUSH1 0xE PUSH1 0x20 MSTORE PUSH1 0x40 DUP2 KECCAK256 PUSH1 0x3 DUP2 ADD SWAP3 SWAP1 SWAP3 SSTORE TIMESTAMP PUSH1 0x2 DUP4 ADD SSTORE DUP2 SLOAD DUP6 SWAP3 SWAP2 SWAP1 PUSH2 0x1E85 SWAP1 DUP5 SWAP1 PUSH2 0x2A30 JUMP JUMPDEST SWAP1 SWAP2 SSTORE POP POP PUSH1 0xC SLOAD PUSH1 0x0 SWAP1 PUSH8 0xDE0B6B3A7640000 SWAP1 PUSH2 0x1EA4 SWAP1 DUP7 PUSH2 0x2A47 JUMP JUMPDEST PUSH2 0x1EAE SWAP2 SWAP1 PUSH2 0x2A66 JUMP JUMPDEST SWAP1 POP PUSH1 0x0 PUSH2 0x1EBE PUSH2 0x2710 DUP4 PUSH2 0x2A66 JUMP JUMPDEST SWAP1 POP PUSH2 0x1ECA ADDRESS DUP3 PUSH2 0x2249 JUMP JUMPDEST PUSH1 0x0 JUMPDEST DUP5 MLOAD DUP2 LT ISZERO PUSH2 0x1FA9 JUMPI PUSH1 0x0 PUSH2 0x1EE2 DUP8 DUP4 PUSH2 0x20E6 JUMP JUMPDEST SWAP1 POP DUP1 DUP6 DUP4 DUP2 MLOAD DUP2 LT PUSH2 0x1EF7 JUMPI PUSH2 0x1EF7 PUSH2 0x2ABD JUMP JUMPDEST PUSH1 0x20 MUL PUSH1 0x20 ADD ADD DUP2 DUP2 MSTORE POP POP DUP6 DUP3 DUP2 MLOAD DUP2 LT PUSH2 0x1F15 JUMPI PUSH2 0x1F15 PUSH2 0x2ABD JUMP JUMPDEST PUSH1 0x20 SWAP1 DUP2 MUL SWAP2 SWAP1 SWAP2 ADD ADD MLOAD PUSH1 0x40 MLOAD PUSH4 0xA9059CBB PUSH1 0xE0 SHL DUP2 MSTORE PUSH1 0x1 PUSH1 0x1 PUSH1 0xA0 SHL SUB DUP12 DUP2 AND PUSH1 0x4 DUP4 ADD MSTORE PUSH1 0x24 DUP3 ADD DUP5 SWAP1 MSTORE SWAP1 SWAP2 AND SWAP1 PUSH4 0xA9059CBB SWAP1 PUSH1 0x44 ADD PUSH1 0x20 PUSH1 0x40 MLOAD DUP1 DUP4 SUB DUP2 PUSH1 0x0 DUP8 GAS CALL ISZERO DUP1 ISZERO PUSH2 0x1F70 JUMPI RETURNDATASIZE PUSH1 0x0 DUP1 RETURNDATACOPY RETURNDATASIZE PUSH1 0x0 REVERT JUMPDEST POP POP POP POP PUSH1 0x40 MLOAD RETURNDATASIZE PUSH1 0x1F NOT PUSH1 0x1F DUP3 ADD AND DUP3 ADD DUP1 PUSH1 0x40 MSTORE POP DUP2 ADD SWAP1 PUSH2 0x1F94 SWAP2 SWAP1 PUSH2 0x2AA0 JUMP JUMPDEST POP POP DUP1 DUP1 PUSH2 0x1FA1 SWAP1 PUSH2 0x2BE3 JUMP JUMPDEST SWAP2 POP POP PUSH2 0x1ECD JUMP JUMPDEST POP PUSH32 0xBBFAF902CEC9107D8131A7888C2B89C5E5820FF6319B992657E8EAA9A36FECED DUP8 DUP7 DUP7 DUP7 PUSH1 0x40 MLOAD PUSH2 0x1FDF SWAP5 SWAP4 SWAP3 SWAP2 SWAP1 PUSH2 0x2D86 JUMP JUMPDEST PUSH1 0x40 MLOAD DUP1 SWAP2 SUB SWAP1 LOG1 POP POP JUMPDEST POP POP POP SWAP2 SWAP1 POP JUMP JUMPDEST PUSH1 0x0 PUSH32 0x8B73C3C69BB8FE3D512ECC4CF759CC79239F7B179B0FFACAA9A75D522B39400F PUSH1 0x0 PUSH1 0x40 MLOAD PUSH2 0x2024 SWAP2 SWAP1 PUSH2 0x2DCA JUMP JUMPDEST PUSH1 0x40 DUP1 MLOAD SWAP2 DUP3 SWAP1 SUB DUP3 KECCAK256 PUSH1 0x20 DUP4 ADD SWAP4 SWAP1 SWAP4 MSTORE DUP2 ADD SWAP2 SWAP1 SWAP2 MSTORE PUSH32 0xC89EFDAA54C0F20C7ADF612882DF0950F5A951637E0307CDCB4C672F298B8BC6 PUSH1 0x60 DUP3 ADD MSTORE CHAINID PUSH1 0x80 DUP3 ADD MSTORE ADDRESS PUSH1 0xA0 DUP3 ADD MSTORE PUSH1 0xC0 ADD PUSH1 0x40 MLOAD PUSH1 0x20 DUP2 DUP4 SUB SUB DUP2 MSTORE SWAP1 PUSH1 0x40 MSTORE DUP1 MLOAD SWAP1 PUSH1 0x20 ADD KECCAK256 SWAP1 POP SWAP1 JUMP JUMPDEST DUP1 PUSH1 0x2 PUSH1 0x0 DUP3 DUP3 SLOAD PUSH2 0x209E SWAP2 SWAP1 PUSH2 0x2A88 JUMP JUMPDEST SWAP1 SWAP2 SSTORE POP POP PUSH1 0x1 PUSH1 0x1 PUSH1 0xA0 SHL SUB DUP3 AND PUSH1 0x0 DUP2 DUP2 MSTORE PUSH1 0x3 PUSH1 0x20 SWAP1 DUP2 MSTORE PUSH1 0x40 DUP1 DUP4 KECCAK256 DUP1 SLOAD DUP7 ADD SWAP1 SSTORE MLOAD DUP5 DUP2 MSTORE PUSH1 0x0 DUP1 MLOAD PUSH1 0x20 PUSH2 0x2E8C DUP4 CODECOPY DUP2 MLOAD SWAP2 MSTORE SWAP2 ADD JUMPDEST PUSH1 0x40 MLOAD DUP1 SWAP2 SUB SWAP1 LOG3 POP POP JUMP JUMPDEST PUSH1 0x9 SLOAD PUSH1 0x0 SWAP1 DUP3 LT PUSH2 0x2131 JUMPI PUSH1 0x40 MLOAD PUSH3 0x461BCD PUSH1 0xE5 SHL DUP2 MSTORE PUSH1 0x20 PUSH1 0x4 DUP3 ADD MSTORE PUSH1 0x14 PUSH1 0x24 DUP3 ADD MSTORE PUSH20 0x1D1BDAD95B92590813D5550813D1881093D55391 PUSH1 0x62 SHL PUSH1 0x44 DUP3 ADD MSTORE PUSH1 0x64 ADD PUSH2 0x943 JUMP JUMPDEST PUSH2 0x2710 PUSH4 0xFFFFFFFF AND PUSH8 0xDE0B6B3A7640000 DUP5 PUSH1 0xA PUSH1 0x0 PUSH1 0x9 DUP8 DUP2 SLOAD DUP2 LT PUSH2 0x215B JUMPI PUSH2 0x215B PUSH2 0x2ABD JUMP JUMPDEST PUSH1 0x0 SWAP2 DUP3 MSTORE PUSH1 0x20 DUP1 DUP4 KECCAK256 SWAP1 SWAP2 ADD SLOAD PUSH1 0x1 PUSH1 0x1 PUSH1 0xA0 SHL SUB AND DUP4 MSTORE DUP3 ADD SWAP3 SWAP1 SWAP3 MSTORE PUSH1 0x40 ADD SWAP1 KECCAK256 SLOAD PUSH2 0x218A SWAP2 SWAP1 PUSH2 0x2A47 JUMP JUMPDEST PUSH2 0x2194 SWAP2 SWAP1 PUSH2 0x2A66 JUMP JUMPDEST PUSH2 0x219E SWAP2 SWAP1 PUSH2 0x2A66 JUMP JUMPDEST SWAP4 SWAP3 POP POP POP JUMP JUMPDEST PUSH1 0xD SLOAD PUSH1 0x0 SWAP1 PUSH1 0x1 PUSH1 0x40 SHL SWAP1 DIV PUSH4 0xFFFFFFFF AND DUP1 PUSH2 0x21C5 JUMPI PUSH1 0x0 SWAP2 POP POP SWAP1 JUMP JUMPDEST PUSH1 0xD SLOAD PUSH4 0xFFFFFFFF AND PUSH1 0x0 PUSH2 0x21DA DUP4 TIMESTAMP PUSH2 0x2E66 JUMP JUMPDEST SWAP1 POP DUP1 PUSH4 0xFFFFFFFF AND DUP3 PUSH4 0xFFFFFFFF AND GT PUSH2 0x21FA JUMPI POP PUSH2 0x2710 SWAP4 SWAP3 POP POP POP JUMP JUMPDEST PUSH1 0xD SLOAD PUSH4 0xFFFFFFFF PUSH5 0x100000000 SWAP1 SWAP2 DIV DUP2 AND SWAP1 DUP3 AND GT PUSH2 0x221F JUMPI PUSH1 0x0 SWAP4 POP POP POP POP SWAP1 JUMP JUMPDEST PUSH4 0xFFFFFFFF DUP1 DUP4 AND SWAP1 PUSH2 0x2237 SWAP1 PUSH2 0x2710 SWAP1 DUP5 AND PUSH2 0x2A47 JUMP JUMPDEST PUSH2 0x2241 SWAP2 SWAP1 PUSH2 0x2A66 JUMP JUMPDEST SWAP4 POP POP POP POP SWAP1 JUMP JUMPDEST PUSH1 0x1 PUSH1 0x1 PUSH1 0xA0 SHL SUB DUP3 AND PUSH1 0x0 SWAP1 DUP2 MSTORE PUSH1 0x3 PUSH1 0x20 MSTORE PUSH1 0x40 DUP2 KECCAK256 DUP1 SLOAD DUP4 SWAP3 SWAP1 PUSH2 0x2271 SWAP1 DUP5 SWAP1 PUSH2 0x2A30 JUMP JUMPDEST SWAP1 SWAP2 SSTORE POP POP PUSH1 0x2 DUP1 SLOAD DUP3 SWAP1 SUB SWAP1 SSTORE PUSH1 0x40 MLOAD DUP2 DUP2 MSTORE PUSH1 0x0 SWAP1 PUSH1 0x1 PUSH1 0x1 PUSH1 0xA0 SHL SUB DUP5 AND SWAP1 PUSH1 0x0 DUP1 MLOAD PUSH1 0x20 PUSH2 0x2E8C DUP4 CODECOPY DUP2 MLOAD SWAP2 MSTORE SWAP1 PUSH1 0x20 ADD PUSH2 0x20DA JUMP JUMPDEST DUP3 DUP1 SLOAD PUSH2 0x22B7 SWAP1 PUSH2 0x29DF JUMP JUMPDEST SWAP1 PUSH1 0x0 MSTORE PUSH1 0x20 PUSH1 0x0 KECCAK256 SWAP1 PUSH1 0x1F ADD PUSH1 0x20 SWAP1 DIV DUP2 ADD SWAP3 DUP3 PUSH2 0x22D9 JUMPI PUSH1 0x0 DUP6 SSTORE PUSH2 0x231F JUMP JUMPDEST DUP3 PUSH1 0x1F LT PUSH2 0x22F2 JUMPI DUP1 MLOAD PUSH1 0xFF NOT AND DUP4 DUP1 ADD OR DUP6 SSTORE PUSH2 0x231F JUMP JUMPDEST DUP3 DUP1 ADD PUSH1 0x1 ADD DUP6 SSTORE DUP3 ISZERO PUSH2 0x231F JUMPI SWAP2 DUP3 ADD JUMPDEST DUP3 DUP2 GT ISZERO PUSH2 0x231F JUMPI DUP3 MLOAD DUP3 SSTORE SWAP2 PUSH1 0x20 ADD SWAP2 SWAP1 PUSH1 0x1 ADD SWAP1 PUSH2 0x2304 JUMP JUMPDEST POP PUSH2 0x232B SWAP3 SWAP2 POP PUSH2 0x232F JUMP JUMPDEST POP SWAP1 JUMP JUMPDEST JUMPDEST DUP1 DUP3 GT ISZERO PUSH2 0x232B JUMPI PUSH1 0x0 DUP2 SSTORE PUSH1 0x1 ADD PUSH2 0x2330 JUMP JUMPDEST PUSH1 0x0 DUP2 MLOAD DUP1 DUP5 MSTORE PUSH1 0x0 JUMPDEST DUP2 DUP2 LT ISZERO PUSH2 0x236A JUMPI PUSH1 0x20 DUP2 DUP6 ADD DUP2 ADD MLOAD DUP7 DUP4 ADD DUP3 ADD MSTORE ADD PUSH2 0x234E JUMP JUMPDEST DUP2 DUP2 GT ISZERO PUSH2 0x237C JUMPI PUSH1 0x0 PUSH1 0x20 DUP4 DUP8 ADD ADD MSTORE JUMPDEST POP PUSH1 0x1F ADD PUSH1 0x1F NOT AND SWAP3 SWAP1 SWAP3 ADD PUSH1 0x20 ADD SWAP3 SWAP2 POP POP JUMP JUMPDEST PUSH1 0x20 DUP2 MSTORE PUSH1 0x0 PUSH2 0x219E PUSH1 0x20 DUP4 ADD DUP5 PUSH2 0x2344 JUMP JUMPDEST PUSH1 0x1 PUSH1 0x1 PUSH1 0xA0 SHL SUB DUP2 AND DUP2 EQ PUSH2 0xA1F JUMPI PUSH1 0x0 DUP1 REVERT JUMPDEST PUSH1 0x0 DUP1 PUSH1 0x40 DUP4 DUP6 SUB SLT ISZERO PUSH2 0x23CC JUMPI PUSH1 0x0 DUP1 REVERT JUMPDEST DUP3 CALLDATALOAD PUSH2 0x23D7 DUP2 PUSH2 0x23A4 JUMP JUMPDEST SWAP5 PUSH1 0x20 SWAP4 SWAP1 SWAP4 ADD CALLDATALOAD SWAP4 POP POP POP JUMP JUMPDEST PUSH1 0x0 PUSH1 0x20 DUP3 DUP5 SUB SLT ISZERO PUSH2 0x23F7 JUMPI PUSH1 0x0 DUP1 REVERT JUMPDEST DUP2 CALLDATALOAD PUSH2 0x219E DUP2 PUSH2 0x23A4 JUMP JUMPDEST PUSH1 0x0 DUP1 PUSH1 0x0 PUSH1 0x60 DUP5 DUP7 SUB SLT ISZERO PUSH2 0x2417 JUMPI PUSH1 0x0 DUP1 REVERT JUMPDEST DUP4 CALLDATALOAD PUSH2 0x2422 DUP2 PUSH2 0x23A4 JUMP JUMPDEST SWAP3 POP PUSH1 0x20 DUP5 ADD CALLDATALOAD PUSH2 0x2432 DUP2 PUSH2 0x23A4 JUMP JUMPDEST SWAP3 SWAP6 SWAP3 SWAP5 POP POP POP PUSH1 0x40 SWAP2 SWAP1 SWAP2 ADD CALLDATALOAD SWAP1 JUMP JUMPDEST PUSH1 0x0 PUSH1 0x20 DUP3 DUP5 SUB SLT ISZERO PUSH2 0x2455 JUMPI PUSH1 0x0 DUP1 REVERT JUMPDEST POP CALLDATALOAD SWAP2 SWAP1 POP JUMP JUMPDEST PUSH4 0x4E487B71 PUSH1 0xE0 SHL PUSH1 0x0 MSTORE PUSH1 0x41 PUSH1 0x4 MSTORE PUSH1 0x24 PUSH1 0x0 REVERT JUMPDEST PUSH1 0x40 MLOAD PUSH1 0x1F DUP3 ADD PUSH1 0x1F NOT AND DUP2 ADD PUSH8 0xFFFFFFFFFFFFFFFF DUP2 GT DUP3 DUP3 LT OR ISZERO PUSH2 0x249B JUMPI PUSH2 0x249B PUSH2 0x245C JUMP JUMPDEST PUSH1 0x40 MSTORE SWAP2 SWAP1 POP JUMP JUMPDEST PUSH1 0x0 PUSH8 0xFFFFFFFFFFFFFFFF DUP3 GT ISZERO PUSH2 0x24BD JUMPI PUSH2 0x24BD PUSH2 0x245C JUMP JUMPDEST POP PUSH1 0x5 SHL PUSH1 0x20 ADD SWAP1 JUMP JUMPDEST PUSH1 0x0 PUSH1 0x1F DUP4 DUP2 DUP5 ADD SLT PUSH2 0x24D9 JUMPI PUSH1 0x0 DUP1 REVERT JUMPDEST DUP3 CALLDATALOAD PUSH1 0x20 PUSH2 0x24EE PUSH2 0x24E9 DUP4 PUSH2 0x24A3 JUMP JUMPDEST PUSH2 0x2472 JUMP JUMPDEST DUP3 DUP2 MSTORE PUSH1 0x5 SWAP3 SWAP1 SWAP3 SHL DUP6 ADD DUP2 ADD SWAP2 DUP2 DUP2 ADD SWAP1 DUP8 DUP5 GT ISZERO PUSH2 0x250D JUMPI PUSH1 0x0 DUP1 REVERT JUMPDEST DUP3 DUP8 ADD JUMPDEST DUP5 DUP2 LT ISZERO PUSH2 0x25A4 JUMPI DUP1 CALLDATALOAD PUSH8 0xFFFFFFFFFFFFFFFF DUP1 DUP3 GT ISZERO PUSH2 0x2532 JUMPI PUSH1 0x0 DUP1 DUP2 REVERT JUMPDEST DUP2 DUP11 ADD SWAP2 POP DUP11 PUSH1 0x3F DUP4 ADD SLT PUSH2 0x2547 JUMPI PUSH1 0x0 DUP1 DUP2 REVERT JUMPDEST DUP6 DUP3 ADD CALLDATALOAD PUSH1 0x40 DUP3 DUP3 GT ISZERO PUSH2 0x255D JUMPI PUSH2 0x255D PUSH2 0x245C JUMP JUMPDEST PUSH2 0x256E DUP3 DUP12 ADD PUSH1 0x1F NOT AND DUP10 ADD PUSH2 0x2472 JUMP JUMPDEST SWAP3 POP DUP2 DUP4 MSTORE DUP13 DUP2 DUP4 DUP7 ADD ADD GT ISZERO PUSH2 0x2585 JUMPI PUSH1 0x0 DUP1 DUP2 REVERT JUMPDEST DUP2 DUP2 DUP6 ADD DUP10 DUP6 ADD CALLDATACOPY POP PUSH1 0x0 SWAP1 DUP3 ADD DUP8 ADD MSTORE DUP5 MSTORE POP SWAP2 DUP4 ADD SWAP2 DUP4 ADD PUSH2 0x2511 JUMP JUMPDEST POP SWAP8 SWAP7 POP POP POP POP POP POP POP JUMP JUMPDEST DUP1 CALLDATALOAD PUSH4 0xFFFFFFFF DUP2 AND DUP2 EQ PUSH2 0x25C4 JUMPI PUSH1 0x0 DUP1 REVERT JUMPDEST SWAP2 SWAP1 POP JUMP JUMPDEST PUSH1 0x0 PUSH1 0x60 DUP3 DUP5 SUB SLT ISZERO PUSH2 0x25DB JUMPI PUSH1 0x0 DUP1 REVERT JUMPDEST PUSH1 0x40 MLOAD PUSH1 0x60 DUP2 ADD DUP2 DUP2 LT PUSH8 0xFFFFFFFFFFFFFFFF DUP3 GT OR ISZERO PUSH2 0x25FE JUMPI PUSH2 0x25FE PUSH2 0x245C JUMP JUMPDEST PUSH1 0x40 MSTORE SWAP1 POP DUP1 PUSH2 0x260D DUP4 PUSH2 0x25B0 JUMP JUMPDEST DUP2 MSTORE PUSH2 0x261B PUSH1 0x20 DUP5 ADD PUSH2 0x25B0 JUMP JUMPDEST PUSH1 0x20 DUP3 ADD MSTORE PUSH2 0x262C PUSH1 0x40 DUP5 ADD PUSH2 0x25B0 JUMP JUMPDEST PUSH1 0x40 DUP3 ADD MSTORE POP SWAP3 SWAP2 POP POP JUMP JUMPDEST PUSH1 0x0 DUP3 PUSH1 0x1F DUP4 ADD SLT PUSH2 0x2649 JUMPI PUSH1 0x0 DUP1 REVERT JUMPDEST DUP2 CALLDATALOAD PUSH1 0x20 PUSH2 0x2659 PUSH2 0x24E9 DUP4 PUSH2 0x24A3 JUMP JUMPDEST DUP3 DUP2 MSTORE PUSH1 0x5 SWAP3 SWAP1 SWAP3 SHL DUP5 ADD DUP2 ADD SWAP2 DUP2 DUP2 ADD SWAP1 DUP7 DUP5 GT ISZERO PUSH2 0x2678 JUMPI PUSH1 0x0 DUP1 REVERT JUMPDEST DUP3 DUP7 ADD JUMPDEST DUP5 DUP2 LT ISZERO PUSH2 0x269C JUMPI DUP1 CALLDATALOAD PUSH2 0x268F DUP2 PUSH2 0x23A4 JUMP JUMPDEST DUP4 MSTORE SWAP2 DUP4 ADD SWAP2 DUP4 ADD PUSH2 0x267C JUMP JUMPDEST POP SWAP7 SWAP6 POP POP POP POP POP POP JUMP JUMPDEST PUSH1 0x0 DUP3 PUSH1 0x1F DUP4 ADD SLT PUSH2 0x26B8 JUMPI PUSH1 0x0 DUP1 REVERT JUMPDEST DUP2 CALLDATALOAD PUSH1 0x20 PUSH2 0x26C8 PUSH2 0x24E9 DUP4 PUSH2 0x24A3 JUMP JUMPDEST DUP3 DUP2 MSTORE PUSH1 0x5 SWAP3 SWAP1 SWAP3 SHL DUP5 ADD DUP2 ADD SWAP2 DUP2 DUP2 ADD SWAP1 DUP7 DUP5 GT ISZERO PUSH2 0x26E7 JUMPI PUSH1 0x0 DUP1 REVERT JUMPDEST DUP3 DUP7 ADD JUMPDEST DUP5 DUP2 LT ISZERO PUSH2 0x269C JUMPI DUP1 CALLDATALOAD PUSH1 0x1 PUSH1 0x1 PUSH1 0x80 SHL SUB DUP2 AND DUP2 EQ PUSH2 0x270B JUMPI PUSH1 0x0 DUP1 DUP2 REVERT JUMPDEST DUP4 MSTORE SWAP2 DUP4 ADD SWAP2 DUP4 ADD PUSH2 0x26EB JUMP JUMPDEST PUSH1 0x0 DUP3 PUSH1 0x1F DUP4 ADD SLT PUSH2 0x2729 JUMPI PUSH1 0x0 DUP1 REVERT JUMPDEST DUP2 CALLDATALOAD PUSH1 0x20 PUSH2 0x2739 PUSH2 0x24E9 DUP4 PUSH2 0x24A3 JUMP JUMPDEST DUP3 DUP2 MSTORE PUSH1 0x5 SWAP3 SWAP1 SWAP3 SHL DUP5 ADD DUP2 ADD SWAP2 DUP2 DUP2 ADD SWAP1 DUP7 DUP5 GT ISZERO PUSH2 0x2758 JUMPI PUSH1 0x0 DUP1 REVERT JUMPDEST DUP3 DUP7 ADD JUMPDEST DUP5 DUP2 LT ISZERO PUSH2 0x269C JUMPI DUP1 CALLDATALOAD DUP4 MSTORE SWAP2 DUP4 ADD SWAP2 DUP4 ADD PUSH2 0x275C JUMP JUMPDEST PUSH1 0x0 DUP1 PUSH1 0x0 DUP1 PUSH1 0x0 DUP1 PUSH2 0x100 DUP8 DUP10 SUB SLT ISZERO PUSH2 0x278D JUMPI PUSH1 0x0 DUP1 REVERT JUMPDEST DUP7 CALLDATALOAD PUSH8 0xFFFFFFFFFFFFFFFF DUP1 DUP3 GT ISZERO PUSH2 0x27A5 JUMPI PUSH1 0x0 DUP1 REVERT JUMPDEST PUSH2 0x27B1 DUP11 DUP4 DUP12 ADD PUSH2 0x24C7 JUMP JUMPDEST SWAP8 POP PUSH2 0x27C0 DUP11 PUSH1 0x20 DUP12 ADD PUSH2 0x25C9 JUMP JUMPDEST SWAP7 POP PUSH1 0x80 DUP10 ADD CALLDATALOAD SWAP2 POP DUP1 DUP3 GT ISZERO PUSH2 0x27D6 JUMPI PUSH1 0x0 DUP1 REVERT JUMPDEST PUSH2 0x27E2 DUP11 DUP4 DUP12 ADD PUSH2 0x2638 JUMP JUMPDEST SWAP6 POP PUSH1 0xA0 DUP10 ADD CALLDATALOAD SWAP2 POP DUP1 DUP3 GT ISZERO PUSH2 0x27F8 JUMPI PUSH1 0x0 DUP1 REVERT JUMPDEST PUSH2 0x2804 DUP11 DUP4 DUP12 ADD PUSH2 0x26A7 JUMP JUMPDEST SWAP5 POP PUSH1 0xC0 DUP10 ADD CALLDATALOAD SWAP2 POP DUP1 DUP3 GT ISZERO PUSH2 0x281A JUMPI PUSH1 0x0 DUP1 REVERT JUMPDEST PUSH2 0x2826 DUP11 DUP4 DUP12 ADD PUSH2 0x2638 JUMP JUMPDEST SWAP4 POP PUSH1 0xE0 DUP10 ADD CALLDATALOAD SWAP2 POP DUP1 DUP3 GT ISZERO PUSH2 0x283C JUMPI PUSH1 0x0 DUP1 REVERT JUMPDEST POP PUSH2 0x2849 DUP10 DUP3 DUP11 ADD PUSH2 0x2718 JUMP JUMPDEST SWAP2 POP POP SWAP3 SWAP6 POP SWAP3 SWAP6 POP SWAP3 SWAP6 JUMP JUMPDEST PUSH1 0x20 DUP1 DUP3 MSTORE DUP3 MLOAD DUP3 DUP3 ADD DUP2 SWAP1 MSTORE PUSH1 0x0 SWAP2 SWAP1 DUP5 DUP3 ADD SWAP1 PUSH1 0x40 DUP6 ADD SWAP1 DUP5 JUMPDEST DUP2 DUP2 LT ISZERO PUSH2 0x2890 JUMPI DUP4 MLOAD ISZERO ISZERO DUP4 MSTORE SWAP3 DUP5 ADD SWAP3 SWAP2 DUP5 ADD SWAP2 PUSH1 0x1 ADD PUSH2 0x2872 JUMP JUMPDEST POP SWAP1 SWAP7 SWAP6 POP POP POP POP POP POP JUMP JUMPDEST PUSH1 0x0 DUP2 MLOAD DUP1 DUP5 MSTORE PUSH1 0x20 DUP1 DUP6 ADD SWAP5 POP DUP1 DUP5 ADD PUSH1 0x0 JUMPDEST DUP4 DUP2 LT ISZERO PUSH2 0x28CC JUMPI DUP2 MLOAD DUP8 MSTORE SWAP6 DUP3 ADD SWAP6 SWAP1 DUP3 ADD SWAP1 PUSH1 0x1 ADD PUSH2 0x28B0 JUMP JUMPDEST POP SWAP5 SWAP6 SWAP5 POP POP POP POP POP JUMP JUMPDEST PUSH1 0x20 DUP2 MSTORE PUSH1 0x0 PUSH2 0x219E PUSH1 0x20 DUP4 ADD DUP5 PUSH2 0x289C JUMP JUMPDEST PUSH1 0xFF DUP2 AND DUP2 EQ PUSH2 0xA1F JUMPI PUSH1 0x0 DUP1 REVERT JUMPDEST PUSH1 0x0 DUP1 PUSH1 0x0 DUP1 PUSH1 0x0 DUP1 PUSH1 0x0 PUSH1 0xE0 DUP9 DUP11 SUB SLT ISZERO PUSH2 0x2914 JUMPI PUSH1 0x0 DUP1 REVERT JUMPDEST DUP8 CALLDATALOAD PUSH2 0x291F DUP2 PUSH2 0x23A4 JUMP JUMPDEST SWAP7 POP PUSH1 0x20 DUP9 ADD CALLDATALOAD PUSH2 0x292F DUP2 PUSH2 0x23A4 JUMP JUMPDEST SWAP6 POP PUSH1 0x40 DUP9 ADD CALLDATALOAD SWAP5 POP PUSH1 0x60 DUP9 ADD CALLDATALOAD SWAP4 POP PUSH1 0x80 DUP9 ADD CALLDATALOAD PUSH2 0x294D DUP2 PUSH2 0x28EA JUMP JUMPDEST SWAP7 SWAP10 SWAP6 SWAP9 POP SWAP4 SWAP7 SWAP3 SWAP6 SWAP5 PUSH1 0xA0 DUP5 ADD CALLDATALOAD SWAP5 POP PUSH1 0xC0 SWAP1 SWAP4 ADD CALLDATALOAD SWAP3 SWAP2 POP POP JUMP JUMPDEST PUSH1 0x0 DUP1 PUSH1 0x40 DUP4 DUP6 SUB SLT ISZERO PUSH2 0x297D JUMPI PUSH1 0x0 DUP1 REVERT JUMPDEST DUP3 CALLDATALOAD PUSH2 0x2988 DUP2 PUSH2 0x23A4 JUMP JUMPDEST SWAP2 POP PUSH1 0x20 DUP4 ADD CALLDATALOAD PUSH2 0x2998 DUP2 PUSH2 0x23A4 JUMP JUMPDEST DUP1 SWAP2 POP POP SWAP3 POP SWAP3 SWAP1 POP JUMP JUMPDEST DUP1 ISZERO ISZERO DUP2 EQ PUSH2 0xA1F JUMPI PUSH1 0x0 DUP1 REVERT JUMPDEST PUSH1 0x0 DUP1 PUSH1 0x40 DUP4 DUP6 SUB SLT ISZERO PUSH2 0x29C4 JUMPI PUSH1 0x0 DUP1 REVERT JUMPDEST DUP3 CALLDATALOAD PUSH2 0x29CF DUP2 PUSH2 0x23A4 JUMP JUMPDEST SWAP2 POP PUSH1 0x20 DUP4 ADD CALLDATALOAD PUSH2 0x2998 DUP2 PUSH2 0x29A3 JUMP JUMPDEST PUSH1 0x1 DUP2 DUP2 SHR SWAP1 DUP3 AND DUP1 PUSH2 0x29F3 JUMPI PUSH1 0x7F DUP3 AND SWAP2 POP JUMPDEST PUSH1 0x20 DUP3 LT DUP2 EQ ISZERO PUSH2 0x2A14 JUMPI PUSH4 0x4E487B71 PUSH1 0xE0 SHL PUSH1 0x0 MSTORE PUSH1 0x22 PUSH1 0x4 MSTORE PUSH1 0x24 PUSH1 0x0 REVERT JUMPDEST POP SWAP2 SWAP1 POP JUMP JUMPDEST PUSH4 0x4E487B71 PUSH1 0xE0 SHL PUSH1 0x0 MSTORE PUSH1 0x11 PUSH1 0x4 MSTORE PUSH1 0x24 PUSH1 0x0 REVERT JUMPDEST PUSH1 0x0 DUP3 DUP3 LT ISZERO PUSH2 0x2A42 JUMPI PUSH2 0x2A42 PUSH2 0x2A1A JUMP JUMPDEST POP SUB SWAP1 JUMP JUMPDEST PUSH1 0x0 DUP2 PUSH1 0x0 NOT DIV DUP4 GT DUP3 ISZERO ISZERO AND ISZERO PUSH2 0x2A61 JUMPI PUSH2 0x2A61 PUSH2 0x2A1A JUMP JUMPDEST POP MUL SWAP1 JUMP JUMPDEST PUSH1 0x0 DUP3 PUSH2 0x2A83 JUMPI PUSH4 0x4E487B71 PUSH1 0xE0 SHL PUSH1 0x0 MSTORE PUSH1 0x12 PUSH1 0x4 MSTORE PUSH1 0x24 PUSH1 0x0 REVERT JUMPDEST POP DIV SWAP1 JUMP JUMPDEST PUSH1 0x0 DUP3 NOT DUP3 GT ISZERO PUSH2 0x2A9B JUMPI PUSH2 0x2A9B PUSH2 0x2A1A JUMP JUMPDEST POP ADD SWAP1 JUMP JUMPDEST PUSH1 0x0 PUSH1 0x20 DUP3 DUP5 SUB SLT ISZERO PUSH2 0x2AB2 JUMPI PUSH1 0x0 DUP1 REVERT JUMPDEST DUP2 MLOAD PUSH2 0x219E DUP2 PUSH2 0x29A3 JUMP JUMPDEST PUSH4 0x4E487B71 PUSH1 0xE0 SHL PUSH1 0x0 MSTORE PUSH1 0x32 PUSH1 0x4 MSTORE PUSH1 0x24 PUSH1 0x0 REVERT JUMPDEST PUSH1 0x0 PUSH1 0x20 DUP3 DUP5 SUB SLT ISZERO PUSH2 0x2AE5 JUMPI PUSH1 0x0 DUP1 REVERT JUMPDEST DUP2 MLOAD PUSH2 0x219E DUP2 PUSH2 0x28EA JUMP JUMPDEST PUSH1 0x1 DUP2 DUP2 JUMPDEST DUP1 DUP6 GT ISZERO PUSH2 0x2B2B JUMPI DUP2 PUSH1 0x0 NOT DIV DUP3 GT ISZERO PUSH2 0x2B11 JUMPI PUSH2 0x2B11 PUSH2 0x2A1A JUMP JUMPDEST DUP1 DUP6 AND ISZERO PUSH2 0x2B1E JUMPI SWAP2 DUP2 MUL SWAP2 JUMPDEST SWAP4 DUP5 SHR SWAP4 SWAP1 DUP1 MUL SWAP1 PUSH2 0x2AF5 JUMP JUMPDEST POP SWAP3 POP SWAP3 SWAP1 POP JUMP JUMPDEST PUSH1 0x0 DUP3 PUSH2 0x2B42 JUMPI POP PUSH1 0x1 PUSH2 0x776 JUMP JUMPDEST DUP2 PUSH2 0x2B4F JUMPI POP PUSH1 0x0 PUSH2 0x776 JUMP JUMPDEST DUP2 PUSH1 0x1 DUP2 EQ PUSH2 0x2B65 JUMPI PUSH1 0x2 DUP2 EQ PUSH2 0x2B6F JUMPI PUSH2 0x2B8B JUMP JUMPDEST PUSH1 0x1 SWAP2 POP POP PUSH2 0x776 JUMP JUMPDEST PUSH1 0xFF DUP5 GT ISZERO PUSH2 0x2B80 JUMPI PUSH2 0x2B80 PUSH2 0x2A1A JUMP JUMPDEST POP POP PUSH1 0x1 DUP3 SHL PUSH2 0x776 JUMP JUMPDEST POP PUSH1 0x20 DUP4 LT PUSH2 0x133 DUP4 LT AND PUSH1 0x4E DUP5 LT PUSH1 0xB DUP5 LT AND OR ISZERO PUSH2 0x2BAE JUMPI POP DUP2 DUP2 EXP PUSH2 0x776 JUMP JUMPDEST PUSH2 0x2BB8 DUP4 DUP4 PUSH2 0x2AF0 JUMP JUMPDEST DUP1 PUSH1 0x0 NOT DIV DUP3 GT ISZERO PUSH2 0x2BCC JUMPI PUSH2 0x2BCC PUSH2 0x2A1A JUMP JUMPDEST MUL SWAP4 SWAP3 POP POP POP JUMP JUMPDEST PUSH1 0x0 PUSH2 0x219E PUSH1 0xFF DUP5 AND DUP4 PUSH2 0x2B33 JUMP JUMPDEST PUSH1 0x0 PUSH1 0x0 NOT DUP3 EQ ISZERO PUSH2 0x2BF7 JUMPI PUSH2 0x2BF7 PUSH2 0x2A1A JUMP JUMPDEST POP PUSH1 0x1 ADD SWAP1 JUMP JUMPDEST PUSH1 0x0 PUSH4 0xFFFFFFFF DUP1 DUP4 AND DUP2 DUP6 AND DUP1 DUP4 SUB DUP3 GT ISZERO PUSH2 0x2C1D JUMPI PUSH2 0x2C1D PUSH2 0x2A1A JUMP JUMPDEST ADD SWAP5 SWAP4 POP POP POP POP JUMP JUMPDEST PUSH1 0x0 DUP2 MLOAD DUP1 DUP5 MSTORE PUSH1 0x20 DUP1 DUP6 ADD SWAP5 POP DUP1 DUP5 ADD PUSH1 0x0 JUMPDEST DUP4 DUP2 LT ISZERO PUSH2 0x28CC JUMPI DUP2 MLOAD PUSH1 0x1 PUSH1 0x1 PUSH1 0xA0 SHL SUB AND DUP8 MSTORE SWAP6 DUP3 ADD SWAP6 SWAP1 DUP3 ADD SWAP1 PUSH1 0x1 ADD PUSH2 0x2C3A JUMP JUMPDEST PUSH1 0x0 DUP2 MLOAD DUP1 DUP5 MSTORE PUSH1 0x20 DUP1 DUP6 ADD SWAP5 POP DUP1 DUP5 ADD PUSH1 0x0 JUMPDEST DUP4 DUP2 LT ISZERO PUSH2 0x28CC JUMPI DUP2 MLOAD PUSH1 0x1 PUSH1 0x1 PUSH1 0x80 SHL SUB AND DUP8 MSTORE SWAP6 DUP3 ADD SWAP6 SWAP1 DUP3 ADD SWAP1 PUSH1 0x1 ADD PUSH2 0x2C73 JUMP JUMPDEST PUSH1 0xE0 DUP1 DUP3 MSTORE DUP9 MLOAD SWAP1 DUP3 ADD DUP2 SWAP1 MSTORE PUSH1 0x0 SWAP1 PUSH2 0x100 PUSH1 0x5 DUP3 SWAP1 SHL DUP5 ADD DUP2 ADD SWAP2 SWAP1 DUP5 ADD SWAP1 PUSH1 0x20 DUP1 DUP14 ADD DUP6 JUMPDEST DUP4 DUP2 LT ISZERO PUSH2 0x2CEE JUMPI PUSH1 0xFF NOT DUP9 DUP8 SUB ADD DUP6 MSTORE PUSH2 0x2CDC DUP7 DUP4 MLOAD PUSH2 0x2344 JUMP JUMPDEST SWAP6 POP SWAP4 DUP3 ADD SWAP4 SWAP1 DUP3 ADD SWAP1 PUSH1 0x1 ADD PUSH2 0x2CC0 JUMP JUMPDEST POP POP DUP6 DUP5 SUB DUP2 DUP8 ADD MSTORE POP POP POP PUSH2 0x2D04 DUP2 DUP11 PUSH2 0x2C26 JUMP JUMPDEST SWAP1 POP DUP3 DUP2 SUB PUSH1 0x40 DUP5 ADD MSTORE PUSH2 0x2D18 DUP2 DUP10 PUSH2 0x2C5F JUMP JUMPDEST SWAP1 POP DUP3 DUP2 SUB PUSH1 0x60 DUP5 ADD MSTORE PUSH2 0x2D2C DUP2 DUP9 PUSH2 0x2C26 JUMP JUMPDEST SWAP1 POP DUP3 DUP2 SUB PUSH1 0x80 DUP5 ADD MSTORE PUSH2 0x2D40 DUP2 DUP8 PUSH2 0x289C JUMP JUMPDEST SWAP2 POP POP PUSH2 0x2D55 PUSH1 0xA0 DUP4 ADD DUP6 PUSH4 0xFFFFFFFF AND SWAP1 MSTORE JUMP JUMPDEST PUSH4 0xFFFFFFFF DUP4 AND PUSH1 0xC0 DUP4 ADD MSTORE SWAP9 SWAP8 POP POP POP POP POP POP POP POP JUMP JUMPDEST PUSH1 0x0 PUSH1 0x20 DUP3 DUP5 SUB SLT ISZERO PUSH2 0x2D7F JUMPI PUSH1 0x0 DUP1 REVERT JUMPDEST POP MLOAD SWAP2 SWAP1 POP JUMP JUMPDEST PUSH1 0x1 DUP1 PUSH1 0xA0 SHL SUB DUP6 AND DUP2 MSTORE DUP4 PUSH1 0x20 DUP3 ADD MSTORE PUSH1 0x80 PUSH1 0x40 DUP3 ADD MSTORE PUSH1 0x0 PUSH2 0x2DAD PUSH1 0x80 DUP4 ADD DUP6 PUSH2 0x2C26 JUMP JUMPDEST DUP3 DUP2 SUB PUSH1 0x60 DUP5 ADD MSTORE PUSH2 0x2DBF DUP2 DUP6 PUSH2 0x289C JUMP JUMPDEST SWAP8 SWAP7 POP POP POP POP POP POP POP JUMP JUMPDEST PUSH1 0x0 DUP1 DUP4 SLOAD DUP2 PUSH1 0x1 DUP3 DUP2 SHR SWAP2 POP DUP1 DUP4 AND DUP1 PUSH2 0x2DE6 JUMPI PUSH1 0x7F DUP4 AND SWAP3 POP JUMPDEST PUSH1 0x20 DUP1 DUP5 LT DUP3 EQ ISZERO PUSH2 0x2E06 JUMPI PUSH4 0x4E487B71 PUSH1 0xE0 SHL DUP7 MSTORE PUSH1 0x22 PUSH1 0x4 MSTORE PUSH1 0x24 DUP7 REVERT JUMPDEST DUP2 DUP1 ISZERO PUSH2 0x2E1A JUMPI PUSH1 0x1 DUP2 EQ PUSH2 0x2E2B JUMPI PUSH2 0x2E58 JUMP JUMPDEST PUSH1 0xFF NOT DUP7 AND DUP10 MSTORE DUP5 DUP10 ADD SWAP7 POP PUSH2 0x2E58 JUMP JUMPDEST PUSH1 0x0 DUP11 DUP2 MSTORE PUSH1 0x20 SWAP1 KECCAK256 PUSH1 0x0 JUMPDEST DUP7 DUP2 LT ISZERO PUSH2 0x2E50 JUMPI DUP2 SLOAD DUP12 DUP3 ADD MSTORE SWAP1 DUP6 ADD SWAP1 DUP4 ADD PUSH2 0x2E37 JUMP JUMPDEST POP POP DUP5 DUP10 ADD SWAP7 POP JUMPDEST POP SWAP5 SWAP9 SWAP8 POP POP POP POP POP POP POP POP JUMP JUMPDEST PUSH1 0x0 PUSH4 0xFFFFFFFF DUP4 DUP2 AND SWAP1 DUP4 AND DUP2 DUP2 LT ISZERO PUSH2 0x2E83 JUMPI PUSH2 0x2E83 PUSH2 0x2A1A JUMP JUMPDEST SUB SWAP4 SWAP3 POP POP POP JUMP INVALID 0xDD CALLCODE MSTORE 0xAD SHL 0xE2 0xC8 SWAP12 PUSH10 0xC2B068FC378DAA952BA7 CALL PUSH4 0xC4A11628 CREATE2 GAS 0x4D CREATE2 0x23 0xB3 0xEF LOG2 PUSH5 0x6970667358 0x22 SLT KECCAK256 0x2F LOG2 0xB8 0xCE 0xE 0xD SLOAD 0xD1 0xE3 0xFC 0xE7 0xDA NUMBER 0x26 0xDE CALLDATALOAD STOP 0xD2 0x4D DUP16 PUSH14 0x798B9F6CC4DB1EB482F93D64736F PUSH13 0x634300080A0033000000000000 ",
  "sha1": "4c154d6f92cedfd3275dd0e39569b354e4a092e7",
  "source": "pragma solidity ^0.8.0;\n\nimport \"../interfaces/IBuidlCollective.sol\";\nimport {ERC20} from \"./solmate/src/tokens/ERC20.sol\";\n\ncontract BuidlCollective is ERC20, IBuidlCollective {\n    //using SafeERC20 for ERC20;\n    bool collectiveStarted;\n    bool collectiveInitialized;\n    string[] public namesOfParticipants;\n    uint256 public noOfTokens;\n    struct Collective {\n        uint32 vestingTime;\n        uint32 cliff;\n        uint32 collectiveStart;\n    }\n    // tokenInfo\n    address[] public tokens;\n\n    mapping(address => TokenInfo) public tokenInfo;\n\n    address public admin;\n\n    struct TokenInfo {\n        uint256 target;\n        uint128 price;\n        address user;\n    }\n\n    uint256 public totalAssets;\n    // keep track of tokenBalances\n    //mapping(address => uint256) tokenBalances;\n\n    Collective public collectiveInfo;\n\n    ///////////////////////////////////////////\n    // Staking Logic\n    uint32 public constant BP = 10000;\n    uint256 public constant VEST_MULTIPLIER = 10 ** 18;\n    mapping(address => UserInfo) public userInfo;\n    // timestamp\n    uint256 public lastCheckpoint;\n    // a checkpoint number based on percentageStaked(bp) * every second passed\n    uint256 public lastTWAP;\n    // totalStaked in percetnage(bp)\n    uint256 public totalStaked;\n    uint256 public releaseFactor = 86400 * 3;\n\n    struct UserInfo {\n        // percentage(bp) in VEST_MULTIPLIER\n        uint256 depositedShare;\n        // last TWAP during stake/unstake/claim\n        uint256 lastCheckpointTWAP;\n        // last timestamp during stake/unstake/claim\n        uint256 lastCheckpointTime;\n        // last percentageVested during stake/unstake/claim\n        uint256 lastCheckpointPercentageVested;\n    }\n\n    modifier onlyAdmin() {\n        require(msg.sender == admin);\n        _;\n    }\n\n    constructor(\n        string memory _name,\n        string memory _symbol,\n        uint8 _decimals\n    ) ERC20(_name, _symbol, _decimals) {\n        admin = msg.sender;\n        emit LogNewAdmin(admin);\n    }\n\n    //////////////////////////////////////////// SETTERS\n    // ADMIN FUNCTION //\n    // assumptions - 1 wallet => 1 token => 1 price\n    // TODO: change name and symbol of token => name of collective\n    // TODO: pass deployer, set deployer as new admin of contract (this is for proxy)\n    function initialize(\n        string[] memory _namesOfParticipants,\n        Collective memory _collectiveInfo,\n        address[] memory _tokens,\n        uint128[] memory _prices,\n        address[] memory _users,\n        uint256[] memory _targets\n    ) external {\n        require(collectiveInitialized == false);\n        collectiveInitialized = true;\n        admin = msg.sender;\n        collectiveInfo = _collectiveInfo;\n        collectiveInfo.collectiveStart = 0;\n        uint256 tokenLength = _tokens.length;\n        for (uint256 i = 0; i < tokenLength; i++) {\n            namesOfParticipants.push(_namesOfParticipants[i]);\n            TokenInfo memory t = TokenInfo(_targets[i], _prices[i], _users[i]);\n            tokenInfo[_tokens[i]] = t;\n            tokens.push(_tokens[i]);\n        }\n        noOfTokens = tokens.length;\n        emit LogNewCollectiveInitialized(\n            _namesOfParticipants,\n            _tokens,\n            _prices,\n            _users,\n            _targets,\n            collectiveInfo.cliff,\n            collectiveInfo.vestingTime\n        );\n    }\n\n    // before startCollective, cancel the collective\n    function cancel(address payable to) external onlyAdmin {\n        require(collectiveStarted == false);\n        selfdestruct(to);\n    }\n\n    function updateAdmin(address _newAdmin) external onlyAdmin {\n        admin = _newAdmin;\n        emit LogNewAdmin(_newAdmin);\n    }\n\n    function startCollective() external onlyAdmin {\n        require(collectiveStarted == false);\n        collectiveStarted = true;\n        address[] memory _tokens = tokens;\n        TokenInfo memory _tokenInfo;\n        uint256 _totalAssets;\n        for (uint256 i; i < _tokens.length; i++) {\n            _tokenInfo = tokenInfo[_tokens[i]];\n            uint256 target = _tokenInfo.target;\n            address contributor = _tokenInfo.user;\n            uint128 price = _tokenInfo.price;\n            ERC20(_tokens[i]).transferFrom(contributor, address(this), target);\n            // @TODO assetValue in price(128) / divided 10 ** 8\n            // @TODO need to take native decimals into account - target * our decimal / their decimals * price\n            //uint256 assetValue = target * price;\n            uint256 assetValue = (target * price * 10 ** 18) /\n                10 ** ERC20(_tokens[i]).decimals();\n            _totalAssets += assetValue;\n            _mint(contributor, assetValue);\n        }\n        collectiveInfo.collectiveStart = uint32(block.timestamp);\n        lastCheckpoint = collectiveInfo.collectiveStart + collectiveInfo.cliff;\n        totalAssets = _totalAssets;\n        emit LogNewPoolInitialized(block.timestamp);\n    }\n\n    //////////\n    //////////////////////////////////////////////////////////////////////////////////////////////\n    // VIEW FUNCTION\n    // return adddress, targetSupply, price, contributor.\n    function readToken(\n        uint256 _tokenId\n    ) public view returns (address, TokenInfo memory) {\n        address tokenAddr = tokens[_tokenId];\n        return (tokenAddr, tokenInfo[tokenAddr]);\n    }\n\n    // return if tokens approval is completed for each tokens\n    function pokeApproval() public view returns (bool[] memory) {\n        bool[] memory approvals = new bool[](tokens.length);\n        address contributor;\n        uint256 allowance;\n        for (uint256 i; i < tokens.length; i++) {\n            contributor = tokenInfo[tokens[i]].user;\n            allowance = ERC20(tokens[i]).allowance(contributor, address(this));\n            if (allowance >= tokenInfo[tokens[i]].target) {\n                approvals[i] = true;\n            } else {\n                approvals[i] = false;\n            }\n        }\n        return approvals;\n    }\n\n    ///////////////////////////// STAKING LOGIC\n\n    modifier updateCheckpoint() {\n        if (block.timestamp > lastCheckpoint) {\n            lastTWAP +=\n                (totalStaked * BP * (block.timestamp - lastCheckpoint)) /\n                totalAssets;\n            lastCheckpoint = block.timestamp;\n            _;\n        } else {\n            _;\n        }\n    }\n\n    function stake(uint256 _assetValue) external updateCheckpoint {\n        address from = msg.sender;\n        address to = address(this);\n\n        require(balanceOf[from] >= _assetValue, \"USER BALANCE NOT ENOUGH\");\n        // Cannot overflow because the sum of all user\n        // balances can't exceed the max uint256 value.\n        unchecked {\n            balanceOf[from] -= _assetValue;\n            balanceOf[to] += _assetValue;\n        }\n\n        uint256 _depositedShare = (_assetValue * BP * VEST_MULTIPLIER) /\n            totalAssets;\n        uint256 _lastCheckpointTWAP = lastTWAP;\n        uint256 _lastCheckpointTime = block.timestamp;\n        uint256 _lastCheckpointPercentageVested = getVestingPercent();\n        UserInfo memory _stakePosition = UserInfo(\n            _depositedShare,\n            _lastCheckpointTWAP,\n            _lastCheckpointTime,\n            _lastCheckpointPercentageVested\n        );\n        userInfo[msg.sender] = _stakePosition;\n        totalStaked += _assetValue;\n        emit Transfer(from, to, _assetValue);\n        emit LogTokensStaked(\n            msg.sender,\n            _assetValue,\n            _depositedShare,\n            _lastCheckpointTWAP,\n            _lastCheckpointTime,\n            _lastCheckpointPercentageVested\n        );\n    }\n\n    function unstake(uint256 _assetValueLeft) external updateCheckpoint {\n        _claim(msg.sender);\n        uint256 p = (_assetValueLeft * BP * VEST_MULTIPLIER) / totalAssets;\n        require(\n            p < userInfo[msg.sender].depositedShare,\n            \"UNSTAKE AMOUNT TOO BIG\"\n        );\n        userInfo[msg.sender].depositedShare -= p;\n        ERC20(address(this)).transfer(msg.sender, _assetValueLeft);\n        emit LogTokensUnstaked(msg.sender, _assetValueLeft);\n    }\n\n    function unstakeAll() external updateCheckpoint {\n        if (userInfo[msg.sender].depositedShare == 0) return;\n        _claim(msg.sender);\n        uint256 assetValue = (userInfo[msg.sender].depositedShare *\n            totalAssets) /\n            VEST_MULTIPLIER /\n            BP;\n        ERC20(address(this)).transfer(msg.sender, assetValue);\n        emit LogTokensUnstaked(msg.sender, assetValue);\n    }\n\n    function claim() external updateCheckpoint {\n        _claim(msg.sender);\n    }\n\n    function _claim(address user) internal returns (uint256 share) {\n        // @TODO BP and VEST_MULTIPLIER\n        uint256 share = calculateShareToClaim(user, true);\n        address[] memory _tokens = tokens;\n        uint256[] memory amounts = new uint256[](_tokens.length);\n        if (share > 0) {\n            userInfo[user].lastCheckpointTWAP = lastTWAP;\n            userInfo[user].lastCheckpointPercentageVested = getVestingPercent();\n            userInfo[user].lastCheckpointTime = block.timestamp;\n            userInfo[user].depositedShare -= share;\n            uint256 shareToBurn = (share * totalAssets) / VEST_MULTIPLIER;\n            uint256 assetValue = shareToBurn / BP;\n            _burn(address(this), assetValue);\n            for (uint256 i = 0; i < _tokens.length; i++) {\n                uint256 amount = convertShareToToken(share, i);\n                amounts[i] = amount;\n                ERC20(_tokens[i]).transfer(user, amount);\n            }\n            emit LogTokensClaimed(user, share, _tokens, amounts);\n        }\n    }\n\n    function convertShareToToken(\n        uint256 share,\n        uint256 tokenId\n    ) internal view returns (uint256) {\n        require(tokenId < tokens.length, \"tokenId OUT OF BOUND\");\n        return\n            (tokenInfo[tokens[tokenId]].target * share) / VEST_MULTIPLIER / BP;\n    }\n\n    // function vestedMultiplier(address user) internal view returns(uint256) {\n    //     uint256 elapsedTime = block.timestamp - UserInfo[user].lastCheckpointTime;\n    //     uint256 elapsedTWAP = lastTWAP - UserInfo[user].lastTWAP;\n    //     uint256 avgPercentage = elapsedTWAP / elapsedTime;\n    //     return VEST_MULTIPLIER * BP / avgPercentage;\n    // }\n    // return the share(% but in BP) to be claimed by user, multiplier by 10 ** 8\n\n    function getClaimable(address user) public view returns (uint256[] memory) {\n        uint256 share = calculateShareToClaim(user, false);\n        uint256[] memory _claimables = new uint256[](tokens.length);\n        for (uint256 i = 0; i < tokens.length; i++) {\n            _claimables[i] = convertShareToToken(share, i);\n        }\n\n        return _claimables;\n    }\n\n    // this would reflect elapsedTWAP with latestTWAP + block.timestamp\n    // updated = true means updateCheckpoint is run aldy;\n    // updated = false means updateCheckpoint is not run and need to factor latest time pass\n    function calculateShareToClaim(\n        address user,\n        bool updated\n    ) public view returns (uint256) {\n        if (block.timestamp <= userInfo[user].lastCheckpointTime) return 0;\n        uint256 elapsedTime = block.timestamp -\n            userInfo[user].lastCheckpointTime;\n        uint256 elapsedVestingPercentage = getVestingPercent() -\n            userInfo[user].lastCheckpointPercentageVested;\n        // stakedAvg\n        uint256 elapsedTWAP;\n        if (updated) {\n            elapsedTWAP = lastTWAP - userInfo[user].lastCheckpointTWAP;\n        } else {\n            elapsedTWAP =\n                lastTWAP -\n                userInfo[user].lastCheckpointTWAP +\n                (totalStaked * BP * (block.timestamp - lastCheckpoint)) /\n                totalAssets;\n        }\n        uint256 avgPercentageStaked = elapsedTWAP / elapsedTime;\n        if (avgPercentageStaked == 0) return 0;\n        // user's percentage out of allStaked during the period\n        uint256 userShareOfStaked = (userInfo[user].depositedShare * BP) /\n            avgPercentageStaked;\n        // user can get elapsedAmount\n        uint256 userEntitlement = (elapsedVestingPercentage *\n            userShareOfStaked) / BP;\n\n        if (elapsedTime >= releaseFactor) {\n            return userEntitlement;\n        } else {\n            return (userEntitlement * elapsedTime) / releaseFactor;\n        }\n    }\n\n    ///////////////////////////// VESTING LOGIC\n    function getVestingPercent() internal view returns (uint256) {\n        uint32 startTime = collectiveInfo.collectiveStart;\n        if (startTime == 0) return 0;\n        uint32 vestingTime = collectiveInfo.vestingTime;\n        uint32 timePassed = uint32(block.timestamp) - startTime;\n        if (vestingTime <= timePassed) return BP;\n        if (timePassed <= collectiveInfo.cliff) return 0;\n        return (uint256(timePassed) * BP) / uint256(vestingTime);\n    }\n}\n",
  "sourcePath": "contracts/BuidlCollective.sol",
  "type": "contract"
}