{
  "abi": [
    {
      "inputs": [
        {
          "internalType": "string",
          "name": "_name",
          "type": "string"
        },
        {
          "internalType": "string",
          "name": "_symbol",
          "type": "string"
        },
        {
          "internalType": "uint8",
          "name": "_decimals",
          "type": "uint8"
        }
      ],
      "stateMutability": "nonpayable",
      "type": "constructor"
    },
    {
      "anonymous": false,
      "inputs": [
        {
          "indexed": true,
          "internalType": "address",
          "name": "owner",
          "type": "address"
        },
        {
          "indexed": true,
          "internalType": "address",
          "name": "spender",
          "type": "address"
        },
        {
          "indexed": false,
          "internalType": "uint256",
          "name": "amount",
          "type": "uint256"
        }
      ],
      "name": "Approval",
      "type": "event"
    },
    {
      "anonymous": false,
      "inputs": [],
      "name": "CollectiveConfirmed",
      "type": "event"
    },
    {
      "anonymous": false,
      "inputs": [
        {
          "indexed": false,
          "internalType": "address",
          "name": "user",
          "type": "address"
        },
        {
          "indexed": false,
          "internalType": "uint256",
          "name": "share",
          "type": "uint256"
        },
        {
          "indexed": false,
          "internalType": "address[]",
          "name": "tokens",
          "type": "address[]"
        },
        {
          "indexed": false,
          "internalType": "uint256[]",
          "name": "amounts",
          "type": "uint256[]"
        }
      ],
      "name": "LogClaim",
      "type": "event"
    },
    {
      "anonymous": false,
      "inputs": [
        {
          "indexed": false,
          "internalType": "address",
          "name": "newAdmin",
          "type": "address"
        }
      ],
      "name": "LogNewAdmin",
      "type": "event"
    },
    {
      "anonymous": false,
      "inputs": [
        {
          "indexed": false,
          "internalType": "address[]",
          "name": "tokens",
          "type": "address[]"
        },
        {
          "indexed": false,
          "internalType": "uint128[]",
          "name": "price",
          "type": "uint128[]"
        },
        {
          "indexed": false,
          "internalType": "address[]",
          "name": "users",
          "type": "address[]"
        },
        {
          "indexed": false,
          "internalType": "uint256[]",
          "name": "targets",
          "type": "uint256[]"
        },
        {
          "indexed": false,
          "internalType": "uint32",
          "name": "cliff",
          "type": "uint32"
        },
        {
          "indexed": false,
          "internalType": "uint32",
          "name": "vestimTime",
          "type": "uint32"
        }
      ],
      "name": "LogNewCollectiveInitialized",
      "type": "event"
    },
    {
      "anonymous": false,
      "inputs": [
        {
          "indexed": false,
          "internalType": "uint256",
          "name": "time",
          "type": "uint256"
        }
      ],
      "name": "LogNewPoolInitialized",
      "type": "event"
    },
    {
      "anonymous": false,
      "inputs": [
        {
          "indexed": false,
          "internalType": "address",
          "name": "token",
          "type": "address"
        },
        {
          "indexed": false,
          "internalType": "uint256",
          "name": "newPrice",
          "type": "uint256"
        }
      ],
      "name": "PriceUpdated",
      "type": "event"
    },
    {
      "anonymous": false,
      "inputs": [
        {
          "indexed": true,
          "internalType": "address",
          "name": "from",
          "type": "address"
        },
        {
          "indexed": true,
          "internalType": "address",
          "name": "to",
          "type": "address"
        },
        {
          "indexed": false,
          "internalType": "uint256",
          "name": "amount",
          "type": "uint256"
        }
      ],
      "name": "Transfer",
      "type": "event"
    },
    {
      "anonymous": false,
      "inputs": [
        {
          "indexed": false,
          "internalType": "address",
          "name": "user",
          "type": "address"
        },
        {
          "indexed": false,
          "internalType": "address",
          "name": "token",
          "type": "address"
        },
        {
          "indexed": false,
          "internalType": "uint256",
          "name": "sentAmount",
          "type": "uint256"
        }
      ],
      "name": "UserConfirmed",
      "type": "event"
    },
    {
      "inputs": [],
      "name": "BP",
      "outputs": [
        {
          "internalType": "uint32",
          "name": "",
          "type": "uint32"
        }
      ],
      "stateMutability": "view",
      "type": "function"
    },
    {
      "inputs": [],
      "name": "DOMAIN_SEPARATOR",
      "outputs": [
        {
          "internalType": "bytes32",
          "name": "",
          "type": "bytes32"
        }
      ],
      "stateMutability": "view",
      "type": "function"
    },
    {
      "inputs": [],
      "name": "PERMIT_TYPEHASH",
      "outputs": [
        {
          "internalType": "bytes32",
          "name": "",
          "type": "bytes32"
        }
      ],
      "stateMutability": "view",
      "type": "function"
    },
    {
      "inputs": [],
      "name": "VEST_MULTIPLIER",
      "outputs": [
        {
          "internalType": "uint32",
          "name": "",
          "type": "uint32"
        }
      ],
      "stateMutability": "view",
      "type": "function"
    },
    {
      "inputs": [],
      "name": "admin",
      "outputs": [
        {
          "internalType": "address",
          "name": "",
          "type": "address"
        }
      ],
      "stateMutability": "view",
      "type": "function"
    },
    {
      "inputs": [
        {
          "internalType": "address",
          "name": "",
          "type": "address"
        },
        {
          "internalType": "address",
          "name": "",
          "type": "address"
        }
      ],
      "name": "allowance",
      "outputs": [
        {
          "internalType": "uint256",
          "name": "",
          "type": "uint256"
        }
      ],
      "stateMutability": "view",
      "type": "function"
    },
    {
      "inputs": [
        {
          "internalType": "address",
          "name": "spender",
          "type": "address"
        },
        {
          "internalType": "uint256",
          "name": "amount",
          "type": "uint256"
        }
      ],
      "name": "approve",
      "outputs": [
        {
          "internalType": "bool",
          "name": "",
          "type": "bool"
        }
      ],
      "stateMutability": "nonpayable",
      "type": "function"
    },
    {
      "inputs": [
        {
          "internalType": "address",
          "name": "",
          "type": "address"
        }
      ],
      "name": "balanceOf",
      "outputs": [
        {
          "internalType": "uint256",
          "name": "",
          "type": "uint256"
        }
      ],
      "stateMutability": "view",
      "type": "function"
    },
    {
      "inputs": [
        {
          "internalType": "address payable",
          "name": "to",
          "type": "address"
        }
      ],
      "name": "cancel",
      "outputs": [],
      "stateMutability": "nonpayable",
      "type": "function"
    },
    {
      "inputs": [
        {
          "internalType": "address",
          "name": "user",
          "type": "address"
        }
      ],
      "name": "claim",
      "outputs": [],
      "stateMutability": "nonpayable",
      "type": "function"
    },
    {
      "inputs": [],
      "name": "collectiveInfo",
      "outputs": [
        {
          "internalType": "uint32",
          "name": "vestingTime",
          "type": "uint32"
        },
        {
          "internalType": "uint32",
          "name": "cliff",
          "type": "uint32"
        },
        {
          "internalType": "uint32",
          "name": "collectiveStart",
          "type": "uint32"
        }
      ],
      "stateMutability": "view",
      "type": "function"
    },
    {
      "inputs": [],
      "name": "decimals",
      "outputs": [
        {
          "internalType": "uint8",
          "name": "",
          "type": "uint8"
        }
      ],
      "stateMutability": "view",
      "type": "function"
    },
    {
      "inputs": [
        {
          "components": [
            {
              "internalType": "uint32",
              "name": "vestingTime",
              "type": "uint32"
            },
            {
              "internalType": "uint32",
              "name": "cliff",
              "type": "uint32"
            },
            {
              "internalType": "uint32",
              "name": "collectiveStart",
              "type": "uint32"
            }
          ],
          "internalType": "struct BuidlCollective.Collective",
          "name": "_collectiveInfo",
          "type": "tuple"
        },
        {
          "internalType": "address[]",
          "name": "_tokens",
          "type": "address[]"
        },
        {
          "internalType": "uint128[]",
          "name": "_prices",
          "type": "uint128[]"
        },
        {
          "internalType": "address[]",
          "name": "_users",
          "type": "address[]"
        },
        {
          "internalType": "uint256[]",
          "name": "_targets",
          "type": "uint256[]"
        }
      ],
      "name": "initialize",
      "outputs": [],
      "stateMutability": "nonpayable",
      "type": "function"
    },
    {
      "inputs": [],
      "name": "lastCheckpoint",
      "outputs": [
        {
          "internalType": "uint256",
          "name": "",
          "type": "uint256"
        }
      ],
      "stateMutability": "view",
      "type": "function"
    },
    {
      "inputs": [],
      "name": "lastTWAP",
      "outputs": [
        {
          "internalType": "uint256",
          "name": "",
          "type": "uint256"
        }
      ],
      "stateMutability": "view",
      "type": "function"
    },
    {
      "inputs": [],
      "name": "name",
      "outputs": [
        {
          "internalType": "string",
          "name": "",
          "type": "string"
        }
      ],
      "stateMutability": "view",
      "type": "function"
    },
    {
      "inputs": [
        {
          "internalType": "address",
          "name": "",
          "type": "address"
        }
      ],
      "name": "nonces",
      "outputs": [
        {
          "internalType": "uint256",
          "name": "",
          "type": "uint256"
        }
      ],
      "stateMutability": "view",
      "type": "function"
    },
    {
      "inputs": [
        {
          "internalType": "address",
          "name": "owner",
          "type": "address"
        },
        {
          "internalType": "address",
          "name": "spender",
          "type": "address"
        },
        {
          "internalType": "uint256",
          "name": "value",
          "type": "uint256"
        },
        {
          "internalType": "uint256",
          "name": "deadline",
          "type": "uint256"
        },
        {
          "internalType": "uint8",
          "name": "v",
          "type": "uint8"
        },
        {
          "internalType": "bytes32",
          "name": "r",
          "type": "bytes32"
        },
        {
          "internalType": "bytes32",
          "name": "s",
          "type": "bytes32"
        }
      ],
      "name": "permit",
      "outputs": [],
      "stateMutability": "nonpayable",
      "type": "function"
    },
    {
      "inputs": [],
      "name": "pokeApproval",
      "outputs": [
        {
          "internalType": "bool[]",
          "name": "",
          "type": "bool[]"
        }
      ],
      "stateMutability": "view",
      "type": "function"
    },
    {
      "inputs": [
        {
          "internalType": "uint256",
          "name": "_tokenId",
          "type": "uint256"
        }
      ],
      "name": "readToken",
      "outputs": [
        {
          "internalType": "address",
          "name": "",
          "type": "address"
        },
        {
          "components": [
            {
              "internalType": "uint256",
              "name": "target",
              "type": "uint256"
            },
            {
              "internalType": "uint128",
              "name": "price",
              "type": "uint128"
            },
            {
              "internalType": "uint128",
              "name": "claimed",
              "type": "uint128"
            },
            {
              "internalType": "address",
              "name": "user",
              "type": "address"
            }
          ],
          "internalType": "struct BuidlCollective.TokenInfo",
          "name": "",
          "type": "tuple"
        }
      ],
      "stateMutability": "view",
      "type": "function"
    },
    {
      "inputs": [],
      "name": "releaseFactor",
      "outputs": [
        {
          "internalType": "uint256",
          "name": "",
          "type": "uint256"
        }
      ],
      "stateMutability": "view",
      "type": "function"
    },
    {
      "inputs": [
        {
          "internalType": "uint256",
          "name": "_assetValue",
          "type": "uint256"
        }
      ],
      "name": "stake",
      "outputs": [],
      "stateMutability": "nonpayable",
      "type": "function"
    },
    {
      "inputs": [],
      "name": "startCollective",
      "outputs": [
        {
          "internalType": "bool",
          "name": "",
          "type": "bool"
        }
      ],
      "stateMutability": "nonpayable",
      "type": "function"
    },
    {
      "inputs": [],
      "name": "symbol",
      "outputs": [
        {
          "internalType": "string",
          "name": "",
          "type": "string"
        }
      ],
      "stateMutability": "view",
      "type": "function"
    },
    {
      "inputs": [
        {
          "internalType": "address",
          "name": "",
          "type": "address"
        }
      ],
      "name": "tokenInfo",
      "outputs": [
        {
          "internalType": "uint256",
          "name": "target",
          "type": "uint256"
        },
        {
          "internalType": "uint128",
          "name": "price",
          "type": "uint128"
        },
        {
          "internalType": "uint128",
          "name": "claimed",
          "type": "uint128"
        },
        {
          "internalType": "address",
          "name": "user",
          "type": "address"
        }
      ],
      "stateMutability": "view",
      "type": "function"
    },
    {
      "inputs": [
        {
          "internalType": "uint256",
          "name": "",
          "type": "uint256"
        }
      ],
      "name": "tokens",
      "outputs": [
        {
          "internalType": "address",
          "name": "",
          "type": "address"
        }
      ],
      "stateMutability": "view",
      "type": "function"
    },
    {
      "inputs": [],
      "name": "totalAssets",
      "outputs": [
        {
          "internalType": "uint256",
          "name": "",
          "type": "uint256"
        }
      ],
      "stateMutability": "view",
      "type": "function"
    },
    {
      "inputs": [],
      "name": "totalStaked",
      "outputs": [
        {
          "internalType": "uint256",
          "name": "",
          "type": "uint256"
        }
      ],
      "stateMutability": "view",
      "type": "function"
    },
    {
      "inputs": [],
      "name": "totalSupply",
      "outputs": [
        {
          "internalType": "uint256",
          "name": "",
          "type": "uint256"
        }
      ],
      "stateMutability": "view",
      "type": "function"
    },
    {
      "inputs": [
        {
          "internalType": "address",
          "name": "to",
          "type": "address"
        },
        {
          "internalType": "uint256",
          "name": "amount",
          "type": "uint256"
        }
      ],
      "name": "transfer",
      "outputs": [
        {
          "internalType": "bool",
          "name": "",
          "type": "bool"
        }
      ],
      "stateMutability": "nonpayable",
      "type": "function"
    },
    {
      "inputs": [
        {
          "internalType": "address",
          "name": "from",
          "type": "address"
        },
        {
          "internalType": "address",
          "name": "to",
          "type": "address"
        },
        {
          "internalType": "uint256",
          "name": "amount",
          "type": "uint256"
        }
      ],
      "name": "transferFrom",
      "outputs": [
        {
          "internalType": "bool",
          "name": "",
          "type": "bool"
        }
      ],
      "stateMutability": "nonpayable",
      "type": "function"
    },
    {
      "inputs": [
        {
          "internalType": "uint256",
          "name": "_assetValueLeft",
          "type": "uint256"
        }
      ],
      "name": "unstake",
      "outputs": [],
      "stateMutability": "nonpayable",
      "type": "function"
    },
    {
      "inputs": [],
      "name": "unstakeAll",
      "outputs": [],
      "stateMutability": "nonpayable",
      "type": "function"
    },
    {
      "inputs": [
        {
          "internalType": "address",
          "name": "_newAdmin",
          "type": "address"
        }
      ],
      "name": "updateAdmin",
      "outputs": [],
      "stateMutability": "nonpayable",
      "type": "function"
    },
    {
      "inputs": [
        {
          "internalType": "address",
          "name": "",
          "type": "address"
        }
      ],
      "name": "userInfo",
      "outputs": [
        {
          "internalType": "uint256",
          "name": "depositedShare",
          "type": "uint256"
        },
        {
          "internalType": "uint256",
          "name": "lastCheckpointTWAP",
          "type": "uint256"
        },
        {
          "internalType": "uint256",
          "name": "lastCheckpointTime",
          "type": "uint256"
        },
        {
          "internalType": "uint256",
          "name": "lastCheckpointPercentageVested",
          "type": "uint256"
        }
      ],
      "stateMutability": "view",
      "type": "function"
    }
  ],
  "bytecode": "60e06040526203f4806010553480156200001857600080fd5b5060405162002c5b38038062002c5b8339810160408190526200003b91620002a1565b8282828260009080519060200190620000569291906200012e565b5081516200006c9060019060208501906200012e565b5060ff81166080524660a0526200008262000092565b60c0525062000407945050505050565b60007f8b73c3c69bb8fe3d512ecc4cf759cc79239f7b179b0ffacaa9a75d522b39400f6000604051620000c6919062000363565b6040805191829003822060208301939093528101919091527fc89efdaa54c0f20c7adf612882df0950f5a951637e0307cdcb4c672f298b8bc660608201524660808201523060a082015260c00160405160208183030381529060405280519060200120905090565b8280546200013c9062000326565b90600052602060002090601f016020900481019282620001605760008555620001ab565b82601f106200017b57805160ff1916838001178555620001ab565b82800160010185558215620001ab579182015b82811115620001ab5782518255916020019190600101906200018e565b50620001b9929150620001bd565b5090565b5b80821115620001b95760008155600101620001be565b634e487b7160e01b600052604160045260246000fd5b600082601f830112620001fc57600080fd5b81516001600160401b0380821115620002195762000219620001d4565b604051601f8301601f19908116603f01168101908282118183101715620002445762000244620001d4565b816040528381526020925086838588010111156200026157600080fd5b600091505b8382101562000285578582018301518183018401529082019062000266565b83821115620002975760008385830101525b9695505050505050565b600080600060608486031215620002b757600080fd5b83516001600160401b0380821115620002cf57600080fd5b620002dd87838801620001ea565b94506020860151915080821115620002f457600080fd5b506200030386828701620001ea565b925050604084015160ff811681146200031b57600080fd5b809150509250925092565b600181811c908216806200033b57607f821691505b602082108114156200035d57634e487b7160e01b600052602260045260246000fd5b50919050565b600080835481600182811c9150808316806200038057607f831692505b6020808410821415620003a157634e487b7160e01b86526022600452602486fd5b818015620003b85760018114620003ca57620003f9565b60ff19861689528489019650620003f9565b60008a81526020902060005b86811015620003f15781548b820152908501908301620003d6565b505084890196505b509498975050505050505050565b60805160a05160c051612824620004376000396000610e3201526000610dfd0152600061034201526128246000f3fe608060405234801561001057600080fd5b50600436106102115760003560e01c806370a0823111610125578063a9320688116100ad578063dd62ed3e1161007c578063dd62ed3e14610514578063e0c9802f1461053f578063e2f273bd1461058d578063f5dab711146105a0578063f851a4401461062657600080fd5b8063a93206881461048a578063d32e81a5146104ef578063d505accf146104f8578063d77a1d3a1461050b57600080fd5b806395d89b41116100f457806395d89b411461043e5780639cfdbd5e14610446578063a4c8b46b1461044f578063a694fc3a14610464578063a9059cbb1461047757600080fd5b806370a08231146103d55780637d9fce4d146103f55780637ecebe0014610415578063817b1cd21461043557600080fd5b80632e17de78116101a85780633644e515116101775780633644e5151461037e5780634ae99d30146103865780634c33fe941461038e5780634f64b2be146103a15780635da69cb6146103cc57600080fd5b80632e17de781461030357806330adf81f14610316578063313ce5671461033d57806335322f371461037657600080fd5b806318160ddd116101e457806318160ddd1461027f5780631959a002146102885780631e83409a146102dd57806323b872dd146102f057600080fd5b806301e1d1141461021657806306fdde0314610232578063095ea7b31461024757806309d0e30c1461026a575b600080fd5b61021f600a5481565b6040519081526020015b60405180910390f35b61023a610639565b6040516102299190611e4f565b61025a610255366004611eb9565b6106c7565b6040519015158152602001610229565b61027d6102783660046120d2565b610734565b005b61021f60025481565b6102bd6102963660046121cc565b600c6020526000908152604090208054600182015460028301546003909301549192909184565b604080519485526020850193909352918301526060820152608001610229565b61027d6102eb3660046121cc565b610983565b61025a6102fe3660046121e9565b6109f0565b61027d61031136600461222a565b610ad0565b61021f7f6e71edae12b1b97f4d1f60370fef10105fa2faae0126114a169c64845d6126c981565b6103647f000000000000000000000000000000000000000000000000000000000000000081565b60405160ff9091168152602001610229565b61027d610cc6565b61021f610df9565b61025a610e54565b61027d61039c3660046121cc565b6110c2565b6103b46103af36600461222a565b6110fb565b6040516001600160a01b039091168152602001610229565b61021f60105481565b61021f6103e33660046121cc565b60036020526000908152604090205481565b6104006305f5e10081565b60405163ffffffff9091168152602001610229565b61021f6104233660046121cc565b60056020526000908152604090205481565b61021f600f5481565b61023a611125565b61040061271081565b610457611132565b6040516102299190612243565b61027d61047236600461222a565b6112f6565b61025a610485366004611eb9565b6114a1565b61049d61049836600461222a565b611507565b604080516001600160a01b03938416815282516020808301919091528301516001600160801b03908116828401529183015190911660608083019190915290910151909116608082015260a001610229565b61021f600d5481565b61027d610506366004612289565b6115b0565b61021f600e5481565b61021f610522366004612300565b600460209081526000928352604080842090915290825290205481565b600b546105669063ffffffff808216916401000000008104821691600160401b9091041683565b6040805163ffffffff94851681529284166020840152921691810191909152606001610229565b61027d61059b3660046121cc565b611801565b6105ed6105ae3660046121cc565b60086020526000908152604090208054600182015460029092015490916001600160801b0380821692600160801b90920416906001600160a01b031684565b60405161022994939291909384526001600160801b039283166020850152911660408301526001600160a01b0316606082015260800190565b6009546103b4906001600160a01b031681565b6000805461064690612339565b80601f016020809104026020016040519081016040528092919081815260200182805461067290612339565b80156106bf5780601f10610694576101008083540402835291602001916106bf565b820191906000526020600020905b8154815290600101906020018083116106a257829003601f168201915b505050505081565b3360008181526004602090815260408083206001600160a01b038716808552925280832085905551919290917f8c5be1e5ebec7d5bd14f71427d1e84f3dd0314c0f7b2291e5b200ac8c7c3b925906107229086815260200190565b60405180910390a35060015b92915050565b6009546001600160a01b0316331461074b57600080fd5b8451600b80546020880151604089015163ffffffff908116600160401b0263ffffffff60401b199081169282166401000000000267ffffffffffffffff1990941691909516179190911792909216919091179055835160005b8181101561092757600060405180608001604052808584815181106107cb576107cb61236e565b602002602001015181526020018784815181106107ea576107ea61236e565b60200260200101516001600160801b0316815260200160006001600160801b031681526020018684815181106108225761082261236e565b60200260200101516001600160a01b03168152509050806008600089858151811061084f5761084f61236e565b6020908102919091018101516001600160a01b0390811683528282019390935260409182016000208451815590840151918401516001600160801b03908116600160801b02921691909117600182015560609092015160029092018054929091166001600160a01b031990921691909117905586516007908890849081106108d9576108d961236e565b60209081029190910181015182546001810184556000938452919092200180546001600160a01b0319166001600160a01b03909216919091179055508061091f8161239a565b9150506107a4565b50600b546040517f416073e33674c1f05095c354d2b4b414ca3ae45d0ecba40599c89f1ee63c4b359161097391889188918891889163ffffffff64010000000083048116921690612429565b60405180910390a1505050505050565b600d544211156109e757600d5461099a90426124d3565b600a54600f546109ad90612710906124ea565b6109b79190612509565b6109c191906124ea565b600e60008282546109d2919061252b565b909155505042600d556109e48161186c565b50565b6109e48161186c565b6001600160a01b03831660009081526004602090815260408083203384529091528120546000198114610a4c57610a2783826124d3565b6001600160a01b03861660009081526004602090815260408083203384529091529020555b6001600160a01b03851660009081526003602052604081208054859290610a749084906124d3565b90915550506001600160a01b03808516600081815260036020526040908190208054870190555190918716906000805160206127cf83398151915290610abd9087815260200190565b60405180910390a3506001949350505050565b600d54421115610c3857600d54610ae790426124d3565b600a54600f54610afa90612710906124ea565b610b049190612509565b610b0e91906124ea565b600e6000828254610b1f919061252b565b909155505042600d55610b313361186c565b600a546000906305f5e100610b48612710856124ea565b610b5291906124ea565b610b5c9190612509565b336000908152600c60205260409020549091508110610bbb5760405162461bcd60e51b8152602060048201526016602482015275554e5354414b4520414d4f554e5420544f4f2042494760501b60448201526064015b60405180910390fd5b60405163a9059cbb60e01b815233600482015260248101839052309063a9059cbb906044016020604051808303816000875af1158015610bff573d6000803e3d6000fd5b505050506040513d601f19601f82011682018060405250810190610c239190612543565b5050336000908152600c602052604081205550565b610c413361186c565b600a546000906305f5e100610c58612710856124ea565b610c6291906124ea565b610c6c9190612509565b336000908152600c60205260409020549091508110610bbb5760405162461bcd60e51b8152602060048201526016602482015275554e5354414b4520414d4f554e5420544f4f2042494760501b6044820152606401610bb2565b600d54421115610dce57600d54610cdd90426124d3565b600a54600f54610cf090612710906124ea565b610cfa9190612509565b610d0491906124ea565b600e6000828254610d15919061252b565b909155505042600d55600a54336000818152600c6020526040902054309263a9059cbb92916305f5e10091610d49916124ea565b610d539190612509565b6040516001600160e01b031960e085901b1681526001600160a01b03909216600483015260248201526044016020604051808303816000875af1158015610d9e573d6000803e3d6000fd5b505050506040513d601f19601f82011682018060405250810190610dc29190612543565b50610dcc3361186c565b565b600a54336000818152600c6020526040902054309263a9059cbb92916305f5e10091610d49916124ea565b60007f00000000000000000000000000000000000000000000000000000000000000004614610e2f57610e2a611ac5565b905090565b507f000000000000000000000000000000000000000000000000000000000000000090565b6009546000906001600160a01b03163314610e6e57600080fd5b60065462010000900460ff1615610e8457600080fd5b6006805462ff0000191662010000179055600780546040805160208084028201810190925282815260009390929091830182828015610eec57602002820191906000526020600020905b81546001600160a01b03168152600190910190602001808311610ece575b505050505090506000806000805b84518110156110405760086000868381518110610f1957610f1961236e565b6020908102919091018101516001600160a01b0390811683529082019290925260400160002080546002820154885192975090921690879084908110610f6157610f6161236e565b60209081029190910101516040516323b872dd60e01b81526001600160a01b03838116600483015230602483015260448201859052909116906323b872dd906064016020604051808303816000875af1158015610fc2573d6000803e3d6000fd5b505050506040513d601f19601f82011682018060405250810190610fe69190612543565b5060018601546000906305f5e10090611008906001600160801b0316856124ea565b6110129190612509565b905061101e818661252b565b945061102a8282611b5f565b50505080806110389061239a565b915050610efa565b50600b805463ffffffff60401b1916600160401b4263ffffffff9081168202929092179283905561107f92640100000000810483169291900416612565565b63ffffffff16600d556040514281527f83aaee11563f280eac61ebd060f088ce7577d5e823efa6c78de1cfec8167605d9060200160405180910390a15050505090565b6009546001600160a01b031633146110d957600080fd5b60065462010000900460ff16156110ef57600080fd5b806001600160a01b0316ff5b6007818154811061110b57600080fd5b6000918252602090912001546001600160a01b0316905081565b6001805461064690612339565b60075460609060009067ffffffffffffffff81111561115357611153611ee5565b60405190808252806020026020018201604052801561117c578160200160208202803683370190505b50905060005b6007548110156112f057600060086000600784815481106111a5576111a561236e565b60009182526020808320909101546001600160a01b03908116845290830193909352604090910181206002015460078054919093169350909190849081106111ef576111ef61236e565b600091825260209091200154604051636eb1769f60e11b81526001600160a01b0384811660048301523060248301529091169063dd62ed3e90604401602060405180830381865afa158015611248573d6000803e3d6000fd5b505050506040513d601f19601f8201168201806040525081019061126c919061258d565b9050600060086000600786815481106112875761128761236e565b60009182526020808320909101546001600160a01b03168352820192909252604001902054855190831015915081908690869081106112c8576112c861236e565b60200260200101901515908115158152505050505080806112e89061239a565b915050611182565b50919050565b600d544211156113f957600d5461130d90426124d3565b600a54600f5461132090612710906124ea565b61132a9190612509565b61133491906124ea565b600e6000828254611345919061252b565b909155505042600d556040805160808101909152600a546000919081906305f5e100611373612710876124ea565b61137d91906124ea565b6113879190612509565b8152602001600e5481526020014281526020016113a2611bb9565b9052336000908152600c602090815260408083208451815591840151600183015583015160028201556060830151600390910155600f805492935084929091906113ed90849061252b565b909155506109e4915050565b6040805160808101909152600a546000919081906305f5e10061141e612710876124ea565b61142891906124ea565b6114329190612509565b8152602001600e54815260200142815260200161144d611bb9565b9052336000908152600c602090815260408083208451815591840151600183015583015160028201556060830151600390910155600f8054929350849290919061149890849061252b565b90915550505050565b336000908152600360205260408120805483919083906114c29084906124d3565b90915550506001600160a01b038316600081815260036020526040908190208054850190555133906000805160206127cf833981519152906107229086815260200190565b604080516080810182526000808252602082018190529181018290526060810182905260006007848154811061153f5761153f61236e565b60009182526020808320909101546001600160a01b039081168084526008835260409384902084516080810186528154815260018201546001600160801b0380821696830196909652600160801b900490941694840194909452600290930154166060820152909590945092505050565b428410156116005760405162461bcd60e51b815260206004820152601760248201527f5045524d49545f444541444c494e455f455850495245440000000000000000006044820152606401610bb2565b600061160a610df9565b6001600160a01b0389811660008181526005602090815260409182902080546001810190915582517f6e71edae12b1b97f4d1f60370fef10105fa2faae0126114a169c64845d6126c98184015280840194909452938c166060840152608083018b905260a083019390935260c08083018a90528151808403909101815260e08301909152805192019190912061190160f01b6101008301526101028201929092526101228101919091526101420160408051601f198184030181528282528051602091820120600080855291840180845281905260ff88169284019290925260608301869052608083018590529092509060019060a0016020604051602081039080840390855afa158015611723573d6000803e3d6000fd5b5050604051601f1901519150506001600160a01b038116158015906117595750886001600160a01b0316816001600160a01b0316145b6117965760405162461bcd60e51b815260206004820152600e60248201526d24a72b20a624a22fa9a4a3a722a960911b6044820152606401610bb2565b6001600160a01b0390811660009081526004602090815260408083208b8516808552908352928190208a905551898152919350918a16917f8c5be1e5ebec7d5bd14f71427d1e84f3dd0314c0f7b2291e5b200ac8c7c3b925910160405180910390a350505050505050565b6009546001600160a01b0316331461181857600080fd5b600980546001600160a01b0319166001600160a01b0383169081179091556040519081527f39e7d4b9ba48f55a740a5192809dbc498fa12724c030b37dab126a3f6774c0f39060200160405180910390a150565b600061187782611c5d565b9050600060078054806020026020016040519081016040528092919081815260200182805480156118d157602002820191906000526020600020905b81546001600160a01b031681526001909101906020018083116118b3575b505050505090506000815167ffffffffffffffff8111156118f4576118f4611ee5565b60405190808252806020026020018201604052801561191d578160200160208202803683370190505b5090508215611abf57600e546001600160a01b0385166000908152600c602052604090206001015561194d611bb9565b6001600160a01b0385166000908152600c6020526040812060038101929092554260028301558154859291906119849084906124d3565b9091555050600a546119a190859061199c90866124ea565b611d7d565b60005b8251811015611a805760006119b98583611ddf565b9050808383815181106119ce576119ce61236e565b6020026020010181815250508382815181106119ec576119ec61236e565b602090810291909101015160405163a9059cbb60e01b81526001600160a01b038881166004830152602482018490529091169063a9059cbb906044016020604051808303816000875af1158015611a47573d6000803e3d6000fd5b505050506040513d601f19601f82011682018060405250810190611a6b9190612543565b50508080611a789061239a565b9150506119a4565b507f039799ae7423f24077d39da7d23f675b0a56d381a884d5714932b9dc762bdb5284848484604051611ab694939291906125a6565b60405180910390a15b50505050565b60007f8b73c3c69bb8fe3d512ecc4cf759cc79239f7b179b0ffacaa9a75d522b39400f6000604051611af791906125df565b6040805191829003822060208301939093528101919091527fc89efdaa54c0f20c7adf612882df0950f5a951637e0307cdcb4c672f298b8bc660608201524660808201523060a082015260c00160405160208183030381529060405280519060200120905090565b8060026000828254611b71919061252b565b90915550506001600160a01b0382166000818152600360209081526040808320805486019055518481526000805160206127cf83398151915291015b60405180910390a35050565b600b54600090600160401b900463ffffffff1680611bd957600091505090565b600b5463ffffffff166000611bee834261267b565b90508063ffffffff168263ffffffff1611611c0e57506127109392505050565b600b5463ffffffff640100000000909104811690821611611c33576000935050505090565b63ffffffff80831690611c4b906127109084166124ea565b611c559190612509565b935050505090565b6001600160a01b0381166000908152600c60205260408120600201548190611c8590426124d3565b6001600160a01b0384166000908152600c602052604081206003015491925090611cad611bb9565b611cb791906124d3565b6001600160a01b0385166000908152600c6020526040812060010154600e549293509091611ce591906124d3565b90506000611cf38483612509565b6001600160a01b0387166000908152600c6020526040812054919250908290611d1f90612710906124ea565b611d299190612509565b90506000612710611d3a83876124ea565b611d449190612509565b90506010548610611d5a57979650505050505050565b601054611d6787836124ea565b611d719190612509565b98975050505050505050565b6001600160a01b03821660009081526003602052604081208054839290611da59084906124d3565b90915550506002805482900390556040518181526000906001600160a01b038416906000805160206127cf83398151915290602001611bad565b6000611df16305f5e1006127106127b1565b63ffffffff16836008600060078681548110611e0f57611e0f61236e565b60009182526020808320909101546001600160a01b03168352820192909252604001902054611e3e91906124ea565b611e489190612509565b9392505050565b600060208083528351808285015260005b81811015611e7c57858101830151858201604001528201611e60565b81811115611e8e576000604083870101525b50601f01601f1916929092016040019392505050565b6001600160a01b03811681146109e457600080fd5b60008060408385031215611ecc57600080fd5b8235611ed781611ea4565b946020939093013593505050565b634e487b7160e01b600052604160045260246000fd5b6040516060810167ffffffffffffffff81118282101715611f1e57611f1e611ee5565b60405290565b604051601f8201601f1916810167ffffffffffffffff81118282101715611f4d57611f4d611ee5565b604052919050565b803563ffffffff81168114611f6957600080fd5b919050565b600067ffffffffffffffff821115611f8857611f88611ee5565b5060051b60200190565b600082601f830112611fa357600080fd5b81356020611fb8611fb383611f6e565b611f24565b82815260059290921b84018101918181019086841115611fd757600080fd5b8286015b84811015611ffb578035611fee81611ea4565b8352918301918301611fdb565b509695505050505050565b600082601f83011261201757600080fd5b81356020612027611fb383611f6e565b82815260059290921b8401810191818101908684111561204657600080fd5b8286015b84811015611ffb5780356001600160801b038116811461206a5760008081fd5b835291830191830161204a565b600082601f83011261208857600080fd5b81356020612098611fb383611f6e565b82815260059290921b840181019181810190868411156120b757600080fd5b8286015b84811015611ffb57803583529183019183016120bb565b600080600080600085870360e08112156120eb57600080fd5b60608112156120f957600080fd5b50612102611efb565b61210b87611f55565b815261211960208801611f55565b602082015261212a60408801611f55565b60408201529450606086013567ffffffffffffffff8082111561214c57600080fd5b61215889838a01611f92565b9550608088013591508082111561216e57600080fd5b61217a89838a01612006565b945060a088013591508082111561219057600080fd5b61219c89838a01611f92565b935060c08801359150808211156121b257600080fd5b506121bf88828901612077565b9150509295509295909350565b6000602082840312156121de57600080fd5b8135611e4881611ea4565b6000806000606084860312156121fe57600080fd5b833561220981611ea4565b9250602084013561221981611ea4565b929592945050506040919091013590565b60006020828403121561223c57600080fd5b5035919050565b6020808252825182820181905260009190848201906040850190845b8181101561227d57835115158352928401929184019160010161225f565b50909695505050505050565b600080600080600080600060e0888a0312156122a457600080fd5b87356122af81611ea4565b965060208801356122bf81611ea4565b95506040880135945060608801359350608088013560ff811681146122e357600080fd5b9699959850939692959460a0840135945060c09093013592915050565b6000806040838503121561231357600080fd5b823561231e81611ea4565b9150602083013561232e81611ea4565b809150509250929050565b600181811c9082168061234d57607f821691505b602082108114156112f057634e487b7160e01b600052602260045260246000fd5b634e487b7160e01b600052603260045260246000fd5b634e487b7160e01b600052601160045260246000fd5b60006000198214156123ae576123ae612384565b5060010190565b600081518084526020808501945080840160005b838110156123ee5781516001600160a01b0316875295820195908201906001016123c9565b509495945050505050565b600081518084526020808501945080840160005b838110156123ee5781518752958201959082019060010161240d565b60c08152600061243c60c08301896123b5565b82810360208481019190915288518083528982019282019060005b8181101561247c5784516001600160801b031683529383019391830191600101612457565b50508481036040860152612490818a6123b5565b9250505082810360608401526124a681876123f9565b9150506124bb608083018563ffffffff169052565b63ffffffff831660a08301525b979650505050505050565b6000828210156124e5576124e5612384565b500390565b600081600019048311821515161561250457612504612384565b500290565b60008261252657634e487b7160e01b600052601260045260246000fd5b500490565b6000821982111561253e5761253e612384565b500190565b60006020828403121561255557600080fd5b81518015158114611e4857600080fd5b600063ffffffff80831681851680830382111561258457612584612384565b01949350505050565b60006020828403121561259f57600080fd5b5051919050565b60018060a01b03851681528360208201526080604082015260006125cd60808301856123b5565b82810360608401526124c881856123f9565b600080835481600182811c9150808316806125fb57607f831692505b602080841082141561261b57634e487b7160e01b86526022600452602486fd5b81801561262f57600181146126405761266d565b60ff1986168952848901965061266d565b60008a81526020902060005b868110156126655781548b82015290850190830161264c565b505084890196505b509498975050505050505050565b600063ffffffff8381169083168181101561269857612698612384565b039392505050565b600181815b808511156126dd578163ffffffff048211156126c3576126c3612384565b808516156126d057918102915b93841c93908002906126a5565b509250929050565b6000826126f45750600161072e565b816127015750600061072e565b8160018114612717576002811461272157612752565b600191505061072e565b60ff84111561273257612732612384565b6001841b915063ffffffff82111561274c5761274c612384565b5061072e565b5060208310610133831016604e8410600b8410161715612789575081810a63ffffffff81111561278457612784612384565b61072e565b61279383836126a0565b8063ffffffff048211156127a9576127a9612384565b029392505050565b600063ffffffff6127c68185168285166126e5565b94935050505056feddf252ad1be2c89b69c2b068fc378daa952ba7f163c4a11628f55a4df523b3efa2646970667358221220edef0984763cee00817e64c3a7276c4e48db2f5131ca1409718576eae3e846ac64736f6c634300080a0033",
  "bytecodeSha1": "5393e131accac64aafa531411a8baed834f20c83",
  "compiler": {
    "evm_version": "istanbul",
    "optimizer": {
      "enabled": true,
      "runs": 200
    },
    "version": "0.8.10+commit.fc410830"
  },
  "contractName": "BuidlCollective",
  "language": "Solidity",
  "natspec": {
    "kind": "dev",
    "methods": {},
    "version": 1
  },
  "opcodes": "PUSH1 0x80 PUSH1 0x40 MSTORE CALLVALUE DUP1 ISZERO PUSH2 0x10 JUMPI PUSH1 0x0 DUP1 REVERT JUMPDEST POP PUSH1 0x4 CALLDATASIZE LT PUSH2 0x211 JUMPI PUSH1 0x0 CALLDATALOAD PUSH1 0xE0 SHR DUP1 PUSH4 0x70A08231 GT PUSH2 0x125 JUMPI DUP1 PUSH4 0xA9320688 GT PUSH2 0xAD JUMPI DUP1 PUSH4 0xDD62ED3E GT PUSH2 0x7C JUMPI DUP1 PUSH4 0xDD62ED3E EQ PUSH2 0x514 JUMPI DUP1 PUSH4 0xE0C9802F EQ PUSH2 0x53F JUMPI DUP1 PUSH4 0xE2F273BD EQ PUSH2 0x58D JUMPI DUP1 PUSH4 0xF5DAB711 EQ PUSH2 0x5A0 JUMPI DUP1 PUSH4 0xF851A440 EQ PUSH2 0x626 JUMPI PUSH1 0x0 DUP1 REVERT JUMPDEST DUP1 PUSH4 0xA9320688 EQ PUSH2 0x48A JUMPI DUP1 PUSH4 0xD32E81A5 EQ PUSH2 0x4EF JUMPI DUP1 PUSH4 0xD505ACCF EQ PUSH2 0x4F8 JUMPI DUP1 PUSH4 0xD77A1D3A EQ PUSH2 0x50B JUMPI PUSH1 0x0 DUP1 REVERT JUMPDEST DUP1 PUSH4 0x95D89B41 GT PUSH2 0xF4 JUMPI DUP1 PUSH4 0x95D89B41 EQ PUSH2 0x43E JUMPI DUP1 PUSH4 0x9CFDBD5E EQ PUSH2 0x446 JUMPI DUP1 PUSH4 0xA4C8B46B EQ PUSH2 0x44F JUMPI DUP1 PUSH4 0xA694FC3A EQ PUSH2 0x464 JUMPI DUP1 PUSH4 0xA9059CBB EQ PUSH2 0x477 JUMPI PUSH1 0x0 DUP1 REVERT JUMPDEST DUP1 PUSH4 0x70A08231 EQ PUSH2 0x3D5 JUMPI DUP1 PUSH4 0x7D9FCE4D EQ PUSH2 0x3F5 JUMPI DUP1 PUSH4 0x7ECEBE00 EQ PUSH2 0x415 JUMPI DUP1 PUSH4 0x817B1CD2 EQ PUSH2 0x435 JUMPI PUSH1 0x0 DUP1 REVERT JUMPDEST DUP1 PUSH4 0x2E17DE78 GT PUSH2 0x1A8 JUMPI DUP1 PUSH4 0x3644E515 GT PUSH2 0x177 JUMPI DUP1 PUSH4 0x3644E515 EQ PUSH2 0x37E JUMPI DUP1 PUSH4 0x4AE99D30 EQ PUSH2 0x386 JUMPI DUP1 PUSH4 0x4C33FE94 EQ PUSH2 0x38E JUMPI DUP1 PUSH4 0x4F64B2BE EQ PUSH2 0x3A1 JUMPI DUP1 PUSH4 0x5DA69CB6 EQ PUSH2 0x3CC JUMPI PUSH1 0x0 DUP1 REVERT JUMPDEST DUP1 PUSH4 0x2E17DE78 EQ PUSH2 0x303 JUMPI DUP1 PUSH4 0x30ADF81F EQ PUSH2 0x316 JUMPI DUP1 PUSH4 0x313CE567 EQ PUSH2 0x33D JUMPI DUP1 PUSH4 0x35322F37 EQ PUSH2 0x376 JUMPI PUSH1 0x0 DUP1 REVERT JUMPDEST DUP1 PUSH4 0x18160DDD GT PUSH2 0x1E4 JUMPI DUP1 PUSH4 0x18160DDD EQ PUSH2 0x27F JUMPI DUP1 PUSH4 0x1959A002 EQ PUSH2 0x288 JUMPI DUP1 PUSH4 0x1E83409A EQ PUSH2 0x2DD JUMPI DUP1 PUSH4 0x23B872DD EQ PUSH2 0x2F0 JUMPI PUSH1 0x0 DUP1 REVERT JUMPDEST DUP1 PUSH4 0x1E1D114 EQ PUSH2 0x216 JUMPI DUP1 PUSH4 0x6FDDE03 EQ PUSH2 0x232 JUMPI DUP1 PUSH4 0x95EA7B3 EQ PUSH2 0x247 JUMPI DUP1 PUSH4 0x9D0E30C EQ PUSH2 0x26A JUMPI JUMPDEST PUSH1 0x0 DUP1 REVERT JUMPDEST PUSH2 0x21F PUSH1 0xA SLOAD DUP2 JUMP JUMPDEST PUSH1 0x40 MLOAD SWAP1 DUP2 MSTORE PUSH1 0x20 ADD JUMPDEST PUSH1 0x40 MLOAD DUP1 SWAP2 SUB SWAP1 RETURN JUMPDEST PUSH2 0x23A PUSH2 0x639 JUMP JUMPDEST PUSH1 0x40 MLOAD PUSH2 0x229 SWAP2 SWAP1 PUSH2 0x1E4F JUMP JUMPDEST PUSH2 0x25A PUSH2 0x255 CALLDATASIZE PUSH1 0x4 PUSH2 0x1EB9 JUMP JUMPDEST PUSH2 0x6C7 JUMP JUMPDEST PUSH1 0x40 MLOAD SWAP1 ISZERO ISZERO DUP2 MSTORE PUSH1 0x20 ADD PUSH2 0x229 JUMP JUMPDEST PUSH2 0x27D PUSH2 0x278 CALLDATASIZE PUSH1 0x4 PUSH2 0x20D2 JUMP JUMPDEST PUSH2 0x734 JUMP JUMPDEST STOP JUMPDEST PUSH2 0x21F PUSH1 0x2 SLOAD DUP2 JUMP JUMPDEST PUSH2 0x2BD PUSH2 0x296 CALLDATASIZE PUSH1 0x4 PUSH2 0x21CC JUMP JUMPDEST PUSH1 0xC PUSH1 0x20 MSTORE PUSH1 0x0 SWAP1 DUP2 MSTORE PUSH1 0x40 SWAP1 KECCAK256 DUP1 SLOAD PUSH1 0x1 DUP3 ADD SLOAD PUSH1 0x2 DUP4 ADD SLOAD PUSH1 0x3 SWAP1 SWAP4 ADD SLOAD SWAP2 SWAP3 SWAP1 SWAP2 DUP5 JUMP JUMPDEST PUSH1 0x40 DUP1 MLOAD SWAP5 DUP6 MSTORE PUSH1 0x20 DUP6 ADD SWAP4 SWAP1 SWAP4 MSTORE SWAP2 DUP4 ADD MSTORE PUSH1 0x60 DUP3 ADD MSTORE PUSH1 0x80 ADD PUSH2 0x229 JUMP JUMPDEST PUSH2 0x27D PUSH2 0x2EB CALLDATASIZE PUSH1 0x4 PUSH2 0x21CC JUMP JUMPDEST PUSH2 0x983 JUMP JUMPDEST PUSH2 0x25A PUSH2 0x2FE CALLDATASIZE PUSH1 0x4 PUSH2 0x21E9 JUMP JUMPDEST PUSH2 0x9F0 JUMP JUMPDEST PUSH2 0x27D PUSH2 0x311 CALLDATASIZE PUSH1 0x4 PUSH2 0x222A JUMP JUMPDEST PUSH2 0xAD0 JUMP JUMPDEST PUSH2 0x21F PUSH32 0x6E71EDAE12B1B97F4D1F60370FEF10105FA2FAAE0126114A169C64845D6126C9 DUP2 JUMP JUMPDEST PUSH2 0x364 PUSH32 0x0 DUP2 JUMP JUMPDEST PUSH1 0x40 MLOAD PUSH1 0xFF SWAP1 SWAP2 AND DUP2 MSTORE PUSH1 0x20 ADD PUSH2 0x229 JUMP JUMPDEST PUSH2 0x27D PUSH2 0xCC6 JUMP JUMPDEST PUSH2 0x21F PUSH2 0xDF9 JUMP JUMPDEST PUSH2 0x25A PUSH2 0xE54 JUMP JUMPDEST PUSH2 0x27D PUSH2 0x39C CALLDATASIZE PUSH1 0x4 PUSH2 0x21CC JUMP JUMPDEST PUSH2 0x10C2 JUMP JUMPDEST PUSH2 0x3B4 PUSH2 0x3AF CALLDATASIZE PUSH1 0x4 PUSH2 0x222A JUMP JUMPDEST PUSH2 0x10FB JUMP JUMPDEST PUSH1 0x40 MLOAD PUSH1 0x1 PUSH1 0x1 PUSH1 0xA0 SHL SUB SWAP1 SWAP2 AND DUP2 MSTORE PUSH1 0x20 ADD PUSH2 0x229 JUMP JUMPDEST PUSH2 0x21F PUSH1 0x10 SLOAD DUP2 JUMP JUMPDEST PUSH2 0x21F PUSH2 0x3E3 CALLDATASIZE PUSH1 0x4 PUSH2 0x21CC JUMP JUMPDEST PUSH1 0x3 PUSH1 0x20 MSTORE PUSH1 0x0 SWAP1 DUP2 MSTORE PUSH1 0x40 SWAP1 KECCAK256 SLOAD DUP2 JUMP JUMPDEST PUSH2 0x400 PUSH4 0x5F5E100 DUP2 JUMP JUMPDEST PUSH1 0x40 MLOAD PUSH4 0xFFFFFFFF SWAP1 SWAP2 AND DUP2 MSTORE PUSH1 0x20 ADD PUSH2 0x229 JUMP JUMPDEST PUSH2 0x21F PUSH2 0x423 CALLDATASIZE PUSH1 0x4 PUSH2 0x21CC JUMP JUMPDEST PUSH1 0x5 PUSH1 0x20 MSTORE PUSH1 0x0 SWAP1 DUP2 MSTORE PUSH1 0x40 SWAP1 KECCAK256 SLOAD DUP2 JUMP JUMPDEST PUSH2 0x21F PUSH1 0xF SLOAD DUP2 JUMP JUMPDEST PUSH2 0x23A PUSH2 0x1125 JUMP JUMPDEST PUSH2 0x400 PUSH2 0x2710 DUP2 JUMP JUMPDEST PUSH2 0x457 PUSH2 0x1132 JUMP JUMPDEST PUSH1 0x40 MLOAD PUSH2 0x229 SWAP2 SWAP1 PUSH2 0x2243 JUMP JUMPDEST PUSH2 0x27D PUSH2 0x472 CALLDATASIZE PUSH1 0x4 PUSH2 0x222A JUMP JUMPDEST PUSH2 0x12F6 JUMP JUMPDEST PUSH2 0x25A PUSH2 0x485 CALLDATASIZE PUSH1 0x4 PUSH2 0x1EB9 JUMP JUMPDEST PUSH2 0x14A1 JUMP JUMPDEST PUSH2 0x49D PUSH2 0x498 CALLDATASIZE PUSH1 0x4 PUSH2 0x222A JUMP JUMPDEST PUSH2 0x1507 JUMP JUMPDEST PUSH1 0x40 DUP1 MLOAD PUSH1 0x1 PUSH1 0x1 PUSH1 0xA0 SHL SUB SWAP4 DUP5 AND DUP2 MSTORE DUP3 MLOAD PUSH1 0x20 DUP1 DUP4 ADD SWAP2 SWAP1 SWAP2 MSTORE DUP4 ADD MLOAD PUSH1 0x1 PUSH1 0x1 PUSH1 0x80 SHL SUB SWAP1 DUP2 AND DUP3 DUP5 ADD MSTORE SWAP2 DUP4 ADD MLOAD SWAP1 SWAP2 AND PUSH1 0x60 DUP1 DUP4 ADD SWAP2 SWAP1 SWAP2 MSTORE SWAP1 SWAP2 ADD MLOAD SWAP1 SWAP2 AND PUSH1 0x80 DUP3 ADD MSTORE PUSH1 0xA0 ADD PUSH2 0x229 JUMP JUMPDEST PUSH2 0x21F PUSH1 0xD SLOAD DUP2 JUMP JUMPDEST PUSH2 0x27D PUSH2 0x506 CALLDATASIZE PUSH1 0x4 PUSH2 0x2289 JUMP JUMPDEST PUSH2 0x15B0 JUMP JUMPDEST PUSH2 0x21F PUSH1 0xE SLOAD DUP2 JUMP JUMPDEST PUSH2 0x21F PUSH2 0x522 CALLDATASIZE PUSH1 0x4 PUSH2 0x2300 JUMP JUMPDEST PUSH1 0x4 PUSH1 0x20 SWAP1 DUP2 MSTORE PUSH1 0x0 SWAP3 DUP4 MSTORE PUSH1 0x40 DUP1 DUP5 KECCAK256 SWAP1 SWAP2 MSTORE SWAP1 DUP3 MSTORE SWAP1 KECCAK256 SLOAD DUP2 JUMP JUMPDEST PUSH1 0xB SLOAD PUSH2 0x566 SWAP1 PUSH4 0xFFFFFFFF DUP1 DUP3 AND SWAP2 PUSH5 0x100000000 DUP2 DIV DUP3 AND SWAP2 PUSH1 0x1 PUSH1 0x40 SHL SWAP1 SWAP2 DIV AND DUP4 JUMP JUMPDEST PUSH1 0x40 DUP1 MLOAD PUSH4 0xFFFFFFFF SWAP5 DUP6 AND DUP2 MSTORE SWAP3 DUP5 AND PUSH1 0x20 DUP5 ADD MSTORE SWAP3 AND SWAP2 DUP2 ADD SWAP2 SWAP1 SWAP2 MSTORE PUSH1 0x60 ADD PUSH2 0x229 JUMP JUMPDEST PUSH2 0x27D PUSH2 0x59B CALLDATASIZE PUSH1 0x4 PUSH2 0x21CC JUMP JUMPDEST PUSH2 0x1801 JUMP JUMPDEST PUSH2 0x5ED PUSH2 0x5AE CALLDATASIZE PUSH1 0x4 PUSH2 0x21CC JUMP JUMPDEST PUSH1 0x8 PUSH1 0x20 MSTORE PUSH1 0x0 SWAP1 DUP2 MSTORE PUSH1 0x40 SWAP1 KECCAK256 DUP1 SLOAD PUSH1 0x1 DUP3 ADD SLOAD PUSH1 0x2 SWAP1 SWAP3 ADD SLOAD SWAP1 SWAP2 PUSH1 0x1 PUSH1 0x1 PUSH1 0x80 SHL SUB DUP1 DUP3 AND SWAP3 PUSH1 0x1 PUSH1 0x80 SHL SWAP1 SWAP3 DIV AND SWAP1 PUSH1 0x1 PUSH1 0x1 PUSH1 0xA0 SHL SUB AND DUP5 JUMP JUMPDEST PUSH1 0x40 MLOAD PUSH2 0x229 SWAP5 SWAP4 SWAP3 SWAP2 SWAP1 SWAP4 DUP5 MSTORE PUSH1 0x1 PUSH1 0x1 PUSH1 0x80 SHL SUB SWAP3 DUP4 AND PUSH1 0x20 DUP6 ADD MSTORE SWAP2 AND PUSH1 0x40 DUP4 ADD MSTORE PUSH1 0x1 PUSH1 0x1 PUSH1 0xA0 SHL SUB AND PUSH1 0x60 DUP3 ADD MSTORE PUSH1 0x80 ADD SWAP1 JUMP JUMPDEST PUSH1 0x9 SLOAD PUSH2 0x3B4 SWAP1 PUSH1 0x1 PUSH1 0x1 PUSH1 0xA0 SHL SUB AND DUP2 JUMP JUMPDEST PUSH1 0x0 DUP1 SLOAD PUSH2 0x646 SWAP1 PUSH2 0x2339 JUMP JUMPDEST DUP1 PUSH1 0x1F ADD PUSH1 0x20 DUP1 SWAP2 DIV MUL PUSH1 0x20 ADD PUSH1 0x40 MLOAD SWAP1 DUP2 ADD PUSH1 0x40 MSTORE DUP1 SWAP3 SWAP2 SWAP1 DUP2 DUP2 MSTORE PUSH1 0x20 ADD DUP3 DUP1 SLOAD PUSH2 0x672 SWAP1 PUSH2 0x2339 JUMP JUMPDEST DUP1 ISZERO PUSH2 0x6BF JUMPI DUP1 PUSH1 0x1F LT PUSH2 0x694 JUMPI PUSH2 0x100 DUP1 DUP4 SLOAD DIV MUL DUP4 MSTORE SWAP2 PUSH1 0x20 ADD SWAP2 PUSH2 0x6BF JUMP JUMPDEST DUP3 ADD SWAP2 SWAP1 PUSH1 0x0 MSTORE PUSH1 0x20 PUSH1 0x0 KECCAK256 SWAP1 JUMPDEST DUP2 SLOAD DUP2 MSTORE SWAP1 PUSH1 0x1 ADD SWAP1 PUSH1 0x20 ADD DUP1 DUP4 GT PUSH2 0x6A2 JUMPI DUP3 SWAP1 SUB PUSH1 0x1F AND DUP3 ADD SWAP2 JUMPDEST POP POP POP POP POP DUP2 JUMP JUMPDEST CALLER PUSH1 0x0 DUP2 DUP2 MSTORE PUSH1 0x4 PUSH1 0x20 SWAP1 DUP2 MSTORE PUSH1 0x40 DUP1 DUP4 KECCAK256 PUSH1 0x1 PUSH1 0x1 PUSH1 0xA0 SHL SUB DUP8 AND DUP1 DUP6 MSTORE SWAP3 MSTORE DUP1 DUP4 KECCAK256 DUP6 SWAP1 SSTORE MLOAD SWAP2 SWAP3 SWAP1 SWAP2 PUSH32 0x8C5BE1E5EBEC7D5BD14F71427D1E84F3DD0314C0F7B2291E5B200AC8C7C3B925 SWAP1 PUSH2 0x722 SWAP1 DUP7 DUP2 MSTORE PUSH1 0x20 ADD SWAP1 JUMP JUMPDEST PUSH1 0x40 MLOAD DUP1 SWAP2 SUB SWAP1 LOG3 POP PUSH1 0x1 JUMPDEST SWAP3 SWAP2 POP POP JUMP JUMPDEST PUSH1 0x9 SLOAD PUSH1 0x1 PUSH1 0x1 PUSH1 0xA0 SHL SUB AND CALLER EQ PUSH2 0x74B JUMPI PUSH1 0x0 DUP1 REVERT JUMPDEST DUP5 MLOAD PUSH1 0xB DUP1 SLOAD PUSH1 0x20 DUP9 ADD MLOAD PUSH1 0x40 DUP10 ADD MLOAD PUSH4 0xFFFFFFFF SWAP1 DUP2 AND PUSH1 0x1 PUSH1 0x40 SHL MUL PUSH4 0xFFFFFFFF PUSH1 0x40 SHL NOT SWAP1 DUP2 AND SWAP3 DUP3 AND PUSH5 0x100000000 MUL PUSH8 0xFFFFFFFFFFFFFFFF NOT SWAP1 SWAP5 AND SWAP2 SWAP1 SWAP6 AND OR SWAP2 SWAP1 SWAP2 OR SWAP3 SWAP1 SWAP3 AND SWAP2 SWAP1 SWAP2 OR SWAP1 SSTORE DUP4 MLOAD PUSH1 0x0 JUMPDEST DUP2 DUP2 LT ISZERO PUSH2 0x927 JUMPI PUSH1 0x0 PUSH1 0x40 MLOAD DUP1 PUSH1 0x80 ADD PUSH1 0x40 MSTORE DUP1 DUP6 DUP5 DUP2 MLOAD DUP2 LT PUSH2 0x7CB JUMPI PUSH2 0x7CB PUSH2 0x236E JUMP JUMPDEST PUSH1 0x20 MUL PUSH1 0x20 ADD ADD MLOAD DUP2 MSTORE PUSH1 0x20 ADD DUP8 DUP5 DUP2 MLOAD DUP2 LT PUSH2 0x7EA JUMPI PUSH2 0x7EA PUSH2 0x236E JUMP JUMPDEST PUSH1 0x20 MUL PUSH1 0x20 ADD ADD MLOAD PUSH1 0x1 PUSH1 0x1 PUSH1 0x80 SHL SUB AND DUP2 MSTORE PUSH1 0x20 ADD PUSH1 0x0 PUSH1 0x1 PUSH1 0x1 PUSH1 0x80 SHL SUB AND DUP2 MSTORE PUSH1 0x20 ADD DUP7 DUP5 DUP2 MLOAD DUP2 LT PUSH2 0x822 JUMPI PUSH2 0x822 PUSH2 0x236E JUMP JUMPDEST PUSH1 0x20 MUL PUSH1 0x20 ADD ADD MLOAD PUSH1 0x1 PUSH1 0x1 PUSH1 0xA0 SHL SUB AND DUP2 MSTORE POP SWAP1 POP DUP1 PUSH1 0x8 PUSH1 0x0 DUP10 DUP6 DUP2 MLOAD DUP2 LT PUSH2 0x84F JUMPI PUSH2 0x84F PUSH2 0x236E JUMP JUMPDEST PUSH1 0x20 SWAP1 DUP2 MUL SWAP2 SWAP1 SWAP2 ADD DUP2 ADD MLOAD PUSH1 0x1 PUSH1 0x1 PUSH1 0xA0 SHL SUB SWAP1 DUP2 AND DUP4 MSTORE DUP3 DUP3 ADD SWAP4 SWAP1 SWAP4 MSTORE PUSH1 0x40 SWAP2 DUP3 ADD PUSH1 0x0 KECCAK256 DUP5 MLOAD DUP2 SSTORE SWAP1 DUP5 ADD MLOAD SWAP2 DUP5 ADD MLOAD PUSH1 0x1 PUSH1 0x1 PUSH1 0x80 SHL SUB SWAP1 DUP2 AND PUSH1 0x1 PUSH1 0x80 SHL MUL SWAP3 AND SWAP2 SWAP1 SWAP2 OR PUSH1 0x1 DUP3 ADD SSTORE PUSH1 0x60 SWAP1 SWAP3 ADD MLOAD PUSH1 0x2 SWAP1 SWAP3 ADD DUP1 SLOAD SWAP3 SWAP1 SWAP2 AND PUSH1 0x1 PUSH1 0x1 PUSH1 0xA0 SHL SUB NOT SWAP1 SWAP3 AND SWAP2 SWAP1 SWAP2 OR SWAP1 SSTORE DUP7 MLOAD PUSH1 0x7 SWAP1 DUP9 SWAP1 DUP5 SWAP1 DUP2 LT PUSH2 0x8D9 JUMPI PUSH2 0x8D9 PUSH2 0x236E JUMP JUMPDEST PUSH1 0x20 SWAP1 DUP2 MUL SWAP2 SWAP1 SWAP2 ADD DUP2 ADD MLOAD DUP3 SLOAD PUSH1 0x1 DUP2 ADD DUP5 SSTORE PUSH1 0x0 SWAP4 DUP5 MSTORE SWAP2 SWAP1 SWAP3 KECCAK256 ADD DUP1 SLOAD PUSH1 0x1 PUSH1 0x1 PUSH1 0xA0 SHL SUB NOT AND PUSH1 0x1 PUSH1 0x1 PUSH1 0xA0 SHL SUB SWAP1 SWAP3 AND SWAP2 SWAP1 SWAP2 OR SWAP1 SSTORE POP DUP1 PUSH2 0x91F DUP2 PUSH2 0x239A JUMP JUMPDEST SWAP2 POP POP PUSH2 0x7A4 JUMP JUMPDEST POP PUSH1 0xB SLOAD PUSH1 0x40 MLOAD PUSH32 0x416073E33674C1F05095C354D2B4B414CA3AE45D0ECBA40599C89F1EE63C4B35 SWAP2 PUSH2 0x973 SWAP2 DUP9 SWAP2 DUP9 SWAP2 DUP9 SWAP2 DUP9 SWAP2 PUSH4 0xFFFFFFFF PUSH5 0x100000000 DUP4 DIV DUP2 AND SWAP3 AND SWAP1 PUSH2 0x2429 JUMP JUMPDEST PUSH1 0x40 MLOAD DUP1 SWAP2 SUB SWAP1 LOG1 POP POP POP POP POP POP JUMP JUMPDEST PUSH1 0xD SLOAD TIMESTAMP GT ISZERO PUSH2 0x9E7 JUMPI PUSH1 0xD SLOAD PUSH2 0x99A SWAP1 TIMESTAMP PUSH2 0x24D3 JUMP JUMPDEST PUSH1 0xA SLOAD PUSH1 0xF SLOAD PUSH2 0x9AD SWAP1 PUSH2 0x2710 SWAP1 PUSH2 0x24EA JUMP JUMPDEST PUSH2 0x9B7 SWAP2 SWAP1 PUSH2 0x2509 JUMP JUMPDEST PUSH2 0x9C1 SWAP2 SWAP1 PUSH2 0x24EA JUMP JUMPDEST PUSH1 0xE PUSH1 0x0 DUP3 DUP3 SLOAD PUSH2 0x9D2 SWAP2 SWAP1 PUSH2 0x252B JUMP JUMPDEST SWAP1 SWAP2 SSTORE POP POP TIMESTAMP PUSH1 0xD SSTORE PUSH2 0x9E4 DUP2 PUSH2 0x186C JUMP JUMPDEST POP JUMP JUMPDEST PUSH2 0x9E4 DUP2 PUSH2 0x186C JUMP JUMPDEST PUSH1 0x1 PUSH1 0x1 PUSH1 0xA0 SHL SUB DUP4 AND PUSH1 0x0 SWAP1 DUP2 MSTORE PUSH1 0x4 PUSH1 0x20 SWAP1 DUP2 MSTORE PUSH1 0x40 DUP1 DUP4 KECCAK256 CALLER DUP5 MSTORE SWAP1 SWAP2 MSTORE DUP2 KECCAK256 SLOAD PUSH1 0x0 NOT DUP2 EQ PUSH2 0xA4C JUMPI PUSH2 0xA27 DUP4 DUP3 PUSH2 0x24D3 JUMP JUMPDEST PUSH1 0x1 PUSH1 0x1 PUSH1 0xA0 SHL SUB DUP7 AND PUSH1 0x0 SWAP1 DUP2 MSTORE PUSH1 0x4 PUSH1 0x20 SWAP1 DUP2 MSTORE PUSH1 0x40 DUP1 DUP4 KECCAK256 CALLER DUP5 MSTORE SWAP1 SWAP2 MSTORE SWAP1 KECCAK256 SSTORE JUMPDEST PUSH1 0x1 PUSH1 0x1 PUSH1 0xA0 SHL SUB DUP6 AND PUSH1 0x0 SWAP1 DUP2 MSTORE PUSH1 0x3 PUSH1 0x20 MSTORE PUSH1 0x40 DUP2 KECCAK256 DUP1 SLOAD DUP6 SWAP3 SWAP1 PUSH2 0xA74 SWAP1 DUP5 SWAP1 PUSH2 0x24D3 JUMP JUMPDEST SWAP1 SWAP2 SSTORE POP POP PUSH1 0x1 PUSH1 0x1 PUSH1 0xA0 SHL SUB DUP1 DUP6 AND PUSH1 0x0 DUP2 DUP2 MSTORE PUSH1 0x3 PUSH1 0x20 MSTORE PUSH1 0x40 SWAP1 DUP2 SWAP1 KECCAK256 DUP1 SLOAD DUP8 ADD SWAP1 SSTORE MLOAD SWAP1 SWAP2 DUP8 AND SWAP1 PUSH1 0x0 DUP1 MLOAD PUSH1 0x20 PUSH2 0x27CF DUP4 CODECOPY DUP2 MLOAD SWAP2 MSTORE SWAP1 PUSH2 0xABD SWAP1 DUP8 DUP2 MSTORE PUSH1 0x20 ADD SWAP1 JUMP JUMPDEST PUSH1 0x40 MLOAD DUP1 SWAP2 SUB SWAP1 LOG3 POP PUSH1 0x1 SWAP5 SWAP4 POP POP POP POP JUMP JUMPDEST PUSH1 0xD SLOAD TIMESTAMP GT ISZERO PUSH2 0xC38 JUMPI PUSH1 0xD SLOAD PUSH2 0xAE7 SWAP1 TIMESTAMP PUSH2 0x24D3 JUMP JUMPDEST PUSH1 0xA SLOAD PUSH1 0xF SLOAD PUSH2 0xAFA SWAP1 PUSH2 0x2710 SWAP1 PUSH2 0x24EA JUMP JUMPDEST PUSH2 0xB04 SWAP2 SWAP1 PUSH2 0x2509 JUMP JUMPDEST PUSH2 0xB0E SWAP2 SWAP1 PUSH2 0x24EA JUMP JUMPDEST PUSH1 0xE PUSH1 0x0 DUP3 DUP3 SLOAD PUSH2 0xB1F SWAP2 SWAP1 PUSH2 0x252B JUMP JUMPDEST SWAP1 SWAP2 SSTORE POP POP TIMESTAMP PUSH1 0xD SSTORE PUSH2 0xB31 CALLER PUSH2 0x186C JUMP JUMPDEST PUSH1 0xA SLOAD PUSH1 0x0 SWAP1 PUSH4 0x5F5E100 PUSH2 0xB48 PUSH2 0x2710 DUP6 PUSH2 0x24EA JUMP JUMPDEST PUSH2 0xB52 SWAP2 SWAP1 PUSH2 0x24EA JUMP JUMPDEST PUSH2 0xB5C SWAP2 SWAP1 PUSH2 0x2509 JUMP JUMPDEST CALLER PUSH1 0x0 SWAP1 DUP2 MSTORE PUSH1 0xC PUSH1 0x20 MSTORE PUSH1 0x40 SWAP1 KECCAK256 SLOAD SWAP1 SWAP2 POP DUP2 LT PUSH2 0xBBB JUMPI PUSH1 0x40 MLOAD PUSH3 0x461BCD PUSH1 0xE5 SHL DUP2 MSTORE PUSH1 0x20 PUSH1 0x4 DUP3 ADD MSTORE PUSH1 0x16 PUSH1 0x24 DUP3 ADD MSTORE PUSH22 0x554E5354414B4520414D4F554E5420544F4F20424947 PUSH1 0x50 SHL PUSH1 0x44 DUP3 ADD MSTORE PUSH1 0x64 ADD JUMPDEST PUSH1 0x40 MLOAD DUP1 SWAP2 SUB SWAP1 REVERT JUMPDEST PUSH1 0x40 MLOAD PUSH4 0xA9059CBB PUSH1 0xE0 SHL DUP2 MSTORE CALLER PUSH1 0x4 DUP3 ADD MSTORE PUSH1 0x24 DUP2 ADD DUP4 SWAP1 MSTORE ADDRESS SWAP1 PUSH4 0xA9059CBB SWAP1 PUSH1 0x44 ADD PUSH1 0x20 PUSH1 0x40 MLOAD DUP1 DUP4 SUB DUP2 PUSH1 0x0 DUP8 GAS CALL ISZERO DUP1 ISZERO PUSH2 0xBFF JUMPI RETURNDATASIZE PUSH1 0x0 DUP1 RETURNDATACOPY RETURNDATASIZE PUSH1 0x0 REVERT JUMPDEST POP POP POP POP PUSH1 0x40 MLOAD RETURNDATASIZE PUSH1 0x1F NOT PUSH1 0x1F DUP3 ADD AND DUP3 ADD DUP1 PUSH1 0x40 MSTORE POP DUP2 ADD SWAP1 PUSH2 0xC23 SWAP2 SWAP1 PUSH2 0x2543 JUMP JUMPDEST POP POP CALLER PUSH1 0x0 SWAP1 DUP2 MSTORE PUSH1 0xC PUSH1 0x20 MSTORE PUSH1 0x40 DUP2 KECCAK256 SSTORE POP JUMP JUMPDEST PUSH2 0xC41 CALLER PUSH2 0x186C JUMP JUMPDEST PUSH1 0xA SLOAD PUSH1 0x0 SWAP1 PUSH4 0x5F5E100 PUSH2 0xC58 PUSH2 0x2710 DUP6 PUSH2 0x24EA JUMP JUMPDEST PUSH2 0xC62 SWAP2 SWAP1 PUSH2 0x24EA JUMP JUMPDEST PUSH2 0xC6C SWAP2 SWAP1 PUSH2 0x2509 JUMP JUMPDEST CALLER PUSH1 0x0 SWAP1 DUP2 MSTORE PUSH1 0xC PUSH1 0x20 MSTORE PUSH1 0x40 SWAP1 KECCAK256 SLOAD SWAP1 SWAP2 POP DUP2 LT PUSH2 0xBBB JUMPI PUSH1 0x40 MLOAD PUSH3 0x461BCD PUSH1 0xE5 SHL DUP2 MSTORE PUSH1 0x20 PUSH1 0x4 DUP3 ADD MSTORE PUSH1 0x16 PUSH1 0x24 DUP3 ADD MSTORE PUSH22 0x554E5354414B4520414D4F554E5420544F4F20424947 PUSH1 0x50 SHL PUSH1 0x44 DUP3 ADD MSTORE PUSH1 0x64 ADD PUSH2 0xBB2 JUMP JUMPDEST PUSH1 0xD SLOAD TIMESTAMP GT ISZERO PUSH2 0xDCE JUMPI PUSH1 0xD SLOAD PUSH2 0xCDD SWAP1 TIMESTAMP PUSH2 0x24D3 JUMP JUMPDEST PUSH1 0xA SLOAD PUSH1 0xF SLOAD PUSH2 0xCF0 SWAP1 PUSH2 0x2710 SWAP1 PUSH2 0x24EA JUMP JUMPDEST PUSH2 0xCFA SWAP2 SWAP1 PUSH2 0x2509 JUMP JUMPDEST PUSH2 0xD04 SWAP2 SWAP1 PUSH2 0x24EA JUMP JUMPDEST PUSH1 0xE PUSH1 0x0 DUP3 DUP3 SLOAD PUSH2 0xD15 SWAP2 SWAP1 PUSH2 0x252B JUMP JUMPDEST SWAP1 SWAP2 SSTORE POP POP TIMESTAMP PUSH1 0xD SSTORE PUSH1 0xA SLOAD CALLER PUSH1 0x0 DUP2 DUP2 MSTORE PUSH1 0xC PUSH1 0x20 MSTORE PUSH1 0x40 SWAP1 KECCAK256 SLOAD ADDRESS SWAP3 PUSH4 0xA9059CBB SWAP3 SWAP2 PUSH4 0x5F5E100 SWAP2 PUSH2 0xD49 SWAP2 PUSH2 0x24EA JUMP JUMPDEST PUSH2 0xD53 SWAP2 SWAP1 PUSH2 0x2509 JUMP JUMPDEST PUSH1 0x40 MLOAD PUSH1 0x1 PUSH1 0x1 PUSH1 0xE0 SHL SUB NOT PUSH1 0xE0 DUP6 SWAP1 SHL AND DUP2 MSTORE PUSH1 0x1 PUSH1 0x1 PUSH1 0xA0 SHL SUB SWAP1 SWAP3 AND PUSH1 0x4 DUP4 ADD MSTORE PUSH1 0x24 DUP3 ADD MSTORE PUSH1 0x44 ADD PUSH1 0x20 PUSH1 0x40 MLOAD DUP1 DUP4 SUB DUP2 PUSH1 0x0 DUP8 GAS CALL ISZERO DUP1 ISZERO PUSH2 0xD9E JUMPI RETURNDATASIZE PUSH1 0x0 DUP1 RETURNDATACOPY RETURNDATASIZE PUSH1 0x0 REVERT JUMPDEST POP POP POP POP PUSH1 0x40 MLOAD RETURNDATASIZE PUSH1 0x1F NOT PUSH1 0x1F DUP3 ADD AND DUP3 ADD DUP1 PUSH1 0x40 MSTORE POP DUP2 ADD SWAP1 PUSH2 0xDC2 SWAP2 SWAP1 PUSH2 0x2543 JUMP JUMPDEST POP PUSH2 0xDCC CALLER PUSH2 0x186C JUMP JUMPDEST JUMP JUMPDEST PUSH1 0xA SLOAD CALLER PUSH1 0x0 DUP2 DUP2 MSTORE PUSH1 0xC PUSH1 0x20 MSTORE PUSH1 0x40 SWAP1 KECCAK256 SLOAD ADDRESS SWAP3 PUSH4 0xA9059CBB SWAP3 SWAP2 PUSH4 0x5F5E100 SWAP2 PUSH2 0xD49 SWAP2 PUSH2 0x24EA JUMP JUMPDEST PUSH1 0x0 PUSH32 0x0 CHAINID EQ PUSH2 0xE2F JUMPI PUSH2 0xE2A PUSH2 0x1AC5 JUMP JUMPDEST SWAP1 POP SWAP1 JUMP JUMPDEST POP PUSH32 0x0 SWAP1 JUMP JUMPDEST PUSH1 0x9 SLOAD PUSH1 0x0 SWAP1 PUSH1 0x1 PUSH1 0x1 PUSH1 0xA0 SHL SUB AND CALLER EQ PUSH2 0xE6E JUMPI PUSH1 0x0 DUP1 REVERT JUMPDEST PUSH1 0x6 SLOAD PUSH3 0x10000 SWAP1 DIV PUSH1 0xFF AND ISZERO PUSH2 0xE84 JUMPI PUSH1 0x0 DUP1 REVERT JUMPDEST PUSH1 0x6 DUP1 SLOAD PUSH3 0xFF0000 NOT AND PUSH3 0x10000 OR SWAP1 SSTORE PUSH1 0x7 DUP1 SLOAD PUSH1 0x40 DUP1 MLOAD PUSH1 0x20 DUP1 DUP5 MUL DUP3 ADD DUP2 ADD SWAP1 SWAP3 MSTORE DUP3 DUP2 MSTORE PUSH1 0x0 SWAP4 SWAP1 SWAP3 SWAP1 SWAP2 DUP4 ADD DUP3 DUP3 DUP1 ISZERO PUSH2 0xEEC JUMPI PUSH1 0x20 MUL DUP3 ADD SWAP2 SWAP1 PUSH1 0x0 MSTORE PUSH1 0x20 PUSH1 0x0 KECCAK256 SWAP1 JUMPDEST DUP2 SLOAD PUSH1 0x1 PUSH1 0x1 PUSH1 0xA0 SHL SUB AND DUP2 MSTORE PUSH1 0x1 SWAP1 SWAP2 ADD SWAP1 PUSH1 0x20 ADD DUP1 DUP4 GT PUSH2 0xECE JUMPI JUMPDEST POP POP POP POP POP SWAP1 POP PUSH1 0x0 DUP1 PUSH1 0x0 DUP1 JUMPDEST DUP5 MLOAD DUP2 LT ISZERO PUSH2 0x1040 JUMPI PUSH1 0x8 PUSH1 0x0 DUP7 DUP4 DUP2 MLOAD DUP2 LT PUSH2 0xF19 JUMPI PUSH2 0xF19 PUSH2 0x236E JUMP JUMPDEST PUSH1 0x20 SWAP1 DUP2 MUL SWAP2 SWAP1 SWAP2 ADD DUP2 ADD MLOAD PUSH1 0x1 PUSH1 0x1 PUSH1 0xA0 SHL SUB SWAP1 DUP2 AND DUP4 MSTORE SWAP1 DUP3 ADD SWAP3 SWAP1 SWAP3 MSTORE PUSH1 0x40 ADD PUSH1 0x0 KECCAK256 DUP1 SLOAD PUSH1 0x2 DUP3 ADD SLOAD DUP9 MLOAD SWAP3 SWAP8 POP SWAP1 SWAP3 AND SWAP1 DUP8 SWAP1 DUP5 SWAP1 DUP2 LT PUSH2 0xF61 JUMPI PUSH2 0xF61 PUSH2 0x236E JUMP JUMPDEST PUSH1 0x20 SWAP1 DUP2 MUL SWAP2 SWAP1 SWAP2 ADD ADD MLOAD PUSH1 0x40 MLOAD PUSH4 0x23B872DD PUSH1 0xE0 SHL DUP2 MSTORE PUSH1 0x1 PUSH1 0x1 PUSH1 0xA0 SHL SUB DUP4 DUP2 AND PUSH1 0x4 DUP4 ADD MSTORE ADDRESS PUSH1 0x24 DUP4 ADD MSTORE PUSH1 0x44 DUP3 ADD DUP6 SWAP1 MSTORE SWAP1 SWAP2 AND SWAP1 PUSH4 0x23B872DD SWAP1 PUSH1 0x64 ADD PUSH1 0x20 PUSH1 0x40 MLOAD DUP1 DUP4 SUB DUP2 PUSH1 0x0 DUP8 GAS CALL ISZERO DUP1 ISZERO PUSH2 0xFC2 JUMPI RETURNDATASIZE PUSH1 0x0 DUP1 RETURNDATACOPY RETURNDATASIZE PUSH1 0x0 REVERT JUMPDEST POP POP POP POP PUSH1 0x40 MLOAD RETURNDATASIZE PUSH1 0x1F NOT PUSH1 0x1F DUP3 ADD AND DUP3 ADD DUP1 PUSH1 0x40 MSTORE POP DUP2 ADD SWAP1 PUSH2 0xFE6 SWAP2 SWAP1 PUSH2 0x2543 JUMP JUMPDEST POP PUSH1 0x1 DUP7 ADD SLOAD PUSH1 0x0 SWAP1 PUSH4 0x5F5E100 SWAP1 PUSH2 0x1008 SWAP1 PUSH1 0x1 PUSH1 0x1 PUSH1 0x80 SHL SUB AND DUP6 PUSH2 0x24EA JUMP JUMPDEST PUSH2 0x1012 SWAP2 SWAP1 PUSH2 0x2509 JUMP JUMPDEST SWAP1 POP PUSH2 0x101E DUP2 DUP7 PUSH2 0x252B JUMP JUMPDEST SWAP5 POP PUSH2 0x102A DUP3 DUP3 PUSH2 0x1B5F JUMP JUMPDEST POP POP POP DUP1 DUP1 PUSH2 0x1038 SWAP1 PUSH2 0x239A JUMP JUMPDEST SWAP2 POP POP PUSH2 0xEFA JUMP JUMPDEST POP PUSH1 0xB DUP1 SLOAD PUSH4 0xFFFFFFFF PUSH1 0x40 SHL NOT AND PUSH1 0x1 PUSH1 0x40 SHL TIMESTAMP PUSH4 0xFFFFFFFF SWAP1 DUP2 AND DUP3 MUL SWAP3 SWAP1 SWAP3 OR SWAP3 DUP4 SWAP1 SSTORE PUSH2 0x107F SWAP3 PUSH5 0x100000000 DUP2 DIV DUP4 AND SWAP3 SWAP2 SWAP1 DIV AND PUSH2 0x2565 JUMP JUMPDEST PUSH4 0xFFFFFFFF AND PUSH1 0xD SSTORE PUSH1 0x40 MLOAD TIMESTAMP DUP2 MSTORE PUSH32 0x83AAEE11563F280EAC61EBD060F088CE7577D5E823EFA6C78DE1CFEC8167605D SWAP1 PUSH1 0x20 ADD PUSH1 0x40 MLOAD DUP1 SWAP2 SUB SWAP1 LOG1 POP POP POP POP SWAP1 JUMP JUMPDEST PUSH1 0x9 SLOAD PUSH1 0x1 PUSH1 0x1 PUSH1 0xA0 SHL SUB AND CALLER EQ PUSH2 0x10D9 JUMPI PUSH1 0x0 DUP1 REVERT JUMPDEST PUSH1 0x6 SLOAD PUSH3 0x10000 SWAP1 DIV PUSH1 0xFF AND ISZERO PUSH2 0x10EF JUMPI PUSH1 0x0 DUP1 REVERT JUMPDEST DUP1 PUSH1 0x1 PUSH1 0x1 PUSH1 0xA0 SHL SUB AND SELFDESTRUCT JUMPDEST PUSH1 0x7 DUP2 DUP2 SLOAD DUP2 LT PUSH2 0x110B JUMPI PUSH1 0x0 DUP1 REVERT JUMPDEST PUSH1 0x0 SWAP2 DUP3 MSTORE PUSH1 0x20 SWAP1 SWAP2 KECCAK256 ADD SLOAD PUSH1 0x1 PUSH1 0x1 PUSH1 0xA0 SHL SUB AND SWAP1 POP DUP2 JUMP JUMPDEST PUSH1 0x1 DUP1 SLOAD PUSH2 0x646 SWAP1 PUSH2 0x2339 JUMP JUMPDEST PUSH1 0x7 SLOAD PUSH1 0x60 SWAP1 PUSH1 0x0 SWAP1 PUSH8 0xFFFFFFFFFFFFFFFF DUP2 GT ISZERO PUSH2 0x1153 JUMPI PUSH2 0x1153 PUSH2 0x1EE5 JUMP JUMPDEST PUSH1 0x40 MLOAD SWAP1 DUP1 DUP3 MSTORE DUP1 PUSH1 0x20 MUL PUSH1 0x20 ADD DUP3 ADD PUSH1 0x40 MSTORE DUP1 ISZERO PUSH2 0x117C JUMPI DUP2 PUSH1 0x20 ADD PUSH1 0x20 DUP3 MUL DUP1 CALLDATASIZE DUP4 CALLDATACOPY ADD SWAP1 POP JUMPDEST POP SWAP1 POP PUSH1 0x0 JUMPDEST PUSH1 0x7 SLOAD DUP2 LT ISZERO PUSH2 0x12F0 JUMPI PUSH1 0x0 PUSH1 0x8 PUSH1 0x0 PUSH1 0x7 DUP5 DUP2 SLOAD DUP2 LT PUSH2 0x11A5 JUMPI PUSH2 0x11A5 PUSH2 0x236E JUMP JUMPDEST PUSH1 0x0 SWAP2 DUP3 MSTORE PUSH1 0x20 DUP1 DUP4 KECCAK256 SWAP1 SWAP2 ADD SLOAD PUSH1 0x1 PUSH1 0x1 PUSH1 0xA0 SHL SUB SWAP1 DUP2 AND DUP5 MSTORE SWAP1 DUP4 ADD SWAP4 SWAP1 SWAP4 MSTORE PUSH1 0x40 SWAP1 SWAP2 ADD DUP2 KECCAK256 PUSH1 0x2 ADD SLOAD PUSH1 0x7 DUP1 SLOAD SWAP2 SWAP1 SWAP4 AND SWAP4 POP SWAP1 SWAP2 SWAP1 DUP5 SWAP1 DUP2 LT PUSH2 0x11EF JUMPI PUSH2 0x11EF PUSH2 0x236E JUMP JUMPDEST PUSH1 0x0 SWAP2 DUP3 MSTORE PUSH1 0x20 SWAP1 SWAP2 KECCAK256 ADD SLOAD PUSH1 0x40 MLOAD PUSH4 0x6EB1769F PUSH1 0xE1 SHL DUP2 MSTORE PUSH1 0x1 PUSH1 0x1 PUSH1 0xA0 SHL SUB DUP5 DUP2 AND PUSH1 0x4 DUP4 ADD MSTORE ADDRESS PUSH1 0x24 DUP4 ADD MSTORE SWAP1 SWAP2 AND SWAP1 PUSH4 0xDD62ED3E SWAP1 PUSH1 0x44 ADD PUSH1 0x20 PUSH1 0x40 MLOAD DUP1 DUP4 SUB DUP2 DUP7 GAS STATICCALL ISZERO DUP1 ISZERO PUSH2 0x1248 JUMPI RETURNDATASIZE PUSH1 0x0 DUP1 RETURNDATACOPY RETURNDATASIZE PUSH1 0x0 REVERT JUMPDEST POP POP POP POP PUSH1 0x40 MLOAD RETURNDATASIZE PUSH1 0x1F NOT PUSH1 0x1F DUP3 ADD AND DUP3 ADD DUP1 PUSH1 0x40 MSTORE POP DUP2 ADD SWAP1 PUSH2 0x126C SWAP2 SWAP1 PUSH2 0x258D JUMP JUMPDEST SWAP1 POP PUSH1 0x0 PUSH1 0x8 PUSH1 0x0 PUSH1 0x7 DUP7 DUP2 SLOAD DUP2 LT PUSH2 0x1287 JUMPI PUSH2 0x1287 PUSH2 0x236E JUMP JUMPDEST PUSH1 0x0 SWAP2 DUP3 MSTORE PUSH1 0x20 DUP1 DUP4 KECCAK256 SWAP1 SWAP2 ADD SLOAD PUSH1 0x1 PUSH1 0x1 PUSH1 0xA0 SHL SUB AND DUP4 MSTORE DUP3 ADD SWAP3 SWAP1 SWAP3 MSTORE PUSH1 0x40 ADD SWAP1 KECCAK256 SLOAD DUP6 MLOAD SWAP1 DUP4 LT ISZERO SWAP2 POP DUP2 SWAP1 DUP7 SWAP1 DUP7 SWAP1 DUP2 LT PUSH2 0x12C8 JUMPI PUSH2 0x12C8 PUSH2 0x236E JUMP JUMPDEST PUSH1 0x20 MUL PUSH1 0x20 ADD ADD SWAP1 ISZERO ISZERO SWAP1 DUP2 ISZERO ISZERO DUP2 MSTORE POP POP POP POP POP DUP1 DUP1 PUSH2 0x12E8 SWAP1 PUSH2 0x239A JUMP JUMPDEST SWAP2 POP POP PUSH2 0x1182 JUMP JUMPDEST POP SWAP2 SWAP1 POP JUMP JUMPDEST PUSH1 0xD SLOAD TIMESTAMP GT ISZERO PUSH2 0x13F9 JUMPI PUSH1 0xD SLOAD PUSH2 0x130D SWAP1 TIMESTAMP PUSH2 0x24D3 JUMP JUMPDEST PUSH1 0xA SLOAD PUSH1 0xF SLOAD PUSH2 0x1320 SWAP1 PUSH2 0x2710 SWAP1 PUSH2 0x24EA JUMP JUMPDEST PUSH2 0x132A SWAP2 SWAP1 PUSH2 0x2509 JUMP JUMPDEST PUSH2 0x1334 SWAP2 SWAP1 PUSH2 0x24EA JUMP JUMPDEST PUSH1 0xE PUSH1 0x0 DUP3 DUP3 SLOAD PUSH2 0x1345 SWAP2 SWAP1 PUSH2 0x252B JUMP JUMPDEST SWAP1 SWAP2 SSTORE POP POP TIMESTAMP PUSH1 0xD SSTORE PUSH1 0x40 DUP1 MLOAD PUSH1 0x80 DUP2 ADD SWAP1 SWAP2 MSTORE PUSH1 0xA SLOAD PUSH1 0x0 SWAP2 SWAP1 DUP2 SWAP1 PUSH4 0x5F5E100 PUSH2 0x1373 PUSH2 0x2710 DUP8 PUSH2 0x24EA JUMP JUMPDEST PUSH2 0x137D SWAP2 SWAP1 PUSH2 0x24EA JUMP JUMPDEST PUSH2 0x1387 SWAP2 SWAP1 PUSH2 0x2509 JUMP JUMPDEST DUP2 MSTORE PUSH1 0x20 ADD PUSH1 0xE SLOAD DUP2 MSTORE PUSH1 0x20 ADD TIMESTAMP DUP2 MSTORE PUSH1 0x20 ADD PUSH2 0x13A2 PUSH2 0x1BB9 JUMP JUMPDEST SWAP1 MSTORE CALLER PUSH1 0x0 SWAP1 DUP2 MSTORE PUSH1 0xC PUSH1 0x20 SWAP1 DUP2 MSTORE PUSH1 0x40 DUP1 DUP4 KECCAK256 DUP5 MLOAD DUP2 SSTORE SWAP2 DUP5 ADD MLOAD PUSH1 0x1 DUP4 ADD SSTORE DUP4 ADD MLOAD PUSH1 0x2 DUP3 ADD SSTORE PUSH1 0x60 DUP4 ADD MLOAD PUSH1 0x3 SWAP1 SWAP2 ADD SSTORE PUSH1 0xF DUP1 SLOAD SWAP3 SWAP4 POP DUP5 SWAP3 SWAP1 SWAP2 SWAP1 PUSH2 0x13ED SWAP1 DUP5 SWAP1 PUSH2 0x252B JUMP JUMPDEST SWAP1 SWAP2 SSTORE POP PUSH2 0x9E4 SWAP2 POP POP JUMP JUMPDEST PUSH1 0x40 DUP1 MLOAD PUSH1 0x80 DUP2 ADD SWAP1 SWAP2 MSTORE PUSH1 0xA SLOAD PUSH1 0x0 SWAP2 SWAP1 DUP2 SWAP1 PUSH4 0x5F5E100 PUSH2 0x141E PUSH2 0x2710 DUP8 PUSH2 0x24EA JUMP JUMPDEST PUSH2 0x1428 SWAP2 SWAP1 PUSH2 0x24EA JUMP JUMPDEST PUSH2 0x1432 SWAP2 SWAP1 PUSH2 0x2509 JUMP JUMPDEST DUP2 MSTORE PUSH1 0x20 ADD PUSH1 0xE SLOAD DUP2 MSTORE PUSH1 0x20 ADD TIMESTAMP DUP2 MSTORE PUSH1 0x20 ADD PUSH2 0x144D PUSH2 0x1BB9 JUMP JUMPDEST SWAP1 MSTORE CALLER PUSH1 0x0 SWAP1 DUP2 MSTORE PUSH1 0xC PUSH1 0x20 SWAP1 DUP2 MSTORE PUSH1 0x40 DUP1 DUP4 KECCAK256 DUP5 MLOAD DUP2 SSTORE SWAP2 DUP5 ADD MLOAD PUSH1 0x1 DUP4 ADD SSTORE DUP4 ADD MLOAD PUSH1 0x2 DUP3 ADD SSTORE PUSH1 0x60 DUP4 ADD MLOAD PUSH1 0x3 SWAP1 SWAP2 ADD SSTORE PUSH1 0xF DUP1 SLOAD SWAP3 SWAP4 POP DUP5 SWAP3 SWAP1 SWAP2 SWAP1 PUSH2 0x1498 SWAP1 DUP5 SWAP1 PUSH2 0x252B JUMP JUMPDEST SWAP1 SWAP2 SSTORE POP POP POP POP JUMP JUMPDEST CALLER PUSH1 0x0 SWAP1 DUP2 MSTORE PUSH1 0x3 PUSH1 0x20 MSTORE PUSH1 0x40 DUP2 KECCAK256 DUP1 SLOAD DUP4 SWAP2 SWAP1 DUP4 SWAP1 PUSH2 0x14C2 SWAP1 DUP5 SWAP1 PUSH2 0x24D3 JUMP JUMPDEST SWAP1 SWAP2 SSTORE POP POP PUSH1 0x1 PUSH1 0x1 PUSH1 0xA0 SHL SUB DUP4 AND PUSH1 0x0 DUP2 DUP2 MSTORE PUSH1 0x3 PUSH1 0x20 MSTORE PUSH1 0x40 SWAP1 DUP2 SWAP1 KECCAK256 DUP1 SLOAD DUP6 ADD SWAP1 SSTORE MLOAD CALLER SWAP1 PUSH1 0x0 DUP1 MLOAD PUSH1 0x20 PUSH2 0x27CF DUP4 CODECOPY DUP2 MLOAD SWAP2 MSTORE SWAP1 PUSH2 0x722 SWAP1 DUP7 DUP2 MSTORE PUSH1 0x20 ADD SWAP1 JUMP JUMPDEST PUSH1 0x40 DUP1 MLOAD PUSH1 0x80 DUP2 ADD DUP3 MSTORE PUSH1 0x0 DUP1 DUP3 MSTORE PUSH1 0x20 DUP3 ADD DUP2 SWAP1 MSTORE SWAP2 DUP2 ADD DUP3 SWAP1 MSTORE PUSH1 0x60 DUP2 ADD DUP3 SWAP1 MSTORE PUSH1 0x0 PUSH1 0x7 DUP5 DUP2 SLOAD DUP2 LT PUSH2 0x153F JUMPI PUSH2 0x153F PUSH2 0x236E JUMP JUMPDEST PUSH1 0x0 SWAP2 DUP3 MSTORE PUSH1 0x20 DUP1 DUP4 KECCAK256 SWAP1 SWAP2 ADD SLOAD PUSH1 0x1 PUSH1 0x1 PUSH1 0xA0 SHL SUB SWAP1 DUP2 AND DUP1 DUP5 MSTORE PUSH1 0x8 DUP4 MSTORE PUSH1 0x40 SWAP4 DUP5 SWAP1 KECCAK256 DUP5 MLOAD PUSH1 0x80 DUP2 ADD DUP7 MSTORE DUP2 SLOAD DUP2 MSTORE PUSH1 0x1 DUP3 ADD SLOAD PUSH1 0x1 PUSH1 0x1 PUSH1 0x80 SHL SUB DUP1 DUP3 AND SWAP7 DUP4 ADD SWAP7 SWAP1 SWAP7 MSTORE PUSH1 0x1 PUSH1 0x80 SHL SWAP1 DIV SWAP1 SWAP5 AND SWAP5 DUP5 ADD SWAP5 SWAP1 SWAP5 MSTORE PUSH1 0x2 SWAP1 SWAP4 ADD SLOAD AND PUSH1 0x60 DUP3 ADD MSTORE SWAP1 SWAP6 SWAP1 SWAP5 POP SWAP3 POP POP POP JUMP JUMPDEST TIMESTAMP DUP5 LT ISZERO PUSH2 0x1600 JUMPI PUSH1 0x40 MLOAD PUSH3 0x461BCD PUSH1 0xE5 SHL DUP2 MSTORE PUSH1 0x20 PUSH1 0x4 DUP3 ADD MSTORE PUSH1 0x17 PUSH1 0x24 DUP3 ADD MSTORE PUSH32 0x5045524D49545F444541444C494E455F45585049524544000000000000000000 PUSH1 0x44 DUP3 ADD MSTORE PUSH1 0x64 ADD PUSH2 0xBB2 JUMP JUMPDEST PUSH1 0x0 PUSH2 0x160A PUSH2 0xDF9 JUMP JUMPDEST PUSH1 0x1 PUSH1 0x1 PUSH1 0xA0 SHL SUB DUP10 DUP2 AND PUSH1 0x0 DUP2 DUP2 MSTORE PUSH1 0x5 PUSH1 0x20 SWAP1 DUP2 MSTORE PUSH1 0x40 SWAP2 DUP3 SWAP1 KECCAK256 DUP1 SLOAD PUSH1 0x1 DUP2 ADD SWAP1 SWAP2 SSTORE DUP3 MLOAD PUSH32 0x6E71EDAE12B1B97F4D1F60370FEF10105FA2FAAE0126114A169C64845D6126C9 DUP2 DUP5 ADD MSTORE DUP1 DUP5 ADD SWAP5 SWAP1 SWAP5 MSTORE SWAP4 DUP13 AND PUSH1 0x60 DUP5 ADD MSTORE PUSH1 0x80 DUP4 ADD DUP12 SWAP1 MSTORE PUSH1 0xA0 DUP4 ADD SWAP4 SWAP1 SWAP4 MSTORE PUSH1 0xC0 DUP1 DUP4 ADD DUP11 SWAP1 MSTORE DUP2 MLOAD DUP1 DUP5 SUB SWAP1 SWAP2 ADD DUP2 MSTORE PUSH1 0xE0 DUP4 ADD SWAP1 SWAP2 MSTORE DUP1 MLOAD SWAP3 ADD SWAP2 SWAP1 SWAP2 KECCAK256 PUSH2 0x1901 PUSH1 0xF0 SHL PUSH2 0x100 DUP4 ADD MSTORE PUSH2 0x102 DUP3 ADD SWAP3 SWAP1 SWAP3 MSTORE PUSH2 0x122 DUP2 ADD SWAP2 SWAP1 SWAP2 MSTORE PUSH2 0x142 ADD PUSH1 0x40 DUP1 MLOAD PUSH1 0x1F NOT DUP2 DUP5 SUB ADD DUP2 MSTORE DUP3 DUP3 MSTORE DUP1 MLOAD PUSH1 0x20 SWAP2 DUP3 ADD KECCAK256 PUSH1 0x0 DUP1 DUP6 MSTORE SWAP2 DUP5 ADD DUP1 DUP5 MSTORE DUP2 SWAP1 MSTORE PUSH1 0xFF DUP9 AND SWAP3 DUP5 ADD SWAP3 SWAP1 SWAP3 MSTORE PUSH1 0x60 DUP4 ADD DUP7 SWAP1 MSTORE PUSH1 0x80 DUP4 ADD DUP6 SWAP1 MSTORE SWAP1 SWAP3 POP SWAP1 PUSH1 0x1 SWAP1 PUSH1 0xA0 ADD PUSH1 0x20 PUSH1 0x40 MLOAD PUSH1 0x20 DUP2 SUB SWAP1 DUP1 DUP5 SUB SWAP1 DUP6 GAS STATICCALL ISZERO DUP1 ISZERO PUSH2 0x1723 JUMPI RETURNDATASIZE PUSH1 0x0 DUP1 RETURNDATACOPY RETURNDATASIZE PUSH1 0x0 REVERT JUMPDEST POP POP PUSH1 0x40 MLOAD PUSH1 0x1F NOT ADD MLOAD SWAP2 POP POP PUSH1 0x1 PUSH1 0x1 PUSH1 0xA0 SHL SUB DUP2 AND ISZERO DUP1 ISZERO SWAP1 PUSH2 0x1759 JUMPI POP DUP9 PUSH1 0x1 PUSH1 0x1 PUSH1 0xA0 SHL SUB AND DUP2 PUSH1 0x1 PUSH1 0x1 PUSH1 0xA0 SHL SUB AND EQ JUMPDEST PUSH2 0x1796 JUMPI PUSH1 0x40 MLOAD PUSH3 0x461BCD PUSH1 0xE5 SHL DUP2 MSTORE PUSH1 0x20 PUSH1 0x4 DUP3 ADD MSTORE PUSH1 0xE PUSH1 0x24 DUP3 ADD MSTORE PUSH14 0x24A72B20A624A22FA9A4A3A722A9 PUSH1 0x91 SHL PUSH1 0x44 DUP3 ADD MSTORE PUSH1 0x64 ADD PUSH2 0xBB2 JUMP JUMPDEST PUSH1 0x1 PUSH1 0x1 PUSH1 0xA0 SHL SUB SWAP1 DUP2 AND PUSH1 0x0 SWAP1 DUP2 MSTORE PUSH1 0x4 PUSH1 0x20 SWAP1 DUP2 MSTORE PUSH1 0x40 DUP1 DUP4 KECCAK256 DUP12 DUP6 AND DUP1 DUP6 MSTORE SWAP1 DUP4 MSTORE SWAP3 DUP2 SWAP1 KECCAK256 DUP11 SWAP1 SSTORE MLOAD DUP10 DUP2 MSTORE SWAP2 SWAP4 POP SWAP2 DUP11 AND SWAP2 PUSH32 0x8C5BE1E5EBEC7D5BD14F71427D1E84F3DD0314C0F7B2291E5B200AC8C7C3B925 SWAP2 ADD PUSH1 0x40 MLOAD DUP1 SWAP2 SUB SWAP1 LOG3 POP POP POP POP POP POP POP JUMP JUMPDEST PUSH1 0x9 SLOAD PUSH1 0x1 PUSH1 0x1 PUSH1 0xA0 SHL SUB AND CALLER EQ PUSH2 0x1818 JUMPI PUSH1 0x0 DUP1 REVERT JUMPDEST PUSH1 0x9 DUP1 SLOAD PUSH1 0x1 PUSH1 0x1 PUSH1 0xA0 SHL SUB NOT AND PUSH1 0x1 PUSH1 0x1 PUSH1 0xA0 SHL SUB DUP4 AND SWAP1 DUP2 OR SWAP1 SWAP2 SSTORE PUSH1 0x40 MLOAD SWAP1 DUP2 MSTORE PUSH32 0x39E7D4B9BA48F55A740A5192809DBC498FA12724C030B37DAB126A3F6774C0F3 SWAP1 PUSH1 0x20 ADD PUSH1 0x40 MLOAD DUP1 SWAP2 SUB SWAP1 LOG1 POP JUMP JUMPDEST PUSH1 0x0 PUSH2 0x1877 DUP3 PUSH2 0x1C5D JUMP JUMPDEST SWAP1 POP PUSH1 0x0 PUSH1 0x7 DUP1 SLOAD DUP1 PUSH1 0x20 MUL PUSH1 0x20 ADD PUSH1 0x40 MLOAD SWAP1 DUP2 ADD PUSH1 0x40 MSTORE DUP1 SWAP3 SWAP2 SWAP1 DUP2 DUP2 MSTORE PUSH1 0x20 ADD DUP3 DUP1 SLOAD DUP1 ISZERO PUSH2 0x18D1 JUMPI PUSH1 0x20 MUL DUP3 ADD SWAP2 SWAP1 PUSH1 0x0 MSTORE PUSH1 0x20 PUSH1 0x0 KECCAK256 SWAP1 JUMPDEST DUP2 SLOAD PUSH1 0x1 PUSH1 0x1 PUSH1 0xA0 SHL SUB AND DUP2 MSTORE PUSH1 0x1 SWAP1 SWAP2 ADD SWAP1 PUSH1 0x20 ADD DUP1 DUP4 GT PUSH2 0x18B3 JUMPI JUMPDEST POP POP POP POP POP SWAP1 POP PUSH1 0x0 DUP2 MLOAD PUSH8 0xFFFFFFFFFFFFFFFF DUP2 GT ISZERO PUSH2 0x18F4 JUMPI PUSH2 0x18F4 PUSH2 0x1EE5 JUMP JUMPDEST PUSH1 0x40 MLOAD SWAP1 DUP1 DUP3 MSTORE DUP1 PUSH1 0x20 MUL PUSH1 0x20 ADD DUP3 ADD PUSH1 0x40 MSTORE DUP1 ISZERO PUSH2 0x191D JUMPI DUP2 PUSH1 0x20 ADD PUSH1 0x20 DUP3 MUL DUP1 CALLDATASIZE DUP4 CALLDATACOPY ADD SWAP1 POP JUMPDEST POP SWAP1 POP DUP3 ISZERO PUSH2 0x1ABF JUMPI PUSH1 0xE SLOAD PUSH1 0x1 PUSH1 0x1 PUSH1 0xA0 SHL SUB DUP6 AND PUSH1 0x0 SWAP1 DUP2 MSTORE PUSH1 0xC PUSH1 0x20 MSTORE PUSH1 0x40 SWAP1 KECCAK256 PUSH1 0x1 ADD SSTORE PUSH2 0x194D PUSH2 0x1BB9 JUMP JUMPDEST PUSH1 0x1 PUSH1 0x1 PUSH1 0xA0 SHL SUB DUP6 AND PUSH1 0x0 SWAP1 DUP2 MSTORE PUSH1 0xC PUSH1 0x20 MSTORE PUSH1 0x40 DUP2 KECCAK256 PUSH1 0x3 DUP2 ADD SWAP3 SWAP1 SWAP3 SSTORE TIMESTAMP PUSH1 0x2 DUP4 ADD SSTORE DUP2 SLOAD DUP6 SWAP3 SWAP2 SWAP1 PUSH2 0x1984 SWAP1 DUP5 SWAP1 PUSH2 0x24D3 JUMP JUMPDEST SWAP1 SWAP2 SSTORE POP POP PUSH1 0xA SLOAD PUSH2 0x19A1 SWAP1 DUP6 SWAP1 PUSH2 0x199C SWAP1 DUP7 PUSH2 0x24EA JUMP JUMPDEST PUSH2 0x1D7D JUMP JUMPDEST PUSH1 0x0 JUMPDEST DUP3 MLOAD DUP2 LT ISZERO PUSH2 0x1A80 JUMPI PUSH1 0x0 PUSH2 0x19B9 DUP6 DUP4 PUSH2 0x1DDF JUMP JUMPDEST SWAP1 POP DUP1 DUP4 DUP4 DUP2 MLOAD DUP2 LT PUSH2 0x19CE JUMPI PUSH2 0x19CE PUSH2 0x236E JUMP JUMPDEST PUSH1 0x20 MUL PUSH1 0x20 ADD ADD DUP2 DUP2 MSTORE POP POP DUP4 DUP3 DUP2 MLOAD DUP2 LT PUSH2 0x19EC JUMPI PUSH2 0x19EC PUSH2 0x236E JUMP JUMPDEST PUSH1 0x20 SWAP1 DUP2 MUL SWAP2 SWAP1 SWAP2 ADD ADD MLOAD PUSH1 0x40 MLOAD PUSH4 0xA9059CBB PUSH1 0xE0 SHL DUP2 MSTORE PUSH1 0x1 PUSH1 0x1 PUSH1 0xA0 SHL SUB DUP9 DUP2 AND PUSH1 0x4 DUP4 ADD MSTORE PUSH1 0x24 DUP3 ADD DUP5 SWAP1 MSTORE SWAP1 SWAP2 AND SWAP1 PUSH4 0xA9059CBB SWAP1 PUSH1 0x44 ADD PUSH1 0x20 PUSH1 0x40 MLOAD DUP1 DUP4 SUB DUP2 PUSH1 0x0 DUP8 GAS CALL ISZERO DUP1 ISZERO PUSH2 0x1A47 JUMPI RETURNDATASIZE PUSH1 0x0 DUP1 RETURNDATACOPY RETURNDATASIZE PUSH1 0x0 REVERT JUMPDEST POP POP POP POP PUSH1 0x40 MLOAD RETURNDATASIZE PUSH1 0x1F NOT PUSH1 0x1F DUP3 ADD AND DUP3 ADD DUP1 PUSH1 0x40 MSTORE POP DUP2 ADD SWAP1 PUSH2 0x1A6B SWAP2 SWAP1 PUSH2 0x2543 JUMP JUMPDEST POP POP DUP1 DUP1 PUSH2 0x1A78 SWAP1 PUSH2 0x239A JUMP JUMPDEST SWAP2 POP POP PUSH2 0x19A4 JUMP JUMPDEST POP PUSH32 0x39799AE7423F24077D39DA7D23F675B0A56D381A884D5714932B9DC762BDB52 DUP5 DUP5 DUP5 DUP5 PUSH1 0x40 MLOAD PUSH2 0x1AB6 SWAP5 SWAP4 SWAP3 SWAP2 SWAP1 PUSH2 0x25A6 JUMP JUMPDEST PUSH1 0x40 MLOAD DUP1 SWAP2 SUB SWAP1 LOG1 JUMPDEST POP POP POP POP JUMP JUMPDEST PUSH1 0x0 PUSH32 0x8B73C3C69BB8FE3D512ECC4CF759CC79239F7B179B0FFACAA9A75D522B39400F PUSH1 0x0 PUSH1 0x40 MLOAD PUSH2 0x1AF7 SWAP2 SWAP1 PUSH2 0x25DF JUMP JUMPDEST PUSH1 0x40 DUP1 MLOAD SWAP2 DUP3 SWAP1 SUB DUP3 KECCAK256 PUSH1 0x20 DUP4 ADD SWAP4 SWAP1 SWAP4 MSTORE DUP2 ADD SWAP2 SWAP1 SWAP2 MSTORE PUSH32 0xC89EFDAA54C0F20C7ADF612882DF0950F5A951637E0307CDCB4C672F298B8BC6 PUSH1 0x60 DUP3 ADD MSTORE CHAINID PUSH1 0x80 DUP3 ADD MSTORE ADDRESS PUSH1 0xA0 DUP3 ADD MSTORE PUSH1 0xC0 ADD PUSH1 0x40 MLOAD PUSH1 0x20 DUP2 DUP4 SUB SUB DUP2 MSTORE SWAP1 PUSH1 0x40 MSTORE DUP1 MLOAD SWAP1 PUSH1 0x20 ADD KECCAK256 SWAP1 POP SWAP1 JUMP JUMPDEST DUP1 PUSH1 0x2 PUSH1 0x0 DUP3 DUP3 SLOAD PUSH2 0x1B71 SWAP2 SWAP1 PUSH2 0x252B JUMP JUMPDEST SWAP1 SWAP2 SSTORE POP POP PUSH1 0x1 PUSH1 0x1 PUSH1 0xA0 SHL SUB DUP3 AND PUSH1 0x0 DUP2 DUP2 MSTORE PUSH1 0x3 PUSH1 0x20 SWAP1 DUP2 MSTORE PUSH1 0x40 DUP1 DUP4 KECCAK256 DUP1 SLOAD DUP7 ADD SWAP1 SSTORE MLOAD DUP5 DUP2 MSTORE PUSH1 0x0 DUP1 MLOAD PUSH1 0x20 PUSH2 0x27CF DUP4 CODECOPY DUP2 MLOAD SWAP2 MSTORE SWAP2 ADD JUMPDEST PUSH1 0x40 MLOAD DUP1 SWAP2 SUB SWAP1 LOG3 POP POP JUMP JUMPDEST PUSH1 0xB SLOAD PUSH1 0x0 SWAP1 PUSH1 0x1 PUSH1 0x40 SHL SWAP1 DIV PUSH4 0xFFFFFFFF AND DUP1 PUSH2 0x1BD9 JUMPI PUSH1 0x0 SWAP2 POP POP SWAP1 JUMP JUMPDEST PUSH1 0xB SLOAD PUSH4 0xFFFFFFFF AND PUSH1 0x0 PUSH2 0x1BEE DUP4 TIMESTAMP PUSH2 0x267B JUMP JUMPDEST SWAP1 POP DUP1 PUSH4 0xFFFFFFFF AND DUP3 PUSH4 0xFFFFFFFF AND GT PUSH2 0x1C0E JUMPI POP PUSH2 0x2710 SWAP4 SWAP3 POP POP POP JUMP JUMPDEST PUSH1 0xB SLOAD PUSH4 0xFFFFFFFF PUSH5 0x100000000 SWAP1 SWAP2 DIV DUP2 AND SWAP1 DUP3 AND GT PUSH2 0x1C33 JUMPI PUSH1 0x0 SWAP4 POP POP POP POP SWAP1 JUMP JUMPDEST PUSH4 0xFFFFFFFF DUP1 DUP4 AND SWAP1 PUSH2 0x1C4B SWAP1 PUSH2 0x2710 SWAP1 DUP5 AND PUSH2 0x24EA JUMP JUMPDEST PUSH2 0x1C55 SWAP2 SWAP1 PUSH2 0x2509 JUMP JUMPDEST SWAP4 POP POP POP POP SWAP1 JUMP JUMPDEST PUSH1 0x1 PUSH1 0x1 PUSH1 0xA0 SHL SUB DUP2 AND PUSH1 0x0 SWAP1 DUP2 MSTORE PUSH1 0xC PUSH1 0x20 MSTORE PUSH1 0x40 DUP2 KECCAK256 PUSH1 0x2 ADD SLOAD DUP2 SWAP1 PUSH2 0x1C85 SWAP1 TIMESTAMP PUSH2 0x24D3 JUMP JUMPDEST PUSH1 0x1 PUSH1 0x1 PUSH1 0xA0 SHL SUB DUP5 AND PUSH1 0x0 SWAP1 DUP2 MSTORE PUSH1 0xC PUSH1 0x20 MSTORE PUSH1 0x40 DUP2 KECCAK256 PUSH1 0x3 ADD SLOAD SWAP2 SWAP3 POP SWAP1 PUSH2 0x1CAD PUSH2 0x1BB9 JUMP JUMPDEST PUSH2 0x1CB7 SWAP2 SWAP1 PUSH2 0x24D3 JUMP JUMPDEST PUSH1 0x1 PUSH1 0x1 PUSH1 0xA0 SHL SUB DUP6 AND PUSH1 0x0 SWAP1 DUP2 MSTORE PUSH1 0xC PUSH1 0x20 MSTORE PUSH1 0x40 DUP2 KECCAK256 PUSH1 0x1 ADD SLOAD PUSH1 0xE SLOAD SWAP3 SWAP4 POP SWAP1 SWAP2 PUSH2 0x1CE5 SWAP2 SWAP1 PUSH2 0x24D3 JUMP JUMPDEST SWAP1 POP PUSH1 0x0 PUSH2 0x1CF3 DUP5 DUP4 PUSH2 0x2509 JUMP JUMPDEST PUSH1 0x1 PUSH1 0x1 PUSH1 0xA0 SHL SUB DUP8 AND PUSH1 0x0 SWAP1 DUP2 MSTORE PUSH1 0xC PUSH1 0x20 MSTORE PUSH1 0x40 DUP2 KECCAK256 SLOAD SWAP2 SWAP3 POP SWAP1 DUP3 SWAP1 PUSH2 0x1D1F SWAP1 PUSH2 0x2710 SWAP1 PUSH2 0x24EA JUMP JUMPDEST PUSH2 0x1D29 SWAP2 SWAP1 PUSH2 0x2509 JUMP JUMPDEST SWAP1 POP PUSH1 0x0 PUSH2 0x2710 PUSH2 0x1D3A DUP4 DUP8 PUSH2 0x24EA JUMP JUMPDEST PUSH2 0x1D44 SWAP2 SWAP1 PUSH2 0x2509 JUMP JUMPDEST SWAP1 POP PUSH1 0x10 SLOAD DUP7 LT PUSH2 0x1D5A JUMPI SWAP8 SWAP7 POP POP POP POP POP POP POP JUMP JUMPDEST PUSH1 0x10 SLOAD PUSH2 0x1D67 DUP8 DUP4 PUSH2 0x24EA JUMP JUMPDEST PUSH2 0x1D71 SWAP2 SWAP1 PUSH2 0x2509 JUMP JUMPDEST SWAP9 SWAP8 POP POP POP POP POP POP POP POP JUMP JUMPDEST PUSH1 0x1 PUSH1 0x1 PUSH1 0xA0 SHL SUB DUP3 AND PUSH1 0x0 SWAP1 DUP2 MSTORE PUSH1 0x3 PUSH1 0x20 MSTORE PUSH1 0x40 DUP2 KECCAK256 DUP1 SLOAD DUP4 SWAP3 SWAP1 PUSH2 0x1DA5 SWAP1 DUP5 SWAP1 PUSH2 0x24D3 JUMP JUMPDEST SWAP1 SWAP2 SSTORE POP POP PUSH1 0x2 DUP1 SLOAD DUP3 SWAP1 SUB SWAP1 SSTORE PUSH1 0x40 MLOAD DUP2 DUP2 MSTORE PUSH1 0x0 SWAP1 PUSH1 0x1 PUSH1 0x1 PUSH1 0xA0 SHL SUB DUP5 AND SWAP1 PUSH1 0x0 DUP1 MLOAD PUSH1 0x20 PUSH2 0x27CF DUP4 CODECOPY DUP2 MLOAD SWAP2 MSTORE SWAP1 PUSH1 0x20 ADD PUSH2 0x1BAD JUMP JUMPDEST PUSH1 0x0 PUSH2 0x1DF1 PUSH4 0x5F5E100 PUSH2 0x2710 PUSH2 0x27B1 JUMP JUMPDEST PUSH4 0xFFFFFFFF AND DUP4 PUSH1 0x8 PUSH1 0x0 PUSH1 0x7 DUP7 DUP2 SLOAD DUP2 LT PUSH2 0x1E0F JUMPI PUSH2 0x1E0F PUSH2 0x236E JUMP JUMPDEST PUSH1 0x0 SWAP2 DUP3 MSTORE PUSH1 0x20 DUP1 DUP4 KECCAK256 SWAP1 SWAP2 ADD SLOAD PUSH1 0x1 PUSH1 0x1 PUSH1 0xA0 SHL SUB AND DUP4 MSTORE DUP3 ADD SWAP3 SWAP1 SWAP3 MSTORE PUSH1 0x40 ADD SWAP1 KECCAK256 SLOAD PUSH2 0x1E3E SWAP2 SWAP1 PUSH2 0x24EA JUMP JUMPDEST PUSH2 0x1E48 SWAP2 SWAP1 PUSH2 0x2509 JUMP JUMPDEST SWAP4 SWAP3 POP POP POP JUMP JUMPDEST PUSH1 0x0 PUSH1 0x20 DUP1 DUP4 MSTORE DUP4 MLOAD DUP1 DUP3 DUP6 ADD MSTORE PUSH1 0x0 JUMPDEST DUP2 DUP2 LT ISZERO PUSH2 0x1E7C JUMPI DUP6 DUP2 ADD DUP4 ADD MLOAD DUP6 DUP3 ADD PUSH1 0x40 ADD MSTORE DUP3 ADD PUSH2 0x1E60 JUMP JUMPDEST DUP2 DUP2 GT ISZERO PUSH2 0x1E8E JUMPI PUSH1 0x0 PUSH1 0x40 DUP4 DUP8 ADD ADD MSTORE JUMPDEST POP PUSH1 0x1F ADD PUSH1 0x1F NOT AND SWAP3 SWAP1 SWAP3 ADD PUSH1 0x40 ADD SWAP4 SWAP3 POP POP POP JUMP JUMPDEST PUSH1 0x1 PUSH1 0x1 PUSH1 0xA0 SHL SUB DUP2 AND DUP2 EQ PUSH2 0x9E4 JUMPI PUSH1 0x0 DUP1 REVERT JUMPDEST PUSH1 0x0 DUP1 PUSH1 0x40 DUP4 DUP6 SUB SLT ISZERO PUSH2 0x1ECC JUMPI PUSH1 0x0 DUP1 REVERT JUMPDEST DUP3 CALLDATALOAD PUSH2 0x1ED7 DUP2 PUSH2 0x1EA4 JUMP JUMPDEST SWAP5 PUSH1 0x20 SWAP4 SWAP1 SWAP4 ADD CALLDATALOAD SWAP4 POP POP POP JUMP JUMPDEST PUSH4 0x4E487B71 PUSH1 0xE0 SHL PUSH1 0x0 MSTORE PUSH1 0x41 PUSH1 0x4 MSTORE PUSH1 0x24 PUSH1 0x0 REVERT JUMPDEST PUSH1 0x40 MLOAD PUSH1 0x60 DUP2 ADD PUSH8 0xFFFFFFFFFFFFFFFF DUP2 GT DUP3 DUP3 LT OR ISZERO PUSH2 0x1F1E JUMPI PUSH2 0x1F1E PUSH2 0x1EE5 JUMP JUMPDEST PUSH1 0x40 MSTORE SWAP1 JUMP JUMPDEST PUSH1 0x40 MLOAD PUSH1 0x1F DUP3 ADD PUSH1 0x1F NOT AND DUP2 ADD PUSH8 0xFFFFFFFFFFFFFFFF DUP2 GT DUP3 DUP3 LT OR ISZERO PUSH2 0x1F4D JUMPI PUSH2 0x1F4D PUSH2 0x1EE5 JUMP JUMPDEST PUSH1 0x40 MSTORE SWAP2 SWAP1 POP JUMP JUMPDEST DUP1 CALLDATALOAD PUSH4 0xFFFFFFFF DUP2 AND DUP2 EQ PUSH2 0x1F69 JUMPI PUSH1 0x0 DUP1 REVERT JUMPDEST SWAP2 SWAP1 POP JUMP JUMPDEST PUSH1 0x0 PUSH8 0xFFFFFFFFFFFFFFFF DUP3 GT ISZERO PUSH2 0x1F88 JUMPI PUSH2 0x1F88 PUSH2 0x1EE5 JUMP JUMPDEST POP PUSH1 0x5 SHL PUSH1 0x20 ADD SWAP1 JUMP JUMPDEST PUSH1 0x0 DUP3 PUSH1 0x1F DUP4 ADD SLT PUSH2 0x1FA3 JUMPI PUSH1 0x0 DUP1 REVERT JUMPDEST DUP2 CALLDATALOAD PUSH1 0x20 PUSH2 0x1FB8 PUSH2 0x1FB3 DUP4 PUSH2 0x1F6E JUMP JUMPDEST PUSH2 0x1F24 JUMP JUMPDEST DUP3 DUP2 MSTORE PUSH1 0x5 SWAP3 SWAP1 SWAP3 SHL DUP5 ADD DUP2 ADD SWAP2 DUP2 DUP2 ADD SWAP1 DUP7 DUP5 GT ISZERO PUSH2 0x1FD7 JUMPI PUSH1 0x0 DUP1 REVERT JUMPDEST DUP3 DUP7 ADD JUMPDEST DUP5 DUP2 LT ISZERO PUSH2 0x1FFB JUMPI DUP1 CALLDATALOAD PUSH2 0x1FEE DUP2 PUSH2 0x1EA4 JUMP JUMPDEST DUP4 MSTORE SWAP2 DUP4 ADD SWAP2 DUP4 ADD PUSH2 0x1FDB JUMP JUMPDEST POP SWAP7 SWAP6 POP POP POP POP POP POP JUMP JUMPDEST PUSH1 0x0 DUP3 PUSH1 0x1F DUP4 ADD SLT PUSH2 0x2017 JUMPI PUSH1 0x0 DUP1 REVERT JUMPDEST DUP2 CALLDATALOAD PUSH1 0x20 PUSH2 0x2027 PUSH2 0x1FB3 DUP4 PUSH2 0x1F6E JUMP JUMPDEST DUP3 DUP2 MSTORE PUSH1 0x5 SWAP3 SWAP1 SWAP3 SHL DUP5 ADD DUP2 ADD SWAP2 DUP2 DUP2 ADD SWAP1 DUP7 DUP5 GT ISZERO PUSH2 0x2046 JUMPI PUSH1 0x0 DUP1 REVERT JUMPDEST DUP3 DUP7 ADD JUMPDEST DUP5 DUP2 LT ISZERO PUSH2 0x1FFB JUMPI DUP1 CALLDATALOAD PUSH1 0x1 PUSH1 0x1 PUSH1 0x80 SHL SUB DUP2 AND DUP2 EQ PUSH2 0x206A JUMPI PUSH1 0x0 DUP1 DUP2 REVERT JUMPDEST DUP4 MSTORE SWAP2 DUP4 ADD SWAP2 DUP4 ADD PUSH2 0x204A JUMP JUMPDEST PUSH1 0x0 DUP3 PUSH1 0x1F DUP4 ADD SLT PUSH2 0x2088 JUMPI PUSH1 0x0 DUP1 REVERT JUMPDEST DUP2 CALLDATALOAD PUSH1 0x20 PUSH2 0x2098 PUSH2 0x1FB3 DUP4 PUSH2 0x1F6E JUMP JUMPDEST DUP3 DUP2 MSTORE PUSH1 0x5 SWAP3 SWAP1 SWAP3 SHL DUP5 ADD DUP2 ADD SWAP2 DUP2 DUP2 ADD SWAP1 DUP7 DUP5 GT ISZERO PUSH2 0x20B7 JUMPI PUSH1 0x0 DUP1 REVERT JUMPDEST DUP3 DUP7 ADD JUMPDEST DUP5 DUP2 LT ISZERO PUSH2 0x1FFB JUMPI DUP1 CALLDATALOAD DUP4 MSTORE SWAP2 DUP4 ADD SWAP2 DUP4 ADD PUSH2 0x20BB JUMP JUMPDEST PUSH1 0x0 DUP1 PUSH1 0x0 DUP1 PUSH1 0x0 DUP6 DUP8 SUB PUSH1 0xE0 DUP2 SLT ISZERO PUSH2 0x20EB JUMPI PUSH1 0x0 DUP1 REVERT JUMPDEST PUSH1 0x60 DUP2 SLT ISZERO PUSH2 0x20F9 JUMPI PUSH1 0x0 DUP1 REVERT JUMPDEST POP PUSH2 0x2102 PUSH2 0x1EFB JUMP JUMPDEST PUSH2 0x210B DUP8 PUSH2 0x1F55 JUMP JUMPDEST DUP2 MSTORE PUSH2 0x2119 PUSH1 0x20 DUP9 ADD PUSH2 0x1F55 JUMP JUMPDEST PUSH1 0x20 DUP3 ADD MSTORE PUSH2 0x212A PUSH1 0x40 DUP9 ADD PUSH2 0x1F55 JUMP JUMPDEST PUSH1 0x40 DUP3 ADD MSTORE SWAP5 POP PUSH1 0x60 DUP7 ADD CALLDATALOAD PUSH8 0xFFFFFFFFFFFFFFFF DUP1 DUP3 GT ISZERO PUSH2 0x214C JUMPI PUSH1 0x0 DUP1 REVERT JUMPDEST PUSH2 0x2158 DUP10 DUP4 DUP11 ADD PUSH2 0x1F92 JUMP JUMPDEST SWAP6 POP PUSH1 0x80 DUP9 ADD CALLDATALOAD SWAP2 POP DUP1 DUP3 GT ISZERO PUSH2 0x216E JUMPI PUSH1 0x0 DUP1 REVERT JUMPDEST PUSH2 0x217A DUP10 DUP4 DUP11 ADD PUSH2 0x2006 JUMP JUMPDEST SWAP5 POP PUSH1 0xA0 DUP9 ADD CALLDATALOAD SWAP2 POP DUP1 DUP3 GT ISZERO PUSH2 0x2190 JUMPI PUSH1 0x0 DUP1 REVERT JUMPDEST PUSH2 0x219C DUP10 DUP4 DUP11 ADD PUSH2 0x1F92 JUMP JUMPDEST SWAP4 POP PUSH1 0xC0 DUP9 ADD CALLDATALOAD SWAP2 POP DUP1 DUP3 GT ISZERO PUSH2 0x21B2 JUMPI PUSH1 0x0 DUP1 REVERT JUMPDEST POP PUSH2 0x21BF DUP9 DUP3 DUP10 ADD PUSH2 0x2077 JUMP JUMPDEST SWAP2 POP POP SWAP3 SWAP6 POP SWAP3 SWAP6 SWAP1 SWAP4 POP JUMP JUMPDEST PUSH1 0x0 PUSH1 0x20 DUP3 DUP5 SUB SLT ISZERO PUSH2 0x21DE JUMPI PUSH1 0x0 DUP1 REVERT JUMPDEST DUP2 CALLDATALOAD PUSH2 0x1E48 DUP2 PUSH2 0x1EA4 JUMP JUMPDEST PUSH1 0x0 DUP1 PUSH1 0x0 PUSH1 0x60 DUP5 DUP7 SUB SLT ISZERO PUSH2 0x21FE JUMPI PUSH1 0x0 DUP1 REVERT JUMPDEST DUP4 CALLDATALOAD PUSH2 0x2209 DUP2 PUSH2 0x1EA4 JUMP JUMPDEST SWAP3 POP PUSH1 0x20 DUP5 ADD CALLDATALOAD PUSH2 0x2219 DUP2 PUSH2 0x1EA4 JUMP JUMPDEST SWAP3 SWAP6 SWAP3 SWAP5 POP POP POP PUSH1 0x40 SWAP2 SWAP1 SWAP2 ADD CALLDATALOAD SWAP1 JUMP JUMPDEST PUSH1 0x0 PUSH1 0x20 DUP3 DUP5 SUB SLT ISZERO PUSH2 0x223C JUMPI PUSH1 0x0 DUP1 REVERT JUMPDEST POP CALLDATALOAD SWAP2 SWAP1 POP JUMP JUMPDEST PUSH1 0x20 DUP1 DUP3 MSTORE DUP3 MLOAD DUP3 DUP3 ADD DUP2 SWAP1 MSTORE PUSH1 0x0 SWAP2 SWAP1 DUP5 DUP3 ADD SWAP1 PUSH1 0x40 DUP6 ADD SWAP1 DUP5 JUMPDEST DUP2 DUP2 LT ISZERO PUSH2 0x227D JUMPI DUP4 MLOAD ISZERO ISZERO DUP4 MSTORE SWAP3 DUP5 ADD SWAP3 SWAP2 DUP5 ADD SWAP2 PUSH1 0x1 ADD PUSH2 0x225F JUMP JUMPDEST POP SWAP1 SWAP7 SWAP6 POP POP POP POP POP POP JUMP JUMPDEST PUSH1 0x0 DUP1 PUSH1 0x0 DUP1 PUSH1 0x0 DUP1 PUSH1 0x0 PUSH1 0xE0 DUP9 DUP11 SUB SLT ISZERO PUSH2 0x22A4 JUMPI PUSH1 0x0 DUP1 REVERT JUMPDEST DUP8 CALLDATALOAD PUSH2 0x22AF DUP2 PUSH2 0x1EA4 JUMP JUMPDEST SWAP7 POP PUSH1 0x20 DUP9 ADD CALLDATALOAD PUSH2 0x22BF DUP2 PUSH2 0x1EA4 JUMP JUMPDEST SWAP6 POP PUSH1 0x40 DUP9 ADD CALLDATALOAD SWAP5 POP PUSH1 0x60 DUP9 ADD CALLDATALOAD SWAP4 POP PUSH1 0x80 DUP9 ADD CALLDATALOAD PUSH1 0xFF DUP2 AND DUP2 EQ PUSH2 0x22E3 JUMPI PUSH1 0x0 DUP1 REVERT JUMPDEST SWAP7 SWAP10 SWAP6 SWAP9 POP SWAP4 SWAP7 SWAP3 SWAP6 SWAP5 PUSH1 0xA0 DUP5 ADD CALLDATALOAD SWAP5 POP PUSH1 0xC0 SWAP1 SWAP4 ADD CALLDATALOAD SWAP3 SWAP2 POP POP JUMP JUMPDEST PUSH1 0x0 DUP1 PUSH1 0x40 DUP4 DUP6 SUB SLT ISZERO PUSH2 0x2313 JUMPI PUSH1 0x0 DUP1 REVERT JUMPDEST DUP3 CALLDATALOAD PUSH2 0x231E DUP2 PUSH2 0x1EA4 JUMP JUMPDEST SWAP2 POP PUSH1 0x20 DUP4 ADD CALLDATALOAD PUSH2 0x232E DUP2 PUSH2 0x1EA4 JUMP JUMPDEST DUP1 SWAP2 POP POP SWAP3 POP SWAP3 SWAP1 POP JUMP JUMPDEST PUSH1 0x1 DUP2 DUP2 SHR SWAP1 DUP3 AND DUP1 PUSH2 0x234D JUMPI PUSH1 0x7F DUP3 AND SWAP2 POP JUMPDEST PUSH1 0x20 DUP3 LT DUP2 EQ ISZERO PUSH2 0x12F0 JUMPI PUSH4 0x4E487B71 PUSH1 0xE0 SHL PUSH1 0x0 MSTORE PUSH1 0x22 PUSH1 0x4 MSTORE PUSH1 0x24 PUSH1 0x0 REVERT JUMPDEST PUSH4 0x4E487B71 PUSH1 0xE0 SHL PUSH1 0x0 MSTORE PUSH1 0x32 PUSH1 0x4 MSTORE PUSH1 0x24 PUSH1 0x0 REVERT JUMPDEST PUSH4 0x4E487B71 PUSH1 0xE0 SHL PUSH1 0x0 MSTORE PUSH1 0x11 PUSH1 0x4 MSTORE PUSH1 0x24 PUSH1 0x0 REVERT JUMPDEST PUSH1 0x0 PUSH1 0x0 NOT DUP3 EQ ISZERO PUSH2 0x23AE JUMPI PUSH2 0x23AE PUSH2 0x2384 JUMP JUMPDEST POP PUSH1 0x1 ADD SWAP1 JUMP JUMPDEST PUSH1 0x0 DUP2 MLOAD DUP1 DUP5 MSTORE PUSH1 0x20 DUP1 DUP6 ADD SWAP5 POP DUP1 DUP5 ADD PUSH1 0x0 JUMPDEST DUP4 DUP2 LT ISZERO PUSH2 0x23EE JUMPI DUP2 MLOAD PUSH1 0x1 PUSH1 0x1 PUSH1 0xA0 SHL SUB AND DUP8 MSTORE SWAP6 DUP3 ADD SWAP6 SWAP1 DUP3 ADD SWAP1 PUSH1 0x1 ADD PUSH2 0x23C9 JUMP JUMPDEST POP SWAP5 SWAP6 SWAP5 POP POP POP POP POP JUMP JUMPDEST PUSH1 0x0 DUP2 MLOAD DUP1 DUP5 MSTORE PUSH1 0x20 DUP1 DUP6 ADD SWAP5 POP DUP1 DUP5 ADD PUSH1 0x0 JUMPDEST DUP4 DUP2 LT ISZERO PUSH2 0x23EE JUMPI DUP2 MLOAD DUP8 MSTORE SWAP6 DUP3 ADD SWAP6 SWAP1 DUP3 ADD SWAP1 PUSH1 0x1 ADD PUSH2 0x240D JUMP JUMPDEST PUSH1 0xC0 DUP2 MSTORE PUSH1 0x0 PUSH2 0x243C PUSH1 0xC0 DUP4 ADD DUP10 PUSH2 0x23B5 JUMP JUMPDEST DUP3 DUP2 SUB PUSH1 0x20 DUP5 DUP2 ADD SWAP2 SWAP1 SWAP2 MSTORE DUP9 MLOAD DUP1 DUP4 MSTORE DUP10 DUP3 ADD SWAP3 DUP3 ADD SWAP1 PUSH1 0x0 JUMPDEST DUP2 DUP2 LT ISZERO PUSH2 0x247C JUMPI DUP5 MLOAD PUSH1 0x1 PUSH1 0x1 PUSH1 0x80 SHL SUB AND DUP4 MSTORE SWAP4 DUP4 ADD SWAP4 SWAP2 DUP4 ADD SWAP2 PUSH1 0x1 ADD PUSH2 0x2457 JUMP JUMPDEST POP POP DUP5 DUP2 SUB PUSH1 0x40 DUP7 ADD MSTORE PUSH2 0x2490 DUP2 DUP11 PUSH2 0x23B5 JUMP JUMPDEST SWAP3 POP POP POP DUP3 DUP2 SUB PUSH1 0x60 DUP5 ADD MSTORE PUSH2 0x24A6 DUP2 DUP8 PUSH2 0x23F9 JUMP JUMPDEST SWAP2 POP POP PUSH2 0x24BB PUSH1 0x80 DUP4 ADD DUP6 PUSH4 0xFFFFFFFF AND SWAP1 MSTORE JUMP JUMPDEST PUSH4 0xFFFFFFFF DUP4 AND PUSH1 0xA0 DUP4 ADD MSTORE JUMPDEST SWAP8 SWAP7 POP POP POP POP POP POP POP JUMP JUMPDEST PUSH1 0x0 DUP3 DUP3 LT ISZERO PUSH2 0x24E5 JUMPI PUSH2 0x24E5 PUSH2 0x2384 JUMP JUMPDEST POP SUB SWAP1 JUMP JUMPDEST PUSH1 0x0 DUP2 PUSH1 0x0 NOT DIV DUP4 GT DUP3 ISZERO ISZERO AND ISZERO PUSH2 0x2504 JUMPI PUSH2 0x2504 PUSH2 0x2384 JUMP JUMPDEST POP MUL SWAP1 JUMP JUMPDEST PUSH1 0x0 DUP3 PUSH2 0x2526 JUMPI PUSH4 0x4E487B71 PUSH1 0xE0 SHL PUSH1 0x0 MSTORE PUSH1 0x12 PUSH1 0x4 MSTORE PUSH1 0x24 PUSH1 0x0 REVERT JUMPDEST POP DIV SWAP1 JUMP JUMPDEST PUSH1 0x0 DUP3 NOT DUP3 GT ISZERO PUSH2 0x253E JUMPI PUSH2 0x253E PUSH2 0x2384 JUMP JUMPDEST POP ADD SWAP1 JUMP JUMPDEST PUSH1 0x0 PUSH1 0x20 DUP3 DUP5 SUB SLT ISZERO PUSH2 0x2555 JUMPI PUSH1 0x0 DUP1 REVERT JUMPDEST DUP2 MLOAD DUP1 ISZERO ISZERO DUP2 EQ PUSH2 0x1E48 JUMPI PUSH1 0x0 DUP1 REVERT JUMPDEST PUSH1 0x0 PUSH4 0xFFFFFFFF DUP1 DUP4 AND DUP2 DUP6 AND DUP1 DUP4 SUB DUP3 GT ISZERO PUSH2 0x2584 JUMPI PUSH2 0x2584 PUSH2 0x2384 JUMP JUMPDEST ADD SWAP5 SWAP4 POP POP POP POP JUMP JUMPDEST PUSH1 0x0 PUSH1 0x20 DUP3 DUP5 SUB SLT ISZERO PUSH2 0x259F JUMPI PUSH1 0x0 DUP1 REVERT JUMPDEST POP MLOAD SWAP2 SWAP1 POP JUMP JUMPDEST PUSH1 0x1 DUP1 PUSH1 0xA0 SHL SUB DUP6 AND DUP2 MSTORE DUP4 PUSH1 0x20 DUP3 ADD MSTORE PUSH1 0x80 PUSH1 0x40 DUP3 ADD MSTORE PUSH1 0x0 PUSH2 0x25CD PUSH1 0x80 DUP4 ADD DUP6 PUSH2 0x23B5 JUMP JUMPDEST DUP3 DUP2 SUB PUSH1 0x60 DUP5 ADD MSTORE PUSH2 0x24C8 DUP2 DUP6 PUSH2 0x23F9 JUMP JUMPDEST PUSH1 0x0 DUP1 DUP4 SLOAD DUP2 PUSH1 0x1 DUP3 DUP2 SHR SWAP2 POP DUP1 DUP4 AND DUP1 PUSH2 0x25FB JUMPI PUSH1 0x7F DUP4 AND SWAP3 POP JUMPDEST PUSH1 0x20 DUP1 DUP5 LT DUP3 EQ ISZERO PUSH2 0x261B JUMPI PUSH4 0x4E487B71 PUSH1 0xE0 SHL DUP7 MSTORE PUSH1 0x22 PUSH1 0x4 MSTORE PUSH1 0x24 DUP7 REVERT JUMPDEST DUP2 DUP1 ISZERO PUSH2 0x262F JUMPI PUSH1 0x1 DUP2 EQ PUSH2 0x2640 JUMPI PUSH2 0x266D JUMP JUMPDEST PUSH1 0xFF NOT DUP7 AND DUP10 MSTORE DUP5 DUP10 ADD SWAP7 POP PUSH2 0x266D JUMP JUMPDEST PUSH1 0x0 DUP11 DUP2 MSTORE PUSH1 0x20 SWAP1 KECCAK256 PUSH1 0x0 JUMPDEST DUP7 DUP2 LT ISZERO PUSH2 0x2665 JUMPI DUP2 SLOAD DUP12 DUP3 ADD MSTORE SWAP1 DUP6 ADD SWAP1 DUP4 ADD PUSH2 0x264C JUMP JUMPDEST POP POP DUP5 DUP10 ADD SWAP7 POP JUMPDEST POP SWAP5 SWAP9 SWAP8 POP POP POP POP POP POP POP POP JUMP JUMPDEST PUSH1 0x0 PUSH4 0xFFFFFFFF DUP4 DUP2 AND SWAP1 DUP4 AND DUP2 DUP2 LT ISZERO PUSH2 0x2698 JUMPI PUSH2 0x2698 PUSH2 0x2384 JUMP JUMPDEST SUB SWAP4 SWAP3 POP POP POP JUMP JUMPDEST PUSH1 0x1 DUP2 DUP2 JUMPDEST DUP1 DUP6 GT ISZERO PUSH2 0x26DD JUMPI DUP2 PUSH4 0xFFFFFFFF DIV DUP3 GT ISZERO PUSH2 0x26C3 JUMPI PUSH2 0x26C3 PUSH2 0x2384 JUMP JUMPDEST DUP1 DUP6 AND ISZERO PUSH2 0x26D0 JUMPI SWAP2 DUP2 MUL SWAP2 JUMPDEST SWAP4 DUP5 SHR SWAP4 SWAP1 DUP1 MUL SWAP1 PUSH2 0x26A5 JUMP JUMPDEST POP SWAP3 POP SWAP3 SWAP1 POP JUMP JUMPDEST PUSH1 0x0 DUP3 PUSH2 0x26F4 JUMPI POP PUSH1 0x1 PUSH2 0x72E JUMP JUMPDEST DUP2 PUSH2 0x2701 JUMPI POP PUSH1 0x0 PUSH2 0x72E JUMP JUMPDEST DUP2 PUSH1 0x1 DUP2 EQ PUSH2 0x2717 JUMPI PUSH1 0x2 DUP2 EQ PUSH2 0x2721 JUMPI PUSH2 0x2752 JUMP JUMPDEST PUSH1 0x1 SWAP2 POP POP PUSH2 0x72E JUMP JUMPDEST PUSH1 0xFF DUP5 GT ISZERO PUSH2 0x2732 JUMPI PUSH2 0x2732 PUSH2 0x2384 JUMP JUMPDEST PUSH1 0x1 DUP5 SHL SWAP2 POP PUSH4 0xFFFFFFFF DUP3 GT ISZERO PUSH2 0x274C JUMPI PUSH2 0x274C PUSH2 0x2384 JUMP JUMPDEST POP PUSH2 0x72E JUMP JUMPDEST POP PUSH1 0x20 DUP4 LT PUSH2 0x133 DUP4 LT AND PUSH1 0x4E DUP5 LT PUSH1 0xB DUP5 LT AND OR ISZERO PUSH2 0x2789 JUMPI POP DUP2 DUP2 EXP PUSH4 0xFFFFFFFF DUP2 GT ISZERO PUSH2 0x2784 JUMPI PUSH2 0x2784 PUSH2 0x2384 JUMP JUMPDEST PUSH2 0x72E JUMP JUMPDEST PUSH2 0x2793 DUP4 DUP4 PUSH2 0x26A0 JUMP JUMPDEST DUP1 PUSH4 0xFFFFFFFF DIV DUP3 GT ISZERO PUSH2 0x27A9 JUMPI PUSH2 0x27A9 PUSH2 0x2384 JUMP JUMPDEST MUL SWAP4 SWAP3 POP POP POP JUMP JUMPDEST PUSH1 0x0 PUSH4 0xFFFFFFFF PUSH2 0x27C6 DUP2 DUP6 AND DUP3 DUP6 AND PUSH2 0x26E5 JUMP JUMPDEST SWAP5 SWAP4 POP POP POP POP JUMP INVALID 0xDD CALLCODE MSTORE 0xAD SHL 0xE2 0xC8 SWAP12 PUSH10 0xC2B068FC378DAA952BA7 CALL PUSH4 0xC4A11628 CREATE2 GAS 0x4D CREATE2 0x23 0xB3 0xEF LOG2 PUSH5 0x6970667358 0x22 SLT KECCAK256 0xED 0xEF MULMOD DUP5 PUSH23 0x3CEE00817E64C3A7276C4E48DB2F5131CA1409718576EA 0xE3 0xE8 CHAINID 0xAC PUSH5 0x736F6C6343 STOP ADDMOD EXP STOP CALLER ",
  "sha1": "5afec772d638cfda5d317bef116f6af90b3fdd1c",
  "source": "// SPDX-License-Identifier: AGPLv3\npragma solidity 0.8.10;\n\nimport \"../interfaces/IBuidlCollective.sol\";\nimport {ERC20} from \"./solmate/src/tokens/ERC20.sol\";\nimport \"@openzeppelin/contracts/token/ERC20/IERC20.sol\";\nimport \"@openzeppelin/contracts/proxy/utils/Initializable.sol\";\n//import \"@openzeppelin/contracts/token/ERC20/utils/SafeERC20.sol\";\n\ncontract BuidlCollective is ERC20, IBuidlCollective, Initializable{\n    //using SafeERC20 for ERC20;\n    bool collectiveStarted;\n    \n    struct Collective {\n        uint32 vestingTime;\n        uint32 cliff;\n        uint32 collectiveStart;\n    }\n    // tokenInfo\n    address[] public tokens;\n\n    mapping(address => TokenInfo) public tokenInfo;\n\n    address public admin;\n\n    struct TokenInfo {\n        uint256 target;\n        uint128 price;\n        uint128 claimed;\n        address user;\n    }\n\n    uint256 public totalAssets;\n    // keep track of tokenBalances\n    //mapping(address => uint256) tokenBalances;\n\n    Collective public collectiveInfo;\n    \n    ///////////////////////////////////////////\n    // Staking Logic\n    uint32 constant public BP  = 10000;\n    uint32 constant public VEST_MULTIPLIER = 10 ** 8;\n    mapping(address => UserInfo) public userInfo;\n    // timestamp\n    uint256 public lastCheckpoint;\n    // a checkpoint number based on percentageStaked(bp) * every second passed\n    uint256 public lastTWAP;\n    // totalStaked in percetnage(bp)\n    uint256 public totalStaked;\n    uint256 public releaseFactor = 86400 * 3;\n    \n    struct UserInfo {\n        // percentage(bp) in VEST_MULTIPLIER\n        uint256 depositedShare;\n        // last TWAP during stake/unstake/claim\n        uint256 lastCheckpointTWAP;\n        // last timestamp during stake/unstake/claim\n        uint256 lastCheckpointTime;\n        // last percentageVested during stake/unstake/claim\n        uint256 lastCheckpointPercentageVested;\n    }\n\n\n    modifier onlyAdmin() {\n        require(msg.sender == admin);\n        _;\n    }\n\n    constructor(string memory _name, string memory _symbol, uint8 _decimals) ERC20(_name, _symbol, _decimals) {}\n    //////////////////////////////////////////// SETTERS\n    // ADMIN FUNCTION //\n    // assumptions - 1 wallet => 1 token => 1 price\n    function initialize(Collective memory _collectiveInfo, address[] memory _tokens, uint128[] memory _prices, address[] memory _users, uint256[] memory _targets) onlyAdmin external {\n    //function initialize(string memory _name, string memory _symbol, uint8 _decimals, Collective memory _collectiveInfo, address[] memory _tokens, uint128[] memory _prices, address[] memory _users, uint256[] memory _targets) onlyAdmin external {\n        //admin = msg.sender;\n        //emit AdminChanged(_admin);\n        // name = _name;\n        // symbol = _symbol;\n        // decimals = _decimals;\n        collectiveInfo = _collectiveInfo;\n        collectiveInfo.collectiveStart = 0;\n        uint256 tokenLength = _tokens.length;\n        for (uint256 i = 0; i < tokenLength; i++) {\n            TokenInfo memory t = TokenInfo(\n                _targets[i],\n                _prices[i],\n                0,\n                _users[i]\n        );\n            tokenInfo[_tokens[i]] = t;\n            tokens.push(_tokens[i]);\n        }\n        emit LogNewCollectiveInitialized(_tokens, _prices, _users, _targets, collectiveInfo.cliff, collectiveInfo.vestingTime);\n        //emit LogNewCollectiveInitialized(_name, _symbol, _decimals, _tokens, _prices, _users, _targets, collectiveInfo.cliff, collectiveInfo.vestingTime);\n    }\n\n    // before startCollective, cancel the collective\n    function cancel(address payable to) onlyAdmin external {\n        require(collectiveStarted == false);\n        selfdestruct(to);\n    }\n    \n    function updateAdmin(address _newAdmin) onlyAdmin external {\n        admin = _newAdmin;\n        //AdminChanged(_newAdmin);\n        emit LogNewAdmin(_newAdmin);\n    }\n\n    function startCollective() external onlyAdmin returns (bool) {\n        require(collectiveStarted == false);\n        collectiveStarted = true;\n        address[] memory _tokens = tokens;\n        TokenInfo storage _tokenInfo;\n        uint256 amount;\n        uint256 _totalAssets;\n        for (uint256 i; i < _tokens.length; i++) {\n            _tokenInfo = tokenInfo[_tokens[i]]; \n            uint256 amount = _tokenInfo.target;\n            address contributor = _tokenInfo.user;\n            IERC20(_tokens[i]).transferFrom(contributor, address(this), amount);\n            // @TODO assetValue in price(128) / divided 10 ** 8\n            uint256 assetValue = amount * _tokenInfo.price / 1E8;\n            _totalAssets += assetValue;\n            //tokenBalances[_tokens[i]] = amount;\n            _mint(contributor, assetValue);\n        }\n        collectiveInfo.collectiveStart = uint32(block.timestamp);\n        lastCheckpoint = collectiveInfo.collectiveStart + collectiveInfo.cliff;\n        emit LogNewPoolInitialized(block.timestamp);\n    }\n\n    //////////\n    //////////////////////////////////////////////////////////////////////////////////////////////\n    // VIEW FUNCTION\n    // return adddress, targetSupply, price, contributor and also percentage\n    function readToken(uint256 _tokenId) public view returns (address, TokenInfo memory){\n        address tokenAddr = tokens[_tokenId];\n        return (tokenAddr, tokenInfo[tokenAddr]);\n    }\n    // return if tokens approval is completed for each tokens\n    function pokeApproval() public view returns(bool[] memory) {\n        bool[] memory approvals = new bool[](tokens.length);\n        for (uint256 i; i < tokens.length; i++) {\n            address contributor = tokenInfo[tokens[i]].user;\n            uint256 allowance = IERC20(tokens[i]).allowance(contributor, address(this));\n            bool approval = allowance >= tokenInfo[tokens[i]].target;\n            approvals[i] = approval;\n        }\n        return approvals;\n    } \n    //n /////////////////////////// STAKING LOGIC\n\n    modifier updateCheckpoint() {\n        if (block.timestamp > lastCheckpoint) {\n            lastTWAP += totalStaked * BP / totalAssets * (block.timestamp - lastCheckpoint);\n            lastCheckpoint = block.timestamp;\n            _;\n        } else {\n            _;\n        }\n        \n    }\n    \n\n    function stake(uint256 _assetValue) updateCheckpoint external {\n        //safeTransferFrom(address(this), comsg.senderaddress(this), _assetValue);\n        UserInfo memory u = UserInfo(_assetValue * BP * VEST_MULTIPLIER / totalAssets, lastTWAP, block.timestamp, getVestingPercent());\n        userInfo[msg.sender] = u;\n        totalStaked += _assetValue;\n    }\n\n    function unstake(uint256 _assetValueLeft) updateCheckpoint external {\n        _claim(msg.sender);\n        uint256 p = _assetValueLeft * BP * VEST_MULTIPLIER / totalAssets;\n        require( p < userInfo[msg.sender].depositedShare, \"UNSTAKE AMOUNT TOO BIG\");\n        IERC20(address(this)).transfer(msg.sender, _assetValueLeft);\n        userInfo[msg.sender].depositedShare = 0;\n    }\n    \n    function unstakeAll() updateCheckpoint external {\n        IERC20(address(this)).transfer(msg.sender, userInfo[msg.sender].depositedShare * totalAssets / VEST_MULTIPLIER);\n        _claim(msg.sender);\n    }\n\n    function claim(address user) updateCheckpoint external {\n        _claim(user);   \n    }\n\n    function _claim(address user) internal {\n        // @TODO should this share be simply percentage in BP?\n        uint256 share = _calculateShareToClaim(user);\n        address[] memory _tokens = tokens;\n        uint256[] memory amounts = new uint256[](_tokens.length);\n        if (share > 0) {\n            userInfo[user].lastCheckpointTWAP = lastTWAP;\n            userInfo[user].lastCheckpointPercentageVested = getVestingPercent();\n            userInfo[user].lastCheckpointTime = block.timestamp;\n            userInfo[user].depositedShare -= share;\n            _burn(user, share * totalAssets);\n            for (uint256 i = 0; i < _tokens.length; i++) {\n                uint256 amount = convertShareToToken(share, i);\n                amounts[i] = amount;\n                IERC20(_tokens[i]).transfer(user, amount);\n            }\n            emit LogClaim(user, share, _tokens, amounts);\n        }\n    }\n\n    function convertShareToToken(uint256 share, uint256 tokenId) internal view returns(uint256){\n        return tokenInfo[tokens[tokenId]].target * share / (BP ** VEST_MULTIPLIER);\n    } \n\n    // function vestedMultiplier(address user) internal view returns(uint256) {\n    //     uint256 elapsedTime = block.timestamp - UserInfo[user].lastCheckpointTime;\n    //     uint256 elapsedTWAP = lastTWAP - UserInfo[user].lastTWAP;\n    //     uint256 avgPercentage = elapsedTWAP / elapsedTime;\n    //     return VEST_MULTIPLIER * BP / avgPercentage;\n\n    // }\n    // return the share(% but in BP) to be claimed by user, multiplier by 10 ** 8\n    // \n    function _calculateShareToClaim(address user) internal view returns(uint256) {\n        uint256 elapsedTime = block.timestamp - userInfo[user].lastCheckpointTime;\n        uint256 elapsedVestingPercentage = getVestingPercent() - userInfo[user].lastCheckpointPercentageVested;\n        // stakedAvg\n        uint256 elapsedTWAP = lastTWAP - userInfo[user].lastCheckpointTWAP;\n        uint256 avgPercentageStaked = elapsedTWAP / elapsedTime;\n        // user's percentage out of allStaked during the period\n        uint256 userShareOfStaked = userInfo[user].depositedShare * BP / avgPercentageStaked;\n        // user can get elapsedAmount \n        uint256 userEntitlement = elapsedVestingPercentage * userShareOfStaked / BP;\n\n        if (elapsedTime >= releaseFactor) {\n            return userEntitlement;\n        } else {\n            return userEntitlement * elapsedTime / releaseFactor;\n        }\n        \n        \n   }\n    \n    ///////////////////////////// VESTING LOGIC\n    function getVestingPercent() internal view returns(uint256) {\n        uint32 startTime = collectiveInfo.collectiveStart;\n        if (startTime == 0) return 0;\n        uint32 vestingTime = collectiveInfo.vestingTime;\n        uint32 timePassed = uint32(block.timestamp) - startTime;\n        if (vestingTime <= timePassed) return BP;\n        if (timePassed <= collectiveInfo.cliff) return 0;\n        return uint256(timePassed) * BP / uint256(vestingTime);\n    }\n}\n",
  "sourcePath": "contracts/BuidlCollective.sol",
  "type": "contract"
}