{
    "abi": [
        {
            "inputs": [
                {
                    "internalType": "string",
                    "name": "_name",
                    "type": "string"
                },
                {
                    "internalType": "string",
                    "name": "_symbol",
                    "type": "string"
                },
                {
                    "internalType": "uint8",
                    "name": "_decimals",
                    "type": "uint8"
                }
            ],
            "stateMutability": "nonpayable",
            "type": "constructor"
        },
        {
            "anonymous": false,
            "inputs": [
                {
                    "indexed": true,
                    "internalType": "address",
                    "name": "owner",
                    "type": "address"
                },
                {
                    "indexed": true,
                    "internalType": "address",
                    "name": "spender",
                    "type": "address"
                },
                {
                    "indexed": false,
                    "internalType": "uint256",
                    "name": "amount",
                    "type": "uint256"
                }
            ],
            "name": "Approval",
            "type": "event"
        },
        {
            "anonymous": false,
            "inputs": [
                {
                    "indexed": false,
                    "internalType": "address",
                    "name": "newAdmin",
                    "type": "address"
                }
            ],
            "name": "LogNewAdmin",
            "type": "event"
        },
        {
            "anonymous": false,
            "inputs": [
                {
                    "indexed": false,
                    "internalType": "string[]",
                    "name": "namesOfParticipants",
                    "type": "string[]"
                },
                {
                    "indexed": false,
                    "internalType": "address[]",
                    "name": "tokens",
                    "type": "address[]"
                },
                {
                    "indexed": false,
                    "internalType": "uint128[]",
                    "name": "price",
                    "type": "uint128[]"
                },
                {
                    "indexed": false,
                    "internalType": "address[]",
                    "name": "users",
                    "type": "address[]"
                },
                {
                    "indexed": false,
                    "internalType": "uint256[]",
                    "name": "targets",
                    "type": "uint256[]"
                },
                {
                    "indexed": false,
                    "internalType": "uint32",
                    "name": "cliff",
                    "type": "uint32"
                },
                {
                    "indexed": false,
                    "internalType": "uint32",
                    "name": "vestimTime",
                    "type": "uint32"
                }
            ],
            "name": "LogNewCollectiveInitialized",
            "type": "event"
        },
        {
            "anonymous": false,
            "inputs": [
                {
                    "indexed": false,
                    "internalType": "uint256",
                    "name": "time",
                    "type": "uint256"
                }
            ],
            "name": "LogNewPoolInitialized",
            "type": "event"
        },
        {
            "anonymous": false,
            "inputs": [
                {
                    "indexed": false,
                    "internalType": "address",
                    "name": "user",
                    "type": "address"
                },
                {
                    "indexed": false,
                    "internalType": "uint256",
                    "name": "share",
                    "type": "uint256"
                },
                {
                    "indexed": false,
                    "internalType": "address[]",
                    "name": "tokens",
                    "type": "address[]"
                },
                {
                    "indexed": false,
                    "internalType": "uint256[]",
                    "name": "amounts",
                    "type": "uint256[]"
                }
            ],
            "name": "LogTokensClaimed",
            "type": "event"
        },
        {
            "anonymous": false,
            "inputs": [
                {
                    "indexed": false,
                    "internalType": "address",
                    "name": "user",
                    "type": "address"
                },
                {
                    "indexed": false,
                    "internalType": "uint256",
                    "name": "_assetValue",
                    "type": "uint256"
                }
            ],
            "name": "LogTokensStaked",
            "type": "event"
        },
        {
            "anonymous": false,
            "inputs": [
                {
                    "indexed": false,
                    "internalType": "address",
                    "name": "user",
                    "type": "address"
                },
                {
                    "indexed": false,
                    "internalType": "uint256",
                    "name": "_assetValue",
                    "type": "uint256"
                }
            ],
            "name": "LogTokensUnstaked",
            "type": "event"
        },
        {
            "anonymous": false,
            "inputs": [
                {
                    "indexed": true,
                    "internalType": "address",
                    "name": "from",
                    "type": "address"
                },
                {
                    "indexed": true,
                    "internalType": "address",
                    "name": "to",
                    "type": "address"
                },
                {
                    "indexed": false,
                    "internalType": "uint256",
                    "name": "amount",
                    "type": "uint256"
                }
            ],
            "name": "Transfer",
            "type": "event"
        },
        {
            "inputs": [],
            "name": "BP",
            "outputs": [
                {
                    "internalType": "uint32",
                    "name": "",
                    "type": "uint32"
                }
            ],
            "stateMutability": "view",
            "type": "function"
        },
        {
            "inputs": [],
            "name": "DOMAIN_SEPARATOR",
            "outputs": [
                {
                    "internalType": "bytes32",
                    "name": "",
                    "type": "bytes32"
                }
            ],
            "stateMutability": "view",
            "type": "function"
        },
        {
            "inputs": [],
            "name": "VEST_MULTIPLIER",
            "outputs": [
                {
                    "internalType": "uint256",
                    "name": "",
                    "type": "uint256"
                }
            ],
            "stateMutability": "view",
            "type": "function"
        },
        {
            "inputs": [],
            "name": "admin",
            "outputs": [
                {
                    "internalType": "address",
                    "name": "",
                    "type": "address"
                }
            ],
            "stateMutability": "view",
            "type": "function"
        },
        {
            "inputs": [
                {
                    "internalType": "address",
                    "name": "",
                    "type": "address"
                },
                {
                    "internalType": "address",
                    "name": "",
                    "type": "address"
                }
            ],
            "name": "allowance",
            "outputs": [
                {
                    "internalType": "uint256",
                    "name": "",
                    "type": "uint256"
                }
            ],
            "stateMutability": "view",
            "type": "function"
        },
        {
            "inputs": [
                {
                    "internalType": "address",
                    "name": "spender",
                    "type": "address"
                },
                {
                    "internalType": "uint256",
                    "name": "amount",
                    "type": "uint256"
                }
            ],
            "name": "approve",
            "outputs": [
                {
                    "internalType": "bool",
                    "name": "",
                    "type": "bool"
                }
            ],
            "stateMutability": "nonpayable",
            "type": "function"
        },
        {
            "inputs": [
                {
                    "internalType": "address",
                    "name": "",
                    "type": "address"
                }
            ],
            "name": "balanceOf",
            "outputs": [
                {
                    "internalType": "uint256",
                    "name": "",
                    "type": "uint256"
                }
            ],
            "stateMutability": "view",
            "type": "function"
        },
        {
            "inputs": [
                {
                    "internalType": "address",
                    "name": "user",
                    "type": "address"
                }
            ],
            "name": "calculateShareToClaim",
            "outputs": [
                {
                    "internalType": "uint256",
                    "name": "",
                    "type": "uint256"
                }
            ],
            "stateMutability": "view",
            "type": "function"
        },
        {
            "inputs": [
                {
                    "internalType": "address payable",
                    "name": "to",
                    "type": "address"
                }
            ],
            "name": "cancel",
            "outputs": [],
            "stateMutability": "nonpayable",
            "type": "function"
        },
        {
            "inputs": [],
            "name": "claim",
            "outputs": [],
            "stateMutability": "nonpayable",
            "type": "function"
        },
        {
            "inputs": [],
            "name": "collectiveInfo",
            "outputs": [
                {
                    "internalType": "uint32",
                    "name": "vestingTime",
                    "type": "uint32"
                },
                {
                    "internalType": "uint32",
                    "name": "cliff",
                    "type": "uint32"
                },
                {
                    "internalType": "uint32",
                    "name": "collectiveStart",
                    "type": "uint32"
                }
            ],
            "stateMutability": "view",
            "type": "function"
        },
        {
            "inputs": [],
            "name": "decimals",
            "outputs": [
                {
                    "internalType": "uint8",
                    "name": "",
                    "type": "uint8"
                }
            ],
            "stateMutability": "view",
            "type": "function"
        },
        {
            "inputs": [
                {
                    "internalType": "string[]",
                    "name": "_namesOfParticipants",
                    "type": "string[]"
                },
                {
                    "components": [
                        {
                            "internalType": "uint32",
                            "name": "vestingTime",
                            "type": "uint32"
                        },
                        {
                            "internalType": "uint32",
                            "name": "cliff",
                            "type": "uint32"
                        },
                        {
                            "internalType": "uint32",
                            "name": "collectiveStart",
                            "type": "uint32"
                        }
                    ],
                    "internalType": "struct BuidlCollective.Collective",
                    "name": "_collectiveInfo",
                    "type": "tuple"
                },
                {
                    "internalType": "address[]",
                    "name": "_tokens",
                    "type": "address[]"
                },
                {
                    "internalType": "uint128[]",
                    "name": "_prices",
                    "type": "uint128[]"
                },
                {
                    "internalType": "address[]",
                    "name": "_users",
                    "type": "address[]"
                },
                {
                    "internalType": "uint256[]",
                    "name": "_targets",
                    "type": "uint256[]"
                }
            ],
            "name": "initialize",
            "outputs": [],
            "stateMutability": "nonpayable",
            "type": "function"
        },
        {
            "inputs": [],
            "name": "lastCheckpoint",
            "outputs": [
                {
                    "internalType": "uint256",
                    "name": "",
                    "type": "uint256"
                }
            ],
            "stateMutability": "view",
            "type": "function"
        },
        {
            "inputs": [],
            "name": "lastTWAP",
            "outputs": [
                {
                    "internalType": "uint256",
                    "name": "",
                    "type": "uint256"
                }
            ],
            "stateMutability": "view",
            "type": "function"
        },
        {
            "inputs": [],
            "name": "name",
            "outputs": [
                {
                    "internalType": "string",
                    "name": "",
                    "type": "string"
                }
            ],
            "stateMutability": "view",
            "type": "function"
        },
        {
            "inputs": [
                {
                    "internalType": "uint256",
                    "name": "",
                    "type": "uint256"
                }
            ],
            "name": "namesOfParticipants",
            "outputs": [
                {
                    "internalType": "string",
                    "name": "",
                    "type": "string"
                }
            ],
            "stateMutability": "view",
            "type": "function"
        },
        {
            "inputs": [
                {
                    "internalType": "address",
                    "name": "",
                    "type": "address"
                }
            ],
            "name": "nonces",
            "outputs": [
                {
                    "internalType": "uint256",
                    "name": "",
                    "type": "uint256"
                }
            ],
            "stateMutability": "view",
            "type": "function"
        },
        {
            "inputs": [
                {
                    "internalType": "address",
                    "name": "owner",
                    "type": "address"
                },
                {
                    "internalType": "address",
                    "name": "spender",
                    "type": "address"
                },
                {
                    "internalType": "uint256",
                    "name": "value",
                    "type": "uint256"
                },
                {
                    "internalType": "uint256",
                    "name": "deadline",
                    "type": "uint256"
                },
                {
                    "internalType": "uint8",
                    "name": "v",
                    "type": "uint8"
                },
                {
                    "internalType": "bytes32",
                    "name": "r",
                    "type": "bytes32"
                },
                {
                    "internalType": "bytes32",
                    "name": "s",
                    "type": "bytes32"
                }
            ],
            "name": "permit",
            "outputs": [],
            "stateMutability": "nonpayable",
            "type": "function"
        },
        {
            "inputs": [],
            "name": "pokeApproval",
            "outputs": [
                {
                    "internalType": "bool[]",
                    "name": "",
                    "type": "bool[]"
                }
            ],
            "stateMutability": "view",
            "type": "function"
        },
        {
            "inputs": [
                {
                    "internalType": "uint256",
                    "name": "_tokenId",
                    "type": "uint256"
                }
            ],
            "name": "readToken",
            "outputs": [
                {
                    "internalType": "address",
                    "name": "",
                    "type": "address"
                },
                {
                    "components": [
                        {
                            "internalType": "uint256",
                            "name": "target",
                            "type": "uint256"
                        },
                        {
                            "internalType": "uint128",
                            "name": "price",
                            "type": "uint128"
                        },
                        {
                            "internalType": "address",
                            "name": "user",
                            "type": "address"
                        }
                    ],
                    "internalType": "struct BuidlCollective.TokenInfo",
                    "name": "",
                    "type": "tuple"
                }
            ],
            "stateMutability": "view",
            "type": "function"
        },
        {
            "inputs": [],
            "name": "releaseFactor",
            "outputs": [
                {
                    "internalType": "uint256",
                    "name": "",
                    "type": "uint256"
                }
            ],
            "stateMutability": "view",
            "type": "function"
        },
        {
            "inputs": [
                {
                    "internalType": "uint256",
                    "name": "_assetValue",
                    "type": "uint256"
                }
            ],
            "name": "stake",
            "outputs": [],
            "stateMutability": "nonpayable",
            "type": "function"
        },
        {
            "inputs": [],
            "name": "startCollective",
            "outputs": [
                {
                    "internalType": "bool",
                    "name": "",
                    "type": "bool"
                }
            ],
            "stateMutability": "nonpayable",
            "type": "function"
        },
        {
            "inputs": [],
            "name": "symbol",
            "outputs": [
                {
                    "internalType": "string",
                    "name": "",
                    "type": "string"
                }
            ],
            "stateMutability": "view",
            "type": "function"
        },
        {
            "inputs": [
                {
                    "internalType": "address",
                    "name": "",
                    "type": "address"
                }
            ],
            "name": "tokenInfo",
            "outputs": [
                {
                    "internalType": "uint256",
                    "name": "target",
                    "type": "uint256"
                },
                {
                    "internalType": "uint128",
                    "name": "price",
                    "type": "uint128"
                },
                {
                    "internalType": "address",
                    "name": "user",
                    "type": "address"
                }
            ],
            "stateMutability": "view",
            "type": "function"
        },
        {
            "inputs": [
                {
                    "internalType": "uint256",
                    "name": "",
                    "type": "uint256"
                }
            ],
            "name": "tokens",
            "outputs": [
                {
                    "internalType": "address",
                    "name": "",
                    "type": "address"
                }
            ],
            "stateMutability": "view",
            "type": "function"
        },
        {
            "inputs": [],
            "name": "totalAssets",
            "outputs": [
                {
                    "internalType": "uint256",
                    "name": "",
                    "type": "uint256"
                }
            ],
            "stateMutability": "view",
            "type": "function"
        },
        {
            "inputs": [],
            "name": "totalStaked",
            "outputs": [
                {
                    "internalType": "uint256",
                    "name": "",
                    "type": "uint256"
                }
            ],
            "stateMutability": "view",
            "type": "function"
        },
        {
            "inputs": [],
            "name": "totalSupply",
            "outputs": [
                {
                    "internalType": "uint256",
                    "name": "",
                    "type": "uint256"
                }
            ],
            "stateMutability": "view",
            "type": "function"
        },
        {
            "inputs": [
                {
                    "internalType": "address",
                    "name": "to",
                    "type": "address"
                },
                {
                    "internalType": "uint256",
                    "name": "amount",
                    "type": "uint256"
                }
            ],
            "name": "transfer",
            "outputs": [
                {
                    "internalType": "bool",
                    "name": "",
                    "type": "bool"
                }
            ],
            "stateMutability": "nonpayable",
            "type": "function"
        },
        {
            "inputs": [
                {
                    "internalType": "address",
                    "name": "from",
                    "type": "address"
                },
                {
                    "internalType": "address",
                    "name": "to",
                    "type": "address"
                },
                {
                    "internalType": "uint256",
                    "name": "amount",
                    "type": "uint256"
                }
            ],
            "name": "transferFrom",
            "outputs": [
                {
                    "internalType": "bool",
                    "name": "",
                    "type": "bool"
                }
            ],
            "stateMutability": "nonpayable",
            "type": "function"
        },
        {
            "inputs": [
                {
                    "internalType": "uint256",
                    "name": "_assetValueLeft",
                    "type": "uint256"
                }
            ],
            "name": "unstake",
            "outputs": [],
            "stateMutability": "nonpayable",
            "type": "function"
        },
        {
            "inputs": [],
            "name": "unstakeAll",
            "outputs": [],
            "stateMutability": "nonpayable",
            "type": "function"
        },
        {
            "inputs": [
                {
                    "internalType": "address",
                    "name": "_newAdmin",
                    "type": "address"
                }
            ],
            "name": "updateAdmin",
            "outputs": [],
            "stateMutability": "nonpayable",
            "type": "function"
        },
        {
            "inputs": [
                {
                    "internalType": "address",
                    "name": "",
                    "type": "address"
                }
            ],
            "name": "userInfo",
            "outputs": [
                {
                    "internalType": "uint256",
                    "name": "depositedShare",
                    "type": "uint256"
                },
                {
                    "internalType": "uint256",
                    "name": "lastCheckpointTWAP",
                    "type": "uint256"
                },
                {
                    "internalType": "uint256",
                    "name": "lastCheckpointTime",
                    "type": "uint256"
                },
                {
                    "internalType": "uint256",
                    "name": "lastCheckpointPercentageVested",
                    "type": "uint256"
                }
            ],
            "stateMutability": "view",
            "type": "function"
        }
    ],
    "bytecode": {
        "object": "0x60e06040526203f4806011553480156200001857600080fd5b506040516200343a3803806200343a8339810160408190526200003b9162000229565b82828260006200004c84826200033d565b5060016200005b83826200033d565b5060ff81166080524660a05262000071620000c8565b60c0525050600a80546001600160a01b031916339081179091556040519081527f39e7d4b9ba48f55a740a5192809dbc498fa12724c030b37dab126a3f6774c0f3915060200160405180910390a150505062000487565b60007f8b73c3c69bb8fe3d512ecc4cf759cc79239f7b179b0ffacaa9a75d522b39400f6000604051620000fc919062000409565b6040805191829003822060208301939093528101919091527fc89efdaa54c0f20c7adf612882df0950f5a951637e0307cdcb4c672f298b8bc660608201524660808201523060a082015260c00160405160208183030381529060405280519060200120905090565b634e487b7160e01b600052604160045260246000fd5b600082601f8301126200018c57600080fd5b81516001600160401b0380821115620001a957620001a962000164565b604051601f8301601f19908116603f01168101908282118183101715620001d457620001d462000164565b81604052838152602092508683858801011115620001f157600080fd5b600091505b83821015620002155785820183015181830184015290820190620001f6565b600093810190920192909252949350505050565b6000806000606084860312156200023f57600080fd5b83516001600160401b03808211156200025757600080fd5b62000265878388016200017a565b945060208601519150808211156200027c57600080fd5b506200028b868287016200017a565b925050604084015160ff81168114620002a357600080fd5b809150509250925092565b600181811c90821680620002c357607f821691505b602082108103620002e457634e487b7160e01b600052602260045260246000fd5b50919050565b601f8211156200033857600081815260208120601f850160051c81016020861015620003135750805b601f850160051c820191505b8181101562000334578281556001016200031f565b5050505b505050565b81516001600160401b0381111562000359576200035962000164565b62000371816200036a8454620002ae565b84620002ea565b602080601f831160018114620003a95760008415620003905750858301515b600019600386901b1c1916600185901b17855562000334565b600085815260208120601f198616915b82811015620003da57888601518255948401946001909101908401620003b9565b5085821015620003f95787850151600019600388901b60f8161c191681555b5050505050600190811b01905550565b60008083546200041981620002ae565b600182811680156200043457600181146200044a576200047b565b60ff19841687528215158302870194506200047b565b8760005260208060002060005b85811015620004725781548a82015290840190820162000457565b50505082870194505b50929695505050505050565b60805160a05160c051612f83620004b76000396000610dff01526000610dca015260006103130152612f836000f3fe608060405234801561001057600080fd5b506004361061021c5760003560e01c80637d9fce4d11610125578063d32e81a5116100ad578063e0c9802f1161007c578063e0c9802f1461051c578063e2f273bd1461056a578063f5dab7111461057d578063f851a440146105ea578063fed45587146105fd57600080fd5b8063d32e81a5146104cc578063d505accf146104d5578063d77a1d3a146104e8578063dd62ed3e146104f157600080fd5b80639cfdbd5e116100f45780639cfdbd5e14610421578063a4c8b46b1461043f578063a694fc3a14610454578063a9059cbb14610467578063a93206881461047a57600080fd5b80637d9fce4d146103e15780637ecebe00146103f0578063817b1cd21461041057806395d89b411461041957600080fd5b806335322f37116101a85780634e71d92d116101775780634e71d92d146103725780634f64b2be1461037a5780635da69cb6146103a55780636b954292146103ae57806370a08231146103c157600080fd5b806335322f37146103475780633644e5151461034f5780634ae99d30146103575780634c33fe941461035f57600080fd5b806318160ddd116101ef57806318160ddd146102885780631959a0021461029157806323b872dd146102e65780632e17de78146102f9578063313ce5671461030e57600080fd5b806301c0c3e51461022157806301e1d1141461024757806306fdde0314610250578063095ea7b314610265575b600080fd5b61023461022f366004612316565b610610565b6040519081526020015b60405180910390f35b610234600b5481565b61025861082e565b60405161023e9190612379565b61027861027336600461238c565b6108bc565b604051901515815260200161023e565b61023460025481565b6102c661029f366004612316565b600d6020526000908152604090208054600182015460028301546003909301549192909184565b60408051948552602085019390935291830152606082015260800161023e565b6102786102f43660046123b8565b610929565b61030c6103073660046123f9565b610a09565b005b6103357f000000000000000000000000000000000000000000000000000000000000000081565b60405160ff909116815260200161023e565b61030c610c0b565b610234610dc6565b610278610e21565b61030c61036d366004612316565b6110bc565b61030c6110ef565b61038d6103883660046123f9565b6111f2565b6040516001600160a01b03909116815260200161023e565b61023460115481565b61030c6103bc366004612729565b61121c565b6102346103cf366004612316565b60036020526000908152604090205481565b610234670de0b6b3a764000081565b6102346103fe366004612316565b60056020526000908152604090205481565b61023460105481565b6102586114a2565b61042a61271081565b60405163ffffffff909116815260200161023e565b6104476114af565b60405161023e919061280c565b61030c6104623660046123f9565b611696565b61027861047536600461238c565b6118da565b61048d6104883660046123f9565b611940565b604080516001600160a01b03938416815282516020808301919091528301516001600160801b031681830152910151909116606082015260800161023e565b610234600e5481565b61030c6104e3366004612852565b6119d1565b610234600f5481565b6102346104ff3660046128c9565b600460209081526000928352604080842090915290825290205481565b600c546105439063ffffffff808216916401000000008104821691600160401b9091041683565b6040805163ffffffff9485168152928416602084015292169181019190915260600161023e565b61030c610578366004612316565b611c15565b6105be61058b366004612316565b60096020526000908152604090208054600182015460029092015490916001600160801b0316906001600160a01b031683565b604080519384526001600160801b0390921660208401526001600160a01b03169082015260600161023e565b600a5461038d906001600160a01b031681565b61025861060b3660046123f9565b611c7a565b600061064f604051806040016040528060148152602001731d995cdd1a5b99d4195c98d95b9d1859d948095960621b81525061064a611ca5565b611d4b565b6001600160a01b0382166000908152600d6020526040902060020154421161067957506000919050565b6001600160a01b0382166000908152600d602052604081206002015461069f9042612918565b6001600160a01b0384166000908152600d6020526040812060030154919250906106c7611ca5565b6106d19190612918565b6001600160a01b0385166000908152600d6020526040812060010154600f5492935090916106ff9190612918565b9050600061070d848361292b565b905061074460405180604001604052806013815260200172185d99d4195c98d95b9d1859d954dd185ad959606a1b81525082611d4b565b6001600160a01b0386166000908152600d6020526040812054829061076c906127109061294d565b610776919061292b565b90506107ab604051806040016040528060118152602001701d5cd95c94da185c9953d994dd185ad959607a1b81525082611d4b565b60006127106107ba838761294d565b6107c4919061292b565b90506107f76040518060400160405280600f81526020016e1d5cd95c915b9d1a5d1b195b595b9d608a1b81525082611d4b565b601154861061080b57979650505050505050565b601154610818878361294d565b610822919061292b565b98975050505050505050565b6000805461083b90612964565b80601f016020809104026020016040519081016040528092919081815260200182805461086790612964565b80156108b45780601f10610889576101008083540402835291602001916108b4565b820191906000526020600020905b81548152906001019060200180831161089757829003601f168201915b505050505081565b3360008181526004602090815260408083206001600160a01b038716808552925280832085905551919290917f8c5be1e5ebec7d5bd14f71427d1e84f3dd0314c0f7b2291e5b200ac8c7c3b925906109179086815260200190565b60405180910390a35060015b92915050565b6001600160a01b03831660009081526004602090815260408083203384529091528120546000198114610985576109608382612918565b6001600160a01b03861660009081526004602090815260408083203384529091529020555b6001600160a01b038516600090815260036020526040812080548592906109ad908490612918565b90915550506001600160a01b0380851660008181526003602052604090819020805487019055519091871690600080516020612f2e833981519152906109f69087815260200190565b60405180910390a3506001949350505050565b610a44604051806040016040528060168152602001751d5c19185d1950da1958dadc1bda5b9d08095908095960521b81525042600e54611d94565b600e54421115610bff57600b54600e54610a5e9042612918565b601054610a6e906127109061294d565b610a78919061294d565b610a82919061292b565b600f6000828254610a939190612998565b909155505042600e55610aa533611de0565b50600b54600090670de0b6b3a7640000610ac16127108561294d565b610acb919061294d565b610ad5919061292b565b336000908152600d60205260409020549091508110610b345760405162461bcd60e51b8152602060048201526016602482015275554e5354414b4520414d4f554e5420544f4f2042494760501b60448201526064015b60405180910390fd5b336000908152600d602052604081208054839290610b53908490612918565b909155505060405163a9059cbb60e01b815233600482015260248101839052309063a9059cbb906044016020604051808303816000875af1158015610b9c573d6000803e3d6000fd5b505050506040513d601f19601f82011682018060405250810190610bc091906129ab565b5060408051338152602081018490527f0f499973e7d3e9601430a8fbff3e36e448210cda3fbec16fad26da79f6d0dba491015b60405180910390a15050565b610aa533611de0565b50565b610c46604051806040016040528060168152602001751d5c19185d1950da1958dadc1bda5b9d08095908095960521b81525042600e54611d94565b600e54421115610da657600b54600e54610c609042612918565b601054610c70906127109061294d565b610c7a919061294d565b610c84919061292b565b600f6000828254610c959190612998565b909155505042600e55336000908152600d602052604090205415610dc457610cbc33611de0565b50600b54336000908152600d6020526040812054909161271091670de0b6b3a764000091610ce99161294d565b610cf3919061292b565b610cfd919061292b565b60405163a9059cbb60e01b815233600482015260248101829052909150309063a9059cbb906044016020604051808303816000875af1158015610d44573d6000803e3d6000fd5b505050506040513d601f19601f82011682018060405250810190610d6891906129ab565b5060408051338152602081018390527f0f499973e7d3e9601430a8fbff3e36e448210cda3fbec16fad26da79f6d0dba491015b60405180910390a150565b336000908152600d602052604090205415610dc457610cbc33611de0565b565b60007f00000000000000000000000000000000000000000000000000000000000000004614610dfc57610df76120d5565b905090565b507f000000000000000000000000000000000000000000000000000000000000000090565b600a546000906001600160a01b03163314610e3b57600080fd5b60065460ff1615610e4b57600080fd5b6006805460ff19166001179055600880546040805160208084028201810190925282815260009390929091830182828015610eaf57602002820191906000526020600020905b81546001600160a01b03168152600190910190602001808311610e91575b50505050509050610ed9604080516060810182526000808252602082018190529181019190915290565b6000805b83518110156110365760096000858381518110610efc57610efc6129cd565b6020908102919091018101516001600160a01b0390811683528282019390935260409182016000208251606081018452815480825260018301546001600160801b0316938201849052600290920154909416928401839052875193965092879085908110610f6c57610f6c6129cd565b60209081029190910101516040516323b872dd60e01b81526001600160a01b03848116600483015230602483015260448201869052909116906323b872dd906064016020604051808303816000875af1158015610fcd573d6000803e3d6000fd5b505050506040513d601f19601f82011682018060405250810190610ff191906129ab565b5060006110076001600160801b0383168561294d565b90506110138187612998565b955061101f838261216f565b50505050808061102e906129e3565b915050610edd565b50600c805463ffffffff60401b1916600160401b4263ffffffff90811682029290921792839055611075926401000000008104831692919004166129fc565b63ffffffff16600e55600b8190556040514281527f83aaee11563f280eac61ebd060f088ce7577d5e823efa6c78de1cfec8167605d9060200160405180910390a150505090565b600a546001600160a01b031633146110d357600080fd5b60065460ff16156110e357600080fd5b806001600160a01b0316ff5b61112a604051806040016040528060168152602001751d5c19185d1950da1958dadc1bda5b9d08095908095960521b81525042600e54611d94565b600e544211156111be57600b54600e546111449042612918565b601054611154906127109061294d565b61115e919061294d565b611168919061292b565b600f60008282546111799190612998565b909155505042600e556040805180820190915260128152712028434c41494d292053454e44455220257360701b60208201526111b590336121c9565b610c0833611de0565b6111b5604051806040016040528060128152602001712028434c41494d292053454e44455220257360701b815250336121c9565b6008818154811061120257600080fd5b6000918252602090912001546001600160a01b0316905081565b600a546001600160a01b0316331461123357600080fd5b8451600c80546020880151604089015163ffffffff908116600160401b0263ffffffff60401b199081169282166401000000000267ffffffffffffffff1990941691909516179190911792909216919091179055835160005b818110156114425760078882815181106112a8576112a86129cd565b602090810291909101810151825460018101845560009384529190922001906112d19082612a6e565b50600060405180606001604052808584815181106112f1576112f16129cd565b60200260200101518152602001878481518110611310576113106129cd565b60200260200101516001600160801b03168152602001868481518110611338576113386129cd565b60200260200101516001600160a01b031681525090508060096000898581518110611365576113656129cd565b6020908102919091018101516001600160a01b03908116835282820193909352604091820160002084518155908401516001820180546fffffffffffffffffffffffffffffffff19166001600160801b03909216919091179055920151600290920180546001600160a01b0319169290911691909117905586516008908890849081106113f4576113f46129cd565b60209081029190910181015182546001810184556000938452919092200180546001600160a01b0319166001600160a01b03909216919091179055508061143a816129e3565b91505061128c565b50600c546040517f489170cfe0f7fcdd8410d20d8a81df8f038624bbcd9814cca42d477e9d1bb46991611491918a91899189918991899163ffffffff6401000000008204811692911690612bdb565b60405180910390a150505050505050565b6001805461083b90612964565b60085460609060009067ffffffffffffffff8111156114d0576114d0612412565b6040519080825280602002602001820160405280156114f9578160200160208202803683370190505b50905060005b6008548110156116905760006009600060088481548110611522576115226129cd565b60009182526020808320909101546001600160a01b039081168452908301939093526040909101812060020154600880549190931693509091908490811061156c5761156c6129cd565b600091825260209091200154604051636eb1769f60e11b81526001600160a01b0384811660048301523060248301529091169063dd62ed3e90604401602060405180830381865afa1580156115c5573d6000803e3d6000fd5b505050506040513d601f19601f820116820180604052508101906115e99190612ca9565b90506009600060088581548110611602576116026129cd565b60009182526020808320909101546001600160a01b031683528201929092526040019020548110611656576001848481518110611641576116416129cd565b9115156020928302919091019091015261167b565b600084848151811061166a5761166a6129cd565b911515602092830291909101909101525b50508080611688906129e3565b9150506114ff565b50919050565b6116d1604051806040016040528060168152602001751d5c19185d1950da1958dadc1bda5b9d08095908095960521b81525042600e54611d94565b600e544211156118aa57600b54600e546116eb9042612918565b6010546116fb906127109061294d565b611705919061294d565b61170f919061292b565b600f60008282546117209190612998565b909155505042600e818155604080518082019091529081526d080a14d51052d14a481d1cc8095960921b602082015261175891611d4b565b6040516323b872dd60e01b8152336004820152306024820181905260448201839052906323b872dd906064016020604051808303816000875af11580156117a3573d6000803e3d6000fd5b505050506040513d601f19601f820116820180604052508101906117c791906129ab565b5060006040518060800160405280600b54670de0b6b3a764000061271063ffffffff16866117f5919061294d565b6117ff919061294d565b611809919061292b565b8152602001600f548152602001428152602001611824611ca5565b9052336000908152600d60209081526040808320845181559184015160018301558301516002820155606083015160039091015560108054929350849290919061186f908490612998565b909155505060408051338152602081018490527fff6891348f1c444d5a5684266e8ea2219955d935afa162552ba767469363c15e9101610bf3565b6117586040518060400160405280600e81526020016d080a14d51052d14a481d1cc8095960921b81525042611d4b565b336000908152600360205260408120805483919083906118fb908490612918565b90915550506001600160a01b03831660008181526003602052604090819020805485019055513390600080516020612f2e833981519152906109179086815260200190565b60408051606081018252600080825260208201819052918101829052600060088481548110611971576119716129cd565b60009182526020808320909101546001600160a01b039081168084526009835260409384902084516060810186528154815260018201546001600160801b0316948101949094526002015490911692820192909252909590945092505050565b42841015611a215760405162461bcd60e51b815260206004820152601760248201527f5045524d49545f444541444c494e455f455850495245440000000000000000006044820152606401610b2b565b60006001611a2d610dc6565b6001600160a01b038a811660008181526005602090815260409182902080546001810190915582517f6e71edae12b1b97f4d1f60370fef10105fa2faae0126114a169c64845d6126c98184015280840194909452938d166060840152608083018c905260a083019390935260c08083018b90528151808403909101815260e08301909152805192019190912061190160f01b6101008301526101028201929092526101228101919091526101420160408051601f198184030181528282528051602091820120600084529083018083525260ff871690820152606081018590526080810184905260a0016020604051602081039080840390855afa158015611b39573d6000803e3d6000fd5b5050604051601f1901519150506001600160a01b03811615801590611b6f5750876001600160a01b0316816001600160a01b0316145b611bac5760405162461bcd60e51b815260206004820152600e60248201526d24a72b20a624a22fa9a4a3a722a960911b6044820152606401610b2b565b6001600160a01b0390811660009081526004602090815260408083208a8516808552908352928190208990555188815291928a16917f8c5be1e5ebec7d5bd14f71427d1e84f3dd0314c0f7b2291e5b200ac8c7c3b925910160405180910390a350505050505050565b600a546001600160a01b03163314611c2c57600080fd5b600a80546001600160a01b0319166001600160a01b0383169081179091556040519081527f39e7d4b9ba48f55a740a5192809dbc498fa12724c030b37dab126a3f6774c0f390602001610d9b565b60078181548110611c8a57600080fd5b90600052602060002001600091509050805461083b90612964565b600c54600090600160401b900463ffffffff16808203611cc757600091505090565b600c5463ffffffff166000611cdc8342612cc2565b90508063ffffffff168263ffffffff1611611cfc57506127109392505050565b600c5463ffffffff640100000000909104811690821611611d21576000935050505090565b63ffffffff80831690611d399061271090841661294d565b611d43919061292b565b935050505090565b611d908282604051602401611d61929190612cdf565b60408051601f198184030181529190526020810180516001600160e01b0316632d839cb360e21b17905261220a565b5050565b611ddb838383604051602401611dac93929190612d01565b60408051601f198184030181529190526020810180516001600160e01b031663ca47c4eb60e01b17905261220a565b505050565b6000611e126040518060400160405280600e81526020016d080a10d31052534a481d1cc8095960921b81525042611d4b565b6000611e1d83610610565b905060006008805480602002602001604051908101604052809291908181526020018280548015611e7757602002820191906000526020600020905b81546001600160a01b03168152600190910190602001808311611e59575b505050505090506000815167ffffffffffffffff811115611e9a57611e9a612412565b604051908082528060200260200182016040528015611ec3578160200160208202803683370190505b509050611f046040518060400160405280600e81526020016d534841524520256420282542502960901b815250670de0b6b3a76400008561064a919061292b565b82156120cd57600f546001600160a01b0386166000908152600d6020526040902060010155611f31611ca5565b6001600160a01b0386166000908152600d602052604081206003810192909255426002830155815485929190611f68908490612918565b9091555050600b54600090670de0b6b3a764000090611f87908661294d565b611f91919061292b565b90506000611fa16127108361292b565b9050611fad878261222b565b60005b845181101561208c576000611fc5878361228d565b905080858381518110611fda57611fda6129cd565b602002602001018181525050858281518110611ff857611ff86129cd565b602090810291909101015160405163a9059cbb60e01b81526001600160a01b038b81166004830152602482018490529091169063a9059cbb906044016020604051808303816000875af1158015612053573d6000803e3d6000fd5b505050506040513d601f19601f8201168201806040525081019061207791906129ab565b50508080612084906129e3565b915050611fb0565b507fbbfaf902cec9107d8131a7888c2b89c5e5820ff6319b992657e8eaa9a36feced878686866040516120c29493929190612d26565b60405180910390a150505b505050919050565b60007f8b73c3c69bb8fe3d512ecc4cf759cc79239f7b179b0ffacaa9a75d522b39400f60006040516121079190612d6a565b6040805191829003822060208301939093528101919091527fc89efdaa54c0f20c7adf612882df0950f5a951637e0307cdcb4c672f298b8bc660608201524660808201523060a082015260c00160405160208183030381529060405280519060200120905090565b80600260008282546121819190612998565b90915550506001600160a01b038216600081815260036020908152604080832080548601905551848152600080516020612f2e83398151915291015b60405180910390a35050565b611d9082826040516024016121df929190612de0565b60408051601f198184030181529190526020810180516001600160e01b031663319af33360e01b1790525b80516a636f6e736f6c652e6c6f67602083016000808483855afa5050505050565b6001600160a01b03821660009081526003602052604081208054839290612253908490612918565b90915550506002805482900390556040518181526000906001600160a01b03841690600080516020612f2e833981519152906020016121bd565b60006122a3670de0b6b3a7640000612710612f1b565b63ffffffff168360096000600886815481106122c1576122c16129cd565b60009182526020808320909101546001600160a01b031683528201929092526040019020546122f0919061294d565b6122fa919061292b565b9392505050565b6001600160a01b0381168114610c0857600080fd5b60006020828403121561232857600080fd5b81356122fa81612301565b6000815180845260005b818110156123595760208185018101518683018201520161233d565b506000602082860101526020601f19601f83011685010191505092915050565b6020815260006122fa6020830184612333565b6000806040838503121561239f57600080fd5b82356123aa81612301565b946020939093013593505050565b6000806000606084860312156123cd57600080fd5b83356123d881612301565b925060208401356123e881612301565b929592945050506040919091013590565b60006020828403121561240b57600080fd5b5035919050565b634e487b7160e01b600052604160045260246000fd5b604051601f8201601f1916810167ffffffffffffffff8111828210171561245157612451612412565b604052919050565b600067ffffffffffffffff82111561247357612473612412565b5060051b60200190565b6000601f838184011261248f57600080fd5b823560206124a461249f83612459565b612428565b82815260059290921b850181019181810190878411156124c357600080fd5b8287015b8481101561255a57803567ffffffffffffffff808211156124e85760008081fd5b818a0191508a603f8301126124fd5760008081fd5b8582013560408282111561251357612513612412565b612524828b01601f19168901612428565b92508183528c8183860101111561253b5760008081fd5b81818501898501375060009082018701528452509183019183016124c7565b50979650505050505050565b803563ffffffff8116811461257a57600080fd5b919050565b60006060828403121561259157600080fd5b6040516060810181811067ffffffffffffffff821117156125b4576125b4612412565b6040529050806125c383612566565b81526125d160208401612566565b60208201526125e260408401612566565b60408201525092915050565b600082601f8301126125ff57600080fd5b8135602061260f61249f83612459565b82815260059290921b8401810191818101908684111561262e57600080fd5b8286015b8481101561265257803561264581612301565b8352918301918301612632565b509695505050505050565b600082601f83011261266e57600080fd5b8135602061267e61249f83612459565b82815260059290921b8401810191818101908684111561269d57600080fd5b8286015b848110156126525780356001600160801b03811681146126c15760008081fd5b83529183019183016126a1565b600082601f8301126126df57600080fd5b813560206126ef61249f83612459565b82815260059290921b8401810191818101908684111561270e57600080fd5b8286015b848110156126525780358352918301918301612712565b600080600080600080610100878903121561274357600080fd5b863567ffffffffffffffff8082111561275b57600080fd5b6127678a838b0161247d565b97506127768a60208b0161257f565b9650608089013591508082111561278c57600080fd5b6127988a838b016125ee565b955060a08901359150808211156127ae57600080fd5b6127ba8a838b0161265d565b945060c08901359150808211156127d057600080fd5b6127dc8a838b016125ee565b935060e08901359150808211156127f257600080fd5b506127ff89828a016126ce565b9150509295509295509295565b6020808252825182820181905260009190848201906040850190845b81811015612846578351151583529284019291840191600101612828565b50909695505050505050565b600080600080600080600060e0888a03121561286d57600080fd5b873561287881612301565b9650602088013561288881612301565b95506040880135945060608801359350608088013560ff811681146128ac57600080fd5b9699959850939692959460a0840135945060c09093013592915050565b600080604083850312156128dc57600080fd5b82356128e781612301565b915060208301356128f781612301565b809150509250929050565b634e487b7160e01b600052601160045260246000fd5b8181038181111561092357610923612902565b60008261294857634e487b7160e01b600052601260045260246000fd5b500490565b808202811582820484141761092357610923612902565b600181811c9082168061297857607f821691505b60208210810361169057634e487b7160e01b600052602260045260246000fd5b8082018082111561092357610923612902565b6000602082840312156129bd57600080fd5b815180151581146122fa57600080fd5b634e487b7160e01b600052603260045260246000fd5b6000600182016129f5576129f5612902565b5060010190565b63ffffffff818116838216019080821115612a1957612a19612902565b5092915050565b601f821115611ddb57600081815260208120601f850160051c81016020861015612a475750805b601f850160051c820191505b81811015612a6657828155600101612a53565b505050505050565b815167ffffffffffffffff811115612a8857612a88612412565b612a9c81612a968454612964565b84612a20565b602080601f831160018114612ad15760008415612ab95750858301515b600019600386901b1c1916600185901b178555612a66565b600085815260208120601f198616915b82811015612b0057888601518255948401946001909101908401612ae1565b5085821015612b1e5787850151600019600388901b60f8161c191681555b5050505050600190811b01905550565b600081518084526020808501945080840160005b83811015612b675781516001600160a01b031687529582019590820190600101612b42565b509495945050505050565b600081518084526020808501945080840160005b83811015612b675781516001600160801b031687529582019590820190600101612b86565b600081518084526020808501945080840160005b83811015612b6757815187529582019590820190600101612bbf565b60e08082528851908201819052600090610100600582901b8401810191908401906020808d01855b83811015612c315760ff19888703018552612c1f868351612333565b95509382019390820190600101612c03565b505085840381870152505050612c47818a612b2e565b90508281036040840152612c5b8189612b72565b90508281036060840152612c6f8188612b2e565b90508281036080840152612c838187612bab565b915050612c9860a083018563ffffffff169052565b63ffffffff831660c0830152610822565b600060208284031215612cbb57600080fd5b5051919050565b63ffffffff828116828216039080821115612a1957612a19612902565b604081526000612cf26040830185612333565b90508260208301529392505050565b606081526000612d146060830186612333565b60208301949094525060400152919050565b60018060a01b0385168152836020820152608060408201526000612d4d6080830185612b2e565b8281036060840152612d5f8185612bab565b979650505050505050565b6000808354612d7881612964565b60018281168015612d905760018114612da557612dd4565b60ff1984168752821515830287019450612dd4565b8760005260208060002060005b85811015612dcb5781548a820152908401908201612db2565b50505082870194505b50929695505050505050565b604081526000612df36040830185612333565b905060018060a01b03831660208301529392505050565b600181815b80851115612e47578163ffffffff04821115612e2d57612e2d612902565b80851615612e3a57918102915b93841c9390800290612e0f565b509250929050565b600082612e5e57506001610923565b81612e6b57506000610923565b8160018114612e815760028114612e8b57612ebc565b6001915050610923565b60ff841115612e9c57612e9c612902565b6001841b915063ffffffff821115612eb657612eb6612902565b50610923565b5060208310610133831016604e8410600b8410161715612ef3575081810a63ffffffff811115612eee57612eee612902565b610923565b612efd8383612e0a565b8063ffffffff04821115612f1357612f13612902565b029392505050565b60006122fa8363ffffffff8416612e4f56feddf252ad1be2c89b69c2b068fc378daa952ba7f163c4a11628f55a4df523b3efa2646970667358221220535f974d75a9a23e519714b86f715649236bf66c306f713fb76edab7c4d6fc8964736f6c63430008110033",
        "linkReferences": {}
    },
    "methodIdentifiers": {
        "BP()": "9cfdbd5e",
        "DOMAIN_SEPARATOR()": "3644e515",
        "VEST_MULTIPLIER()": "7d9fce4d",
        "admin()": "f851a440",
        "allowance(address,address)": "dd62ed3e",
        "approve(address,uint256)": "095ea7b3",
        "balanceOf(address)": "70a08231",
        "calculateShareToClaim(address)": "01c0c3e5",
        "cancel(address)": "4c33fe94",
        "claim()": "4e71d92d",
        "collectiveInfo()": "e0c9802f",
        "decimals()": "313ce567",
        "initialize(string[],(uint32,uint32,uint32),address[],uint128[],address[],uint256[])": "6b954292",
        "lastCheckpoint()": "d32e81a5",
        "lastTWAP()": "d77a1d3a",
        "name()": "06fdde03",
        "namesOfParticipants(uint256)": "fed45587",
        "nonces(address)": "7ecebe00",
        "permit(address,address,uint256,uint256,uint8,bytes32,bytes32)": "d505accf",
        "pokeApproval()": "a4c8b46b",
        "readToken(uint256)": "a9320688",
        "releaseFactor()": "5da69cb6",
        "stake(uint256)": "a694fc3a",
        "startCollective()": "4ae99d30",
        "symbol()": "95d89b41",
        "tokenInfo(address)": "f5dab711",
        "tokens(uint256)": "4f64b2be",
        "totalAssets()": "01e1d114",
        "totalStaked()": "817b1cd2",
        "totalSupply()": "18160ddd",
        "transfer(address,uint256)": "a9059cbb",
        "transferFrom(address,address,uint256)": "23b872dd",
        "unstake(uint256)": "2e17de78",
        "unstakeAll()": "35322f37",
        "updateAdmin(address)": "e2f273bd",
        "userInfo(address)": "1959a002"
    },
    "id": 19
}